{
  "contractName": "CellMaintenanceAgent",
  "abi": [
    {
      "inputs": [],
      "stateMutability": "nonpayable",
      "type": "constructor"
    },
    {
      "anonymous": false,
      "inputs": [
        {
          "indexed": false,
          "internalType": "string",
          "name": "description",
          "type": "string"
        },
        {
          "indexed": false,
          "internalType": "string",
          "name": "problemDefinition",
          "type": "string"
        }
      ],
      "name": "Logging",
      "type": "event"
    },
    {
      "inputs": [
        {
          "internalType": "string",
          "name": "_description",
          "type": "string"
        },
        {
          "internalType": "string",
          "name": "_problemDefinition",
          "type": "string"
        }
      ],
      "name": "assignLogging",
      "outputs": [],
      "stateMutability": "nonpayable",
      "type": "function"
    },
    {
      "inputs": [],
      "name": "getType",
      "outputs": [
        {
          "internalType": "enum Constants.ClassType",
          "name": "",
          "type": "uint8"
        }
      ],
      "stateMutability": "pure",
      "type": "function"
    }
  ],
  "bytecode": "0x608060405234801561001057600080fd5b507fa9d91cc697596a622987557e6e267f14696c1f90ad12b28a22d1d35afdaf683e60405161003e90610091565b60405180910390a1610101565b6000610058601b836100c4565b9150610063826100d5565b602082019050919050565b600061007b6000836100c4565b9150610086826100fe565b600082019050919050565b600060408201905081810360008301526100aa8161004b565b905081810360208301526100bd8161006e565b9050919050565b600082825260208201905092915050565b7f636f6e7374727563746f7220686173206265656e2063616c6c65640000000000600082015250565b50565b610414806101106000396000f3fe608060405234801561001057600080fd5b50600436106100365760003560e01c80630e950a6d1461003b57806315dae03e14610057575b600080fd5b6100556004803603810190610050919061012b565b610075565b005b61005f6100b2565b60405161006c91906101eb565b60405180910390f35b7fa9d91cc697596a622987557e6e267f14696c1f90ad12b28a22d1d35afdaf683e82826040516100a6929190610206565b60405180910390a15050565b60006002905090565b60006100ce6100c984610262565b61023d565b9050828152602081018484840111156100ea576100e96103aa565b5b6100f58482856102d4565b509392505050565b600082601f830112610112576101116103a5565b5b81356101228482602086016100bb565b91505092915050565b60008060408385031215610142576101416103b4565b5b600083013567ffffffffffffffff8111156101605761015f6103af565b5b61016c858286016100fd565b925050602083013567ffffffffffffffff81111561018d5761018c6103af565b5b610199858286016100fd565b9150509250929050565b6101ac816102c2565b82525050565b60006101bd82610293565b6101c7818561029e565b93506101d78185602086016102e3565b6101e0816103b9565b840191505092915050565b600060208201905061020060008301846101a3565b92915050565b6000604082019050818103600083015261022081856101b2565b9050818103602083015261023481846101b2565b90509392505050565b6000610247610258565b90506102538282610316565b919050565b6000604051905090565b600067ffffffffffffffff82111561027d5761027c610376565b5b610286826103b9565b9050602081019050919050565b600081519050919050565b600082825260208201905092915050565b60008190506102bd826103ca565b919050565b60006102cd826102af565b9050919050565b82818337600083830152505050565b60005b838110156103015780820151818401526020810190506102e6565b83811115610310576000848401525b50505050565b61031f826103b9565b810181811067ffffffffffffffff8211171561033e5761033d610376565b5b80604052505050565b7f4e487b7100000000000000000000000000000000000000000000000000000000600052602160045260246000fd5b7f4e487b7100000000000000000000000000000000000000000000000000000000600052604160045260246000fd5b600080fd5b600080fd5b600080fd5b600080fd5b6000601f19601f8301169050919050565b600381106103db576103da610347565b5b5056fea264697066735822122041b291bfdce5e608ac082faa79abf3014ce71493a45d7b1e946381fd7c873aa664736f6c63430008070033",
  "immutableReferences": {},
  "source": "//SPDX-License-Identifier: MIT\npragma solidity >=0.8.7; \n\nimport \"./FactoryBoxRoles.sol\";\n\n\n//This contract is just for Logging and Monitoring for entire system\ncontract CellMaintenanceAgent is FactoryBoxRoles {\n    event Logging(string description, string problemDefinition); \n\n    constructor() {\n        emit Logging(\"constructor has been called\", \"\");\n    }\n\n    function assignLogging(string memory _description, string memory _problemDefinition) public {\n        emit Logging(_description, _problemDefinition);\n    }\n\n    function getType() public pure override returns(Constants.ClassType) {\n        return Constants.ClassType.CellMaintenanceAgent;\n    }\n\n}",
  "sourcePath": "/media/zoint/D0F4-36FA/AllFiles/Projeler/zointblackbriar/Smart_Contract_Examples/Factory-in-a-Box/contracts/CellMaintenanceAgent.sol",
  "compiler": {
    "name": "solc",
    "version": "0.8.7+commit.e28d00a7.Emscripten.clang"
  },
  "schemaVersion": "3.4.7",
  "updatedAt": "2022-07-26T16:50:36.039Z",
  "devdoc": {
    "kind": "dev",
    "methods": {},
    "version": 1
  },
  "userdoc": {
    "kind": "user",
    "methods": {},
    "version": 1
  }
}