{
  "contractName": "CellConfigurator",
  "abi": [
    {
      "inputs": [
        {
          "internalType": "uint256",
          "name": "sampleAsset",
          "type": "uint256"
        }
      ],
      "stateMutability": "nonpayable",
      "type": "constructor"
    },
    {
      "inputs": [],
      "name": "companyId",
      "outputs": [
        {
          "internalType": "string",
          "name": "",
          "type": "string"
        }
      ],
      "stateMutability": "view",
      "type": "function"
    },
    {
      "inputs": [],
      "name": "companyName",
      "outputs": [
        {
          "internalType": "string",
          "name": "",
          "type": "string"
        }
      ],
      "stateMutability": "view",
      "type": "function"
    },
    {
      "inputs": [],
      "name": "isProductionEnvLeased",
      "outputs": [
        {
          "internalType": "bool",
          "name": "",
          "type": "bool"
        }
      ],
      "stateMutability": "view",
      "type": "function"
    },
    {
      "inputs": [],
      "name": "machineID",
      "outputs": [
        {
          "internalType": "string",
          "name": "",
          "type": "string"
        }
      ],
      "stateMutability": "view",
      "type": "function"
    },
    {
      "inputs": [],
      "name": "serviceProviderID",
      "outputs": [
        {
          "internalType": "string",
          "name": "",
          "type": "string"
        }
      ],
      "stateMutability": "view",
      "type": "function"
    },
    {
      "inputs": [],
      "name": "getCompanyName",
      "outputs": [
        {
          "internalType": "string",
          "name": "",
          "type": "string"
        }
      ],
      "stateMutability": "view",
      "type": "function"
    },
    {
      "inputs": [],
      "name": "getCompanyId",
      "outputs": [
        {
          "internalType": "string",
          "name": "",
          "type": "string"
        }
      ],
      "stateMutability": "view",
      "type": "function"
    },
    {
      "inputs": [
        {
          "internalType": "string",
          "name": "_companyName",
          "type": "string"
        }
      ],
      "name": "setCompanyName",
      "outputs": [],
      "stateMutability": "nonpayable",
      "type": "function"
    },
    {
      "inputs": [
        {
          "internalType": "string",
          "name": "_companyId",
          "type": "string"
        }
      ],
      "name": "setCompanyId",
      "outputs": [],
      "stateMutability": "nonpayable",
      "type": "function"
    },
    {
      "inputs": [],
      "name": "getType",
      "outputs": [
        {
          "internalType": "enum Constants.ClassType",
          "name": "",
          "type": "uint8"
        }
      ],
      "stateMutability": "pure",
      "type": "function"
    }
  ],
  "bytecode": "0x608060405234801561001057600080fd5b50604051610baa380380610baa833981810160405281019061003291906100d2565b33600560006101000a81548173ffffffffffffffffffffffffffffffffffffffff021916908373ffffffffffffffffffffffffffffffffffffffff16021790555080600660003373ffffffffffffffffffffffffffffffffffffffff1673ffffffffffffffffffffffffffffffffffffffff1681526020019081526020016000208190555050610125565b6000815190506100cc8161010e565b92915050565b6000602082840312156100e8576100e7610109565b5b60006100f6848285016100bd565b91505092915050565b6000819050919050565b600080fd5b610117816100ff565b811461012257600080fd5b50565b610a76806101346000396000f3fe608060405234801561001057600080fd5b506004361061009e5760003560e01c80639f14d7c2116100665780639f14d7c214610137578063a4911f6414610155578063d4c3a63214610173578063eb3313f014610191578063f5ec2eed146101ad5761009e565b806315dae03e146100a3578063285b10b3146100c157806343cfbd65146100df5780637bc3a733146100fd5780638c439f6a1461011b575b600080fd5b6100ab6101cb565b6040516100b891906107f5565b60405180910390f35b6100c96101d0565b6040516100d691906107da565b60405180910390f35b6100e76101e3565b6040516100f49190610810565b60405180910390f35b610105610275565b6040516101129190610810565b60405180910390f35b6101356004803603810190610130919061073a565b610303565b005b61013f610377565b60405161014c9190610810565b60405180910390f35b61015d610409565b60405161016a9190610810565b60405180910390f35b61017b610497565b6040516101889190610810565b60405180910390f35b6101ab60048036038101906101a6919061073a565b610525565b005b6101b5610599565b6040516101c29190610810565b60405180910390f35b600090565b600260009054906101000a900460ff1681565b6060600080546101f290610917565b80601f016020809104026020016040519081016040528092919081815260200182805461021e90610917565b801561026b5780601f106102405761010080835404028352916020019161026b565b820191906000526020600020905b81548152906001019060200180831161024e57829003601f168201915b5050505050905090565b6001805461028290610917565b80601f01602080910402602001604051908101604052809291908181526020018280546102ae90610917565b80156102fb5780601f106102d0576101008083540402835291602001916102fb565b820191906000526020600020905b8154815290600101906020018083116102de57829003601f168201915b505050505081565b600560009054906101000a900473ffffffffffffffffffffffffffffffffffffffff1673ffffffffffffffffffffffffffffffffffffffff163373ffffffffffffffffffffffffffffffffffffffff161461035d57600080fd5b8060019080519060200190610373929190610627565b5050565b60606001805461038690610917565b80601f01602080910402602001604051908101604052809291908181526020018280546103b290610917565b80156103ff5780601f106103d4576101008083540402835291602001916103ff565b820191906000526020600020905b8154815290600101906020018083116103e257829003601f168201915b5050505050905090565b6003805461041690610917565b80601f016020809104026020016040519081016040528092919081815260200182805461044290610917565b801561048f5780601f106104645761010080835404028352916020019161048f565b820191906000526020600020905b81548152906001019060200180831161047257829003601f168201915b505050505081565b600480546104a490610917565b80601f01602080910402602001604051908101604052809291908181526020018280546104d090610917565b801561051d5780601f106104f25761010080835404028352916020019161051d565b820191906000526020600020905b81548152906001019060200180831161050057829003601f168201915b505050505081565b600560009054906101000a900473ffffffffffffffffffffffffffffffffffffffff1673ffffffffffffffffffffffffffffffffffffffff163373ffffffffffffffffffffffffffffffffffffffff161461057f57600080fd5b8060009080519060200190610595929190610627565b5050565b600080546105a690610917565b80601f01602080910402602001604051908101604052809291908181526020018280546105d290610917565b801561061f5780601f106105f45761010080835404028352916020019161061f565b820191906000526020600020905b81548152906001019060200180831161060257829003601f168201915b505050505081565b82805461063390610917565b90600052602060002090601f016020900481019282610655576000855561069c565b82601f1061066e57805160ff191683800117855561069c565b8280016001018555821561069c579182015b8281111561069b578251825591602001919060010190610680565b5b5090506106a991906106ad565b5090565b5b808211156106c65760008160009055506001016106ae565b5090565b60006106dd6106d884610857565b610832565b9050828152602081018484840111156106f9576106f8610a0c565b5b6107048482856108d5565b509392505050565b600082601f83011261072157610720610a07565b5b81356107318482602086016106ca565b91505092915050565b6000602082840312156107505761074f610a16565b5b600082013567ffffffffffffffff81111561076e5761076d610a11565b5b61077a8482850161070c565b91505092915050565b61078c816108a4565b82525050565b61079b816108c3565b82525050565b60006107ac82610888565b6107b68185610893565b93506107c68185602086016108e4565b6107cf81610a1b565b840191505092915050565b60006020820190506107ef6000830184610783565b92915050565b600060208201905061080a6000830184610792565b92915050565b6000602082019050818103600083015261082a81846107a1565b905092915050565b600061083c61084d565b90506108488282610949565b919050565b6000604051905090565b600067ffffffffffffffff821115610872576108716109d8565b5b61087b82610a1b565b9050602081019050919050565b600081519050919050565b600082825260208201905092915050565b60008115159050919050565b60008190506108be82610a2c565b919050565b60006108ce826108b0565b9050919050565b82818337600083830152505050565b60005b838110156109025780820151818401526020810190506108e7565b83811115610911576000848401525b50505050565b6000600282049050600182168061092f57607f821691505b60208210811415610943576109426109a9565b5b50919050565b61095282610a1b565b810181811067ffffffffffffffff82111715610971576109706109d8565b5b80604052505050565b7f4e487b7100000000000000000000000000000000000000000000000000000000600052602160045260246000fd5b7f4e487b7100000000000000000000000000000000000000000000000000000000600052602260045260246000fd5b7f4e487b7100000000000000000000000000000000000000000000000000000000600052604160045260246000fd5b600080fd5b600080fd5b600080fd5b600080fd5b6000601f19601f8301169050919050565b60038110610a3d57610a3c61097a565b5b5056fea2646970667358221220ae4b25c0adda2541a325957ced152ea4823b71030746bb02f8613062be142b7164736f6c63430008070033",
  "immutableReferences": {},
  "source": "//SPDX-License-Identifier: MIT\npragma solidity >=0.8.7; \n\nimport \"./FactoryBoxRoles.sol\";\n\n\ncontract CellConfigurator is FactoryBoxRoles {\n    //Each participant should have unique Id in the network. \n    string public companyName; \n    string  public companyId; \n    bool public isProductionEnvLeased; \n    string public serviceProviderID; //public key of service provider ID\n    string public machineID; //public key of machine asset\n    address owner; \n    mapping(address => uint) balance; \n\n    modifier onlyOwner() {\n        require(msg.sender == owner); \n        _;\n    }\n\n    constructor(uint sampleAsset) {\n        owner = msg.sender;\n        balance[msg.sender] = sampleAsset;\n    }\n\n    function getCompanyName() public view returns(string memory) {\n        return companyName; \n    } \n\n    function getCompanyId() public view returns(string memory) {\n        return companyId; \n    }\n\n    function setCompanyName(string memory _companyName) onlyOwner public {\n        companyName = _companyName; \n    }\n\n    function setCompanyId(string memory _companyId) onlyOwner public {\n        companyId = _companyId;\n    }\n\n    function getType() public pure override returns(Constants.ClassType) {\n        return Constants.ClassType.CellConfigurator;\n    }\n\n}",
  "sourcePath": "/media/zoint/D0F4-36FA/AllFiles/Projeler/zointblackbriar/Smart_Contract_Examples/Factory-in-a-Box/contracts/CellConfigurator.sol",
  "compiler": {
    "name": "solc",
    "version": "0.8.7+commit.e28d00a7.Emscripten.clang"
  },
  "schemaVersion": "3.4.7",
  "updatedAt": "2022-07-26T16:50:36.024Z",
  "devdoc": {
    "kind": "dev",
    "methods": {},
    "version": 1
  },
  "userdoc": {
    "kind": "user",
    "methods": {},
    "version": 1
  }
}