{
  "contractName": "CellConfiguratorControllerRole",
  "abi": [
    {
      "inputs": [],
      "name": "getType",
      "outputs": [
        {
          "internalType": "enum Constants.ClassType",
          "name": "",
          "type": "uint8"
        }
      ],
      "stateMutability": "pure",
      "type": "function"
    }
  ],
  "bytecode": "0x608060405234801561001057600080fd5b5061010d806100206000396000f3fe6080604052348015600f57600080fd5b506004361060285760003560e01c806315dae03e14602d575b600080fd5b60336047565b604051603e9190605d565b60405180910390f35b60006001905090565b6057816087565b82525050565b6000602082019050607060008301846050565b92915050565b600081905060828260c6565b919050565b60006090826076565b9050919050565b7f4e487b7100000000000000000000000000000000000000000000000000000000600052602160045260246000fd5b6003811060d45760d36097565b5b5056fea2646970667358221220804f5ed27d4bc0880c25b2cb8ddebb3a19155cfb9be3d74de059732c68768bd564736f6c63430008070033",
  "immutableReferences": {},
  "source": "//SPDX-License-Identifier: MIT \npragma solidity >=0.8.7; \n\nlibrary Constants {\n    enum ClassType {CellConfiguratorRole, CellConfiguratorControllerRole, CellMaintenanceAgentRole }\n}\n\nabstract contract FactoryBoxRoles {\n    function getType() public pure virtual returns(Constants.ClassType); \n}\n\ncontract CellConfiguratorRole is FactoryBoxRoles{\n    function getType() public pure override returns(Constants.ClassType) {\n        return Constants.ClassType.CellConfiguratorRole;\n    }\n}\n\ncontract CellConfiguratorControllerRole is FactoryBoxRoles{\n    function getType() public pure override returns(Constants.ClassType) {\n        return Constants.ClassType.CellConfiguratorControllerRole; \n    }\n}\n\ncontract CellMaintenanceAgentRole is FactoryBoxRoles{\n    function getType() public pure override returns(Constants.ClassType) {\n        return Constants.ClassType.CellMaintenanceAgentRole;\n    }\n}\n\ncontract RoleSubtypingFactoryBox  {\n    event Logging(string description); \n    function assignmentOfRoles() public payable returns(string[] memory) {\n        string[] memory sampleReturn;\n        FactoryBoxRoles[] memory factoryboxroles = new FactoryBoxRoles[](3);\n        factoryboxroles[0] = new CellConfiguratorRole(); \n        factoryboxroles[1] = new CellConfiguratorControllerRole(); \n        factoryboxroles[2] = new CellMaintenanceAgentRole(); \n\n        if(factoryboxroles[0].getType() == Constants.ClassType.CellConfiguratorRole) {\n            emit Logging(\"CellConfiguratorRole\");\n            sampleReturn[0] = \"CellConfiguratorRole\";\n        }\n\n        if(factoryboxroles[1].getType() == Constants.ClassType.CellConfiguratorControllerRole) {\n            emit Logging(\"CellConfiguratorControllerRole\"); \n            sampleReturn[1] = \"CellConfiguratorControllerRole\"; \n        }\n\n        if(factoryboxroles[2].getType() == Constants.ClassType.CellMaintenanceAgentRole) {\n            emit Logging(\"CellMaintenanceAgentRole\");\n            sampleReturn[2] = \"CellMaintenanceAgentRole\";\n        }\n\n        return sampleReturn; \n    }\n}",
  "sourcePath": "/media/zoint/D0F4-36FA/AllFiles/Projeler/zointblackbriar/Smart_Contract_Examples/Factory-in-a-Box/contracts/RoleSubtypingFactoryBox.sol",
  "compiler": {
    "name": "solc",
    "version": "0.8.7+commit.e28d00a7.Emscripten.clang"
  },
  "schemaVersion": "3.4.7",
  "updatedAt": "2022-07-26T13:01:25.527Z",
  "devdoc": {
    "kind": "dev",
    "methods": {},
    "version": 1
  },
  "userdoc": {
    "kind": "user",
    "methods": {},
    "version": 1
  }
}