{
  "contractName": "RoleSubtypingFactoryBox",
  "abi": [
    {
      "anonymous": false,
      "inputs": [
        {
          "indexed": false,
          "internalType": "string",
          "name": "description",
          "type": "string"
        }
      ],
      "name": "Logging",
      "type": "event"
    },
    {
      "inputs": [],
      "name": "assignmentOfRoles",
      "outputs": [
        {
          "internalType": "string[]",
          "name": "",
          "type": "string[]"
        }
      ],
      "stateMutability": "payable",
      "type": "function"
    }
  ],
  "bytecode": "0x608060405234801561001057600080fd5b50611c4e806100206000396000f3fe60806040526004361061001e5760003560e01c80632a9ba6f814610023575b600080fd5b61002b610041565b604051610038919061079d565b60405180910390f35b6060806000600367ffffffffffffffff8111156100615761006061094d565b5b60405190808252806020026020018201604052801561008f5781602001602082028036833780820191505090505b509050600c6040516100a0906105fa565b6100aa91906107bf565b604051809103906000f0801580156100c6573d6000803e3d6000fd5b50816000815181106100db576100da61091e565b5b602002602001019073ffffffffffffffffffffffffffffffffffffffff16908173ffffffffffffffffffffffffffffffffffffffff168152505060405161012190610607565b604051809103906000f08015801561013d573d6000803e3d6000fd5b50816001815181106101525761015161091e565b5b602002602001019073ffffffffffffffffffffffffffffffffffffffff16908173ffffffffffffffffffffffffffffffffffffffff168152505060405161019890610614565b604051809103906000f0801580156101b4573d6000803e3d6000fd5b50816002815181106101c9576101c861091e565b5b602002602001019073ffffffffffffffffffffffffffffffffffffffff16908173ffffffffffffffffffffffffffffffffffffffff168152505060006002811115610217576102166108ef565b5b8160008151811061022b5761022a61091e565b5b602002602001015173ffffffffffffffffffffffffffffffffffffffff166315dae03e6040518163ffffffff1660e01b815260040160206040518083038186803b15801561027857600080fd5b505afa15801561028c573d6000803e3d6000fd5b505050506040513d601f19601f820116820180604052508101906102b09190610636565b60028111156102c2576102c16108ef565b5b1415610353577fb1ed47ced4562a888b3c47e728f82f7863e472cad724018fe1585bc6853ec82d6040516102f5906107fa565b60405180910390a16040518060400160405280601481526020017f43656c6c436f6e666967757261746f72526f6c65000000000000000000000000815250826000815181106103475761034661091e565b5b60200260200101819052505b60016002811115610367576103666108ef565b5b8160018151811061037b5761037a61091e565b5b602002602001015173ffffffffffffffffffffffffffffffffffffffff166315dae03e6040518163ffffffff1660e01b815260040160206040518083038186803b1580156103c857600080fd5b505afa1580156103dc573d6000803e3d6000fd5b505050506040513d601f19601f820116820180604052508101906104009190610636565b6002811115610412576104116108ef565b5b14156104a3577fb1ed47ced4562a888b3c47e728f82f7863e472cad724018fe1585bc6853ec82d6040516104459061081a565b60405180910390a16040518060400160405280601e81526020017f43656c6c436f6e666967757261746f72436f6e74726f6c6c6572526f6c650000815250826001815181106104975761049661091e565b5b60200260200101819052505b6002808111156104b6576104b56108ef565b5b816002815181106104ca576104c961091e565b5b602002602001015173ffffffffffffffffffffffffffffffffffffffff166315dae03e6040518163ffffffff1660e01b815260040160206040518083038186803b15801561051757600080fd5b505afa15801561052b573d6000803e3d6000fd5b505050506040513d601f19601f8201168201806040525081019061054f9190610636565b6002811115610561576105606108ef565b5b14156105f2577fb1ed47ced4562a888b3c47e728f82f7863e472cad724018fe1585bc6853ec82d604051610594906107da565b60405180910390a16040518060400160405280601881526020017f43656c6c4d61696e74656e616e63654167656e74526f6c650000000000000000815250826002815181106105e6576105e561091e565b5b60200260200101819052505b819250505090565b610baa80610a1e83390190565b61012d806115c883390190565b610524806116f583390190565b60008151905061063081610a0d565b92915050565b60006020828403121561064c5761064b61097c565b5b600061065a84828501610621565b91505092915050565b600061066f83836106fb565b905092915050565b60006106828261084a565b61068c818561086d565b93508360208202850161069e8561083a565b8060005b858110156106da57848403895281516106bb8582610663565b94506106c683610860565b925060208a019950506001810190506106a2565b50829750879550505050505092915050565b6106f5816108aa565b82525050565b600061070682610855565b610710818561087e565b93506107208185602086016108bc565b61072981610981565b840191505092915050565b600061074160188361088f565b915061074c82610992565b602082019050919050565b600061076460148361088f565b915061076f826109bb565b602082019050919050565b6000610787601e8361088f565b9150610792826109e4565b602082019050919050565b600060208201905081810360008301526107b78184610677565b905092915050565b60006020820190506107d460008301846106ec565b92915050565b600060208201905081810360008301526107f381610734565b9050919050565b6000602082019050818103600083015261081381610757565b9050919050565b600060208201905081810360008301526108338161077a565b9050919050565b6000819050602082019050919050565b600081519050919050565b600081519050919050565b6000602082019050919050565b600082825260208201905092915050565b600082825260208201905092915050565b600082825260208201905092915050565b6000819050919050565b60006108b5826108a0565b9050919050565b60005b838110156108da5780820151818401526020810190506108bf565b838111156108e9576000848401525b50505050565b7f4e487b7100000000000000000000000000000000000000000000000000000000600052602160045260246000fd5b7f4e487b7100000000000000000000000000000000000000000000000000000000600052603260045260246000fd5b7f4e487b7100000000000000000000000000000000000000000000000000000000600052604160045260246000fd5b600080fd5b6000601f19601f8301169050919050565b7f43656c6c4d61696e74656e616e63654167656e74526f6c650000000000000000600082015250565b7f43656c6c436f6e666967757261746f72526f6c65000000000000000000000000600082015250565b7f43656c6c436f6e666967757261746f72436f6e74726f6c6c6572526f6c650000600082015250565b60038110610a1a57600080fd5b5056fe608060405234801561001057600080fd5b50604051610baa380380610baa833981810160405281019061003291906100d2565b33600560006101000a81548173ffffffffffffffffffffffffffffffffffffffff021916908373ffffffffffffffffffffffffffffffffffffffff16021790555080600660003373ffffffffffffffffffffffffffffffffffffffff1673ffffffffffffffffffffffffffffffffffffffff1681526020019081526020016000208190555050610125565b6000815190506100cc8161010e565b92915050565b6000602082840312156100e8576100e7610109565b5b60006100f6848285016100bd565b91505092915050565b6000819050919050565b600080fd5b610117816100ff565b811461012257600080fd5b50565b610a76806101346000396000f3fe608060405234801561001057600080fd5b506004361061009e5760003560e01c80639f14d7c2116100665780639f14d7c214610137578063a4911f6414610155578063d4c3a63214610173578063eb3313f014610191578063f5ec2eed146101ad5761009e565b806315dae03e146100a3578063285b10b3146100c157806343cfbd65146100df5780637bc3a733146100fd5780638c439f6a1461011b575b600080fd5b6100ab6101cb565b6040516100b891906107f5565b60405180910390f35b6100c96101d0565b6040516100d691906107da565b60405180910390f35b6100e76101e3565b6040516100f49190610810565b60405180910390f35b610105610275565b6040516101129190610810565b60405180910390f35b6101356004803603810190610130919061073a565b610303565b005b61013f610377565b60405161014c9190610810565b60405180910390f35b61015d610409565b60405161016a9190610810565b60405180910390f35b61017b610497565b6040516101889190610810565b60405180910390f35b6101ab60048036038101906101a6919061073a565b610525565b005b6101b5610599565b6040516101c29190610810565b60405180910390f35b600090565b600260009054906101000a900460ff1681565b6060600080546101f290610917565b80601f016020809104026020016040519081016040528092919081815260200182805461021e90610917565b801561026b5780601f106102405761010080835404028352916020019161026b565b820191906000526020600020905b81548152906001019060200180831161024e57829003601f168201915b5050505050905090565b6001805461028290610917565b80601f01602080910402602001604051908101604052809291908181526020018280546102ae90610917565b80156102fb5780601f106102d0576101008083540402835291602001916102fb565b820191906000526020600020905b8154815290600101906020018083116102de57829003601f168201915b505050505081565b600560009054906101000a900473ffffffffffffffffffffffffffffffffffffffff1673ffffffffffffffffffffffffffffffffffffffff163373ffffffffffffffffffffffffffffffffffffffff161461035d57600080fd5b8060019080519060200190610373929190610627565b5050565b60606001805461038690610917565b80601f01602080910402602001604051908101604052809291908181526020018280546103b290610917565b80156103ff5780601f106103d4576101008083540402835291602001916103ff565b820191906000526020600020905b8154815290600101906020018083116103e257829003601f168201915b5050505050905090565b6003805461041690610917565b80601f016020809104026020016040519081016040528092919081815260200182805461044290610917565b801561048f5780601f106104645761010080835404028352916020019161048f565b820191906000526020600020905b81548152906001019060200180831161047257829003601f168201915b505050505081565b600480546104a490610917565b80601f01602080910402602001604051908101604052809291908181526020018280546104d090610917565b801561051d5780601f106104f25761010080835404028352916020019161051d565b820191906000526020600020905b81548152906001019060200180831161050057829003601f168201915b505050505081565b600560009054906101000a900473ffffffffffffffffffffffffffffffffffffffff1673ffffffffffffffffffffffffffffffffffffffff163373ffffffffffffffffffffffffffffffffffffffff161461057f57600080fd5b8060009080519060200190610595929190610627565b5050565b600080546105a690610917565b80601f01602080910402602001604051908101604052809291908181526020018280546105d290610917565b801561061f5780601f106105f45761010080835404028352916020019161061f565b820191906000526020600020905b81548152906001019060200180831161060257829003601f168201915b505050505081565b82805461063390610917565b90600052602060002090601f016020900481019282610655576000855561069c565b82601f1061066e57805160ff191683800117855561069c565b8280016001018555821561069c579182015b8281111561069b578251825591602001919060010190610680565b5b5090506106a991906106ad565b5090565b5b808211156106c65760008160009055506001016106ae565b5090565b60006106dd6106d884610857565b610832565b9050828152602081018484840111156106f9576106f8610a0c565b5b6107048482856108d5565b509392505050565b600082601f83011261072157610720610a07565b5b81356107318482602086016106ca565b91505092915050565b6000602082840312156107505761074f610a16565b5b600082013567ffffffffffffffff81111561076e5761076d610a11565b5b61077a8482850161070c565b91505092915050565b61078c816108a4565b82525050565b61079b816108c3565b82525050565b60006107ac82610888565b6107b68185610893565b93506107c68185602086016108e4565b6107cf81610a1b565b840191505092915050565b60006020820190506107ef6000830184610783565b92915050565b600060208201905061080a6000830184610792565b92915050565b6000602082019050818103600083015261082a81846107a1565b905092915050565b600061083c61084d565b90506108488282610949565b919050565b6000604051905090565b600067ffffffffffffffff821115610872576108716109d8565b5b61087b82610a1b565b9050602081019050919050565b600081519050919050565b600082825260208201905092915050565b60008115159050919050565b60008190506108be82610a2c565b919050565b60006108ce826108b0565b9050919050565b82818337600083830152505050565b60005b838110156109025780820151818401526020810190506108e7565b83811115610911576000848401525b50505050565b6000600282049050600182168061092f57607f821691505b60208210811415610943576109426109a9565b5b50919050565b61095282610a1b565b810181811067ffffffffffffffff82111715610971576109706109d8565b5b80604052505050565b7f4e487b7100000000000000000000000000000000000000000000000000000000600052602160045260246000fd5b7f4e487b7100000000000000000000000000000000000000000000000000000000600052602260045260246000fd5b7f4e487b7100000000000000000000000000000000000000000000000000000000600052604160045260246000fd5b600080fd5b600080fd5b600080fd5b600080fd5b6000601f19601f8301169050919050565b60038110610a3d57610a3c61097a565b5b5056fea2646970667358221220ae4b25c0adda2541a325957ced152ea4823b71030746bb02f8613062be142b7164736f6c63430008070033608060405234801561001057600080fd5b5061010d806100206000396000f3fe6080604052348015600f57600080fd5b506004361060285760003560e01c806315dae03e14602d575b600080fd5b60336047565b604051603e9190605d565b60405180910390f35b60006001905090565b6057816087565b82525050565b6000602082019050607060008301846050565b92915050565b600081905060828260c6565b919050565b60006090826076565b9050919050565b7f4e487b7100000000000000000000000000000000000000000000000000000000600052602160045260246000fd5b6003811060d45760d36097565b5b5056fea2646970667358221220677ce0b35c93aacb994a330bf9663498fbd82f6e77a802b44c49dac65640b0af64736f6c63430008070033608060405234801561001057600080fd5b507fa9d91cc697596a622987557e6e267f14696c1f90ad12b28a22d1d35afdaf683e60405161003e90610091565b60405180910390a1610101565b6000610058601b836100c4565b9150610063826100d5565b602082019050919050565b600061007b6000836100c4565b9150610086826100fe565b600082019050919050565b600060408201905081810360008301526100aa8161004b565b905081810360208301526100bd8161006e565b9050919050565b600082825260208201905092915050565b7f636f6e7374727563746f7220686173206265656e2063616c6c65640000000000600082015250565b50565b610414806101106000396000f3fe608060405234801561001057600080fd5b50600436106100365760003560e01c80630e950a6d1461003b57806315dae03e14610057575b600080fd5b6100556004803603810190610050919061012b565b610075565b005b61005f6100b2565b60405161006c91906101eb565b60405180910390f35b7fa9d91cc697596a622987557e6e267f14696c1f90ad12b28a22d1d35afdaf683e82826040516100a6929190610206565b60405180910390a15050565b60006002905090565b60006100ce6100c984610262565b61023d565b9050828152602081018484840111156100ea576100e96103aa565b5b6100f58482856102d4565b509392505050565b600082601f830112610112576101116103a5565b5b81356101228482602086016100bb565b91505092915050565b60008060408385031215610142576101416103b4565b5b600083013567ffffffffffffffff8111156101605761015f6103af565b5b61016c858286016100fd565b925050602083013567ffffffffffffffff81111561018d5761018c6103af565b5b610199858286016100fd565b9150509250929050565b6101ac816102c2565b82525050565b60006101bd82610293565b6101c7818561029e565b93506101d78185602086016102e3565b6101e0816103b9565b840191505092915050565b600060208201905061020060008301846101a3565b92915050565b6000604082019050818103600083015261022081856101b2565b9050818103602083015261023481846101b2565b90509392505050565b6000610247610258565b90506102538282610316565b919050565b6000604051905090565b600067ffffffffffffffff82111561027d5761027c610376565b5b610286826103b9565b9050602081019050919050565b600081519050919050565b600082825260208201905092915050565b60008190506102bd826103ca565b919050565b60006102cd826102af565b9050919050565b82818337600083830152505050565b60005b838110156103015780820151818401526020810190506102e6565b83811115610310576000848401525b50505050565b61031f826103b9565b810181811067ffffffffffffffff8211171561033e5761033d610376565b5b80604052505050565b7f4e487b7100000000000000000000000000000000000000000000000000000000600052602160045260246000fd5b7f4e487b7100000000000000000000000000000000000000000000000000000000600052604160045260246000fd5b600080fd5b600080fd5b600080fd5b600080fd5b6000601f19601f8301169050919050565b600381106103db576103da610347565b5b5056fea264697066735822122041b291bfdce5e608ac082faa79abf3014ce71493a45d7b1e946381fd7c873aa664736f6c63430008070033a2646970667358221220e7b580d6f77935406df11ef6c28f73616c46ae7c50a16abbe3fe77bdd36fa93664736f6c63430008070033",
  "immutableReferences": {},
  "source": "//SPDX-License-Identifier: MIT \npragma solidity >=0.8.7; \n\nimport \"./CellConfigurator.sol\"; \nimport \"./CellConfiguratorController.sol\";\nimport \"./CellMaintenanceAgent.sol\";\nimport \"./FactoryBoxRoles.sol\";\n\nimport \"./RoleLibrary.sol\";\n\n// contract CellConfiguratorRole is FactoryBoxRoles{\n//     function getType() public pure override returns(Constants.ClassType) {\n//         return Constants.ClassType.CellConfiguratorRole;\n//     }\n// }\n\n// contract CellConfiguratorControllerRole is FactoryBoxRoles{\n//     function getType() public pure override returns(Constants.ClassType) {\n//         return Constants.ClassType.CellConfiguratorControllerRole; \n//     }\n// }\n\n// contract CellMaintenanceAgentRole is FactoryBoxRoles{\n//     function getType() public pure override returns(Constants.ClassType) {\n//         return Constants.ClassType.CellMaintenanceAgentRole;\n//     }\n// }\n\ncontract RoleSubtypingFactoryBox  {\n    event Logging(string description); \n    function assignmentOfRoles() public payable returns(string[] memory) {\n        string[] memory sampleReturn;\n        FactoryBoxRoles[] memory factoryboxroles = new FactoryBoxRoles[](3);\n        factoryboxroles[0] = new CellConfigurator(12); \n        factoryboxroles[1] = new CellConfiguratorController(); \n        factoryboxroles[2] = new CellMaintenanceAgent(); \n\n        if(factoryboxroles[0].getType() == Constants.ClassType.CellConfigurator) {\n            emit Logging(\"CellConfiguratorRole\");\n            sampleReturn[0] = \"CellConfiguratorRole\";\n        }\n\n        if(factoryboxroles[1].getType() == Constants.ClassType.CellConfiguratorController) {\n            emit Logging(\"CellConfiguratorControllerRole\"); \n            sampleReturn[1] = \"CellConfiguratorControllerRole\"; \n        }\n\n        if(factoryboxroles[2].getType() == Constants.ClassType.CellMaintenanceAgent) {\n            emit Logging(\"CellMaintenanceAgentRole\");\n            sampleReturn[2] = \"CellMaintenanceAgentRole\";\n        }\n\n        return sampleReturn; \n    }\n}",
  "sourcePath": "/media/zoint/D0F4-36FA/AllFiles/Projeler/zointblackbriar/Smart_Contract_Examples/Factory-in-a-Box/contracts/RoleSubtypingFactoryBox.sol",
  "compiler": {
    "name": "solc",
    "version": "0.8.7+commit.e28d00a7.Emscripten.clang"
  },
  "schemaVersion": "3.4.7",
  "updatedAt": "2022-07-26T16:51:04.889Z",
  "devdoc": {
    "kind": "dev",
    "methods": {},
    "version": 1
  },
  "userdoc": {
    "kind": "user",
    "methods": {},
    "version": 1
  }
}