{
    "contractName": "WebofThingsDevice",
    "abi": [
        {
            "inputs": [
                {
                    "internalType": "address",
                    "name": "_owner",
                    "type": "address"
                },
                {
                    "internalType": "string",
                    "name": "_wotName",
                    "type": "string"
                },
                {
                    "internalType": "string",
                    "name": "_wotDescription",
                    "type": "string"
                },
                {
                    "internalType": "string",
                    "name": "_wotSpecification",
                    "type": "string"
                }
            ],
            "stateMutability": "nonpayable",
            "type": "constructor"
        },
        {
            "anonymous": false,
            "inputs": [
                {
                    "indexed": true,
                    "internalType": "bytes32",
                    "name": "id",
                    "type": "bytes32"
                }
            ],
            "name": "ChainlinkCancelled",
            "type": "event"
        },
        {
            "anonymous": false,
            "inputs": [
                {
                    "indexed": true,
                    "internalType": "bytes32",
                    "name": "id",
                    "type": "bytes32"
                }
            ],
            "name": "ChainlinkFulfilled",
            "type": "event"
        },
        {
            "anonymous": false,
            "inputs": [
                {
                    "indexed": true,
                    "internalType": "bytes32",
                    "name": "id",
                    "type": "bytes32"
                }
            ],
            "name": "ChainlinkRequested",
            "type": "event"
        },
        {
            "anonymous": false,
            "inputs": [
                {
                    "indexed": false,
                    "internalType": "string",
                    "name": "message",
                    "type": "string"
                },
                {
                    "indexed": false,
                    "internalType": "address",
                    "name": "findoutAddress",
                    "type": "address"
                }
            ],
            "name": "Logging",
            "type": "event"
        },
        {
            "anonymous": false,
            "inputs": [
                {
                    "indexed": true,
                    "internalType": "bytes32",
                    "name": "requestId",
                    "type": "bytes32"
                },
                {
                    "indexed": false,
                    "internalType": "uint256",
                    "name": "volume",
                    "type": "uint256"
                }
            ],
            "name": "RequestVolume",
            "type": "event"
        },
        {
            "inputs": [
                {
                    "internalType": "bytes32",
                    "name": "_requestId",
                    "type": "bytes32"
                },
                {
                    "internalType": "uint256",
                    "name": "_volume",
                    "type": "uint256"
                }
            ],
            "name": "fulfill",
            "outputs": [],
            "stateMutability": "nonpayable",
            "type": "function"
        },
        {
            "inputs": [],
            "name": "getSampleMessage",
            "outputs": [
                {
                    "internalType": "string",
                    "name": "",
                    "type": "string"
                }
            ],
            "stateMutability": "pure",
            "type": "function"
        },
        {
            "inputs": [],
            "name": "getWotDescriptionName",
            "outputs": [
                {
                    "internalType": "string",
                    "name": "",
                    "type": "string"
                }
            ],
            "stateMutability": "view",
            "type": "function"
        },
        {
            "inputs": [],
            "name": "getWotName",
            "outputs": [
                {
                    "internalType": "string",
                    "name": "",
                    "type": "string"
                }
            ],
            "stateMutability": "view",
            "type": "function"
        },
        {
            "inputs": [],
            "name": "getWotSpecificationName",
            "outputs": [
                {
                    "internalType": "string",
                    "name": "",
                    "type": "string"
                }
            ],
            "stateMutability": "view",
            "type": "function"
        },
        {
            "inputs": [],
            "name": "owner",
            "outputs": [
                {
                    "internalType": "address",
                    "name": "",
                    "type": "address"
                }
            ],
            "stateMutability": "view",
            "type": "function"
        },
        {
            "inputs": [
                {
                    "internalType": "address",
                    "name": "_newOwner",
                    "type": "address"
                }
            ],
            "name": "ownershipTransfer",
            "outputs": [],
            "stateMutability": "nonpayable",
            "type": "function"
        },
        {
            "inputs": [],
            "name": "requestExternalData",
            "outputs": [
                {
                    "internalType": "bytes32",
                    "name": "requestId",
                    "type": "bytes32"
                }
            ],
            "stateMutability": "nonpayable",
            "type": "function"
        },
        {
            "inputs": [],
            "name": "volume",
            "outputs": [
                {
                    "internalType": "uint256",
                    "name": "",
                    "type": "uint256"
                }
            ],
            "stateMutability": "view",
            "type": "function"
        },
        {
            "inputs": [],
            "name": "woTDescription",
            "outputs": [
                {
                    "internalType": "string",
                    "name": "",
                    "type": "string"
                }
            ],
            "stateMutability": "view",
            "type": "function"
        },
        {
            "inputs": [],
            "name": "woTName",
            "outputs": [
                {
                    "internalType": "string",
                    "name": "",
                    "type": "string"
                }
            ],
            "stateMutability": "view",
            "type": "function"
        },
        {
            "inputs": [
                {
                    "internalType": "uint256",
                    "name": "",
                    "type": "uint256"
                }
            ],
            "name": "woTSpecification",
            "outputs": [
                {
                    "internalType": "string",
                    "name": "",
                    "type": "string"
                }
            ],
            "stateMutability": "view",
            "type": "function"
        },
        {
            "inputs": [],
            "name": "wotDeviceHandOver",
            "outputs": [],
            "stateMutability": "nonpayable",
            "type": "function"
        },
        {
            "inputs": [
                {
                    "internalType": "string",
                    "name": "newWotName",
                    "type": "string"
                }
            ],
            "name": "wotNameUpdate",
            "outputs": [],
            "stateMutability": "nonpayable",
            "type": "function"
        },
        {
            "inputs": [
                {
                    "internalType": "string",
                    "name": "newSpecificationWot",
                    "type": "string"
                }
            ],
            "name": "wotSpecificationUpdate",
            "outputs": [],
            "stateMutability": "nonpayable",
            "type": "function"
        }
    ],
    "bytecode": "608060405260016004553480156200001657600080fd5b506040516200182c3803806200182c833981016040819052620000399162000288565b600a80546001600160a01b0319166001600160a01b038616179055600b620000628482620003c9565b50600c620000718382620003c9565b50600d80546001810182556000919091527fd7b6990105719101dabeb77144f2a3385c8033acd3af97e9423a695e81ad1eb501620000b08282620003c9565b50600a54604080518181526017818301527f44657669636520686173206265656e206372656174656400000000000000000060608201526001600160a01b039092166020830152517fa9a580b29a3f448e6fa85568b7f3253a6682e4c37de018d711a33724072a64f79181900360800190a1600280546001600160a01b03191673779877a7b0d9e8603169ddbd7836e478b4624789179055600380546001600160a01b031916736090149792daaee9d1d568c9f9a6f6b46aa29efd1790557f6435323730643163333131393431643062303862656164323166656137373437600755600a620001a9670de0b6b3a7640000600162000495565b620001b59190620004c1565b60085550620004e492505050565b634e487b7160e01b600052604160045260246000fd5b600082601f830112620001eb57600080fd5b81516001600160401b0380821115620002085762000208620001c3565b604051601f8301601f19908116603f01168101908282118183101715620002335762000233620001c3565b816040528381526020925086838588010111156200025057600080fd5b600091505b8382101562000274578582018301518183018401529082019062000255565b600093810190920192909252949350505050565b600080600080608085870312156200029f57600080fd5b84516001600160a01b0381168114620002b757600080fd5b60208601519094506001600160401b0380821115620002d557600080fd5b620002e388838901620001d9565b94506040870151915080821115620002fa57600080fd5b6200030888838901620001d9565b935060608701519150808211156200031f57600080fd5b506200032e87828801620001d9565b91505092959194509250565b600181811c908216806200034f57607f821691505b6020821081036200037057634e487b7160e01b600052602260045260246000fd5b50919050565b601f821115620003c457600081815260208120601f850160051c810160208610156200039f5750805b601f850160051c820191505b81811015620003c057828155600101620003ab565b5050505b505050565b81516001600160401b03811115620003e557620003e5620001c3565b620003fd81620003f684546200033a565b8462000376565b602080601f8311600181146200043557600084156200041c5750858301515b600019600386901b1c1916600185901b178555620003c0565b600085815260208120601f198616915b82811015620004665788860151825594840194600190910190840162000445565b5085821015620004855787850151600019600388901b60f8161c191681555b5050505050600190811b01905550565b8082028115828204841417620004bb57634e487b7160e01b600052601160045260246000fd5b92915050565b600082620004df57634e487b7160e01b600052601260045260246000fd5b500490565b61133880620004f46000396000f3fe608060405234801561001057600080fd5b50600436106100f55760003560e01c80636d181c2e11610097578063c618a1e411610066578063c618a1e4146101da578063d3a417a2146101e3578063e6d3ff07146101f6578063f54dc8721461020957600080fd5b80636d181c2e14610197578063774ab5161461019f5780638c41e5c6146101a75780638da5cb5b146101af57600080fd5b80633aefce12116100d35780633aefce12146101355780634357855e1461015b5780636722a79b1461016e57806368b67ccf1461018157600080fd5b806301a26903146100fa5780630a4ad0141461011857806325d4b3af1461012d575b600080fd5b610102610211565b60405161010f9190610e0d565b60405180910390f35b61012b610126366004610e36565b6102a3565b005b6101026102ca565b60408051808201909152600a815269576f742044657669636560b01b6020820152610102565b61012b610169366004610ee7565b610358565b61012b61017c366004610e36565b61045a565b6101896104ad565b60405190815260200161010f565b610102610527565b610102610536565b61012b610543565b600a546101c2906001600160a01b031681565b6040516001600160a01b03909116815260200161010f565b61018960095481565b61012b6101f1366004610f09565b6105e2565b610102610204366004610f32565b61061b565b610102610646565b6060600c805461022090610f4b565b80601f016020809104026020016040519081016040528092919081815260200182805461024c90610f4b565b80156102995780601f1061026e57610100808354040283529160200191610299565b820191906000526020600020905b81548152906001019060200180831161027c57829003601f168201915b5050505050905090565b600a546001600160a01b031633146102ba57600080fd5b600b6102c68282610fcd565b5050565b600b80546102d790610f4b565b80601f016020809104026020016040519081016040528092919081815260200182805461030390610f4b565b80156103505780601f1061032557610100808354040283529160200191610350565b820191906000526020600020905b81548152906001019060200180831161033357829003601f168201915b505050505081565b60008281526005602052604090205482906001600160a01b031633146103d65760405162461bcd60e51b815260206004820152602860248201527f536f75726365206d75737420626520746865206f7261636c65206f6620746865604482015267081c995c5d595cdd60c21b60648201526084015b60405180910390fd5b60008181526005602052604080822080546001600160a01b03191690555182917f7cc135e0cebb02c3480ae5d74d377283180a2601f8f644edf7987b009316c63a91a2827f673b38182859a514d734bdfcb49d3a05c4a641dec9311d9894c9717bcb79af768360405161044b91815260200190565b60405180910390a25060095550565b600a546001600160a01b0316331461047157600080fd5b600d80546001810182556000919091527fd7b6990105719101dabeb77144f2a3385c8033acd3af97e9423a695e81ad1eb5016102c68282610fcd565b6000806104c460075430634357855e60e01b610709565b90506105066040518060400160405280600381526020016219d95d60ea1b8152506040518060800160405280604981526020016112ba6049913983919061072e565b600654600854610521916001600160a01b0316908390610751565b91505090565b6060600b805461022090610f4b565b600c80546102d790610f4b565b600a546001600160a01b0316331461055a57600080fd5b600a80546001600160a01b0319169055604080518181526027818301527f44657669636520686173206265656e2068616e64656420746f20616e6f746865606082015266391037bbb732b960c91b60808201526000602082015290517fa9a580b29a3f448e6fa85568b7f3253a6682e4c37de018d711a33724072a64f79181900360a00190a1565b600a546001600160a01b031633146105f957600080fd5b600a80546001600160a01b0319166001600160a01b0392909216919091179055565b600d818154811061062b57600080fd5b9060005260206000200160009150905080546102d790610f4b565b600d5460609060009061065b906001906110a3565b9050600d8181548110610670576106706110b6565b90600052602060002001805461068590610f4b565b80601f01602080910402602001604051908101604052809291908181526020018280546106b190610f4b565b80156106fe5780601f106106d3576101008083540402835291602001916106fe565b820191906000526020600020905b8154815290600101906020018083116106e157829003601f168201915b505050505091505090565b610711610d8c565b610719610d8c565b610725818686866107e4565b95945050505050565b608083015161073d908361082a565b608083015161074c908261082a565b505050565b6004546000906107628160016110cc565b600455835160408086015160808701515191516000936320214ca360e11b9361079a9386938493923092918a916001916024016110df565b60408051601f198184030181529190526020810180516001600160e01b03166001600160e01b03199093169290921790915290506107da86838684610841565b9695505050505050565b6107ec610d8c565b6107fc856080015161010061099f565b50508284526001600160a01b03821660208501526001600160e01b031981166040850152835b949350505050565b6108378260038351610a0a565b61074c8282610b1f565b6040516bffffffffffffffffffffffff193060601b1660208201526034810184905260009060540160408051808303601f1901815282825280516020918201206000818152600590925291812080546001600160a01b0319166001600160a01b038a1617905590925082917fb5e6e01e79f91267dc17b4e6314d5d4d03593d2ceee0fbb452b750bd70ea5af99190a2600254604051630200057560e51b81526001600160a01b0390911690634000aea09061090490889087908790600401611147565b6020604051808303816000875af1158015610923573d6000803e3d6000fd5b505050506040513d601f19601f82011682018060405250810190610947919061116e565b6108225760405162461bcd60e51b815260206004820152602360248201527f756e61626c6520746f207472616e73666572416e6443616c6c20746f206f7261604482015262636c6560e81b60648201526084016103cd565b6040805180820190915260608152600060208201526109bf602083611190565b156109e7576109cf602083611190565b6109da9060206110a3565b6109e490836110cc565b91505b506020808301829052604080518085526000815283019091019052815b92915050565b60178167ffffffffffffffff1611610a3557610a2f8360e0600585901b168317610b4d565b50505050565b60ff8167ffffffffffffffff1611610a7357610a5c836018611fe0600586901b1617610b4d565b50610a2f8367ffffffffffffffff83166001610b72565b61ffff8167ffffffffffffffff1611610ab257610a9b836019611fe0600586901b1617610b4d565b50610a2f8367ffffffffffffffff83166002610b72565b63ffffffff8167ffffffffffffffff1611610af357610adc83601a611fe0600586901b1617610b4d565b50610a2f8367ffffffffffffffff83166004610b72565b610b0883601b611fe0600586901b1617610b4d565b50610a2f8367ffffffffffffffff83166008610b72565b604080518082019091526060815260006020820152610b4683846000015151848551610b98565b9392505050565b604080518082019091526060815260006020820152610b468384600001515184610c82565b604080518082019091526060815260006020820152610822848560000151518585610cdd565b6040805180820190915260608152600060208201528251821115610bbb57600080fd5b6020850151610bca83866110cc565b1115610bfd57610bfd85610bed87602001518786610be891906110cc565b610d5e565b610bf89060026111b2565b610d75565b600080865180518760208301019350808887011115610c1c5787860182525b505050602084015b60208410610c5c5780518252610c3b6020836110cc565b9150610c486020826110cc565b9050610c556020856110a3565b9350610c24565b51815160001960208690036101000a019081169019919091161790525083949350505050565b60408051808201909152606081526000602082015283602001518310610cb757610cb78485602001516002610bf891906111b2565b8351805160208583010184815350808503610cd3576001810182525b5093949350505050565b6040805180820190915260608152600060208201526020850151610d0185846110cc565b1115610d1557610d1585610bed86856110cc565b60006001610d25846101006112ad565b610d2f91906110a3565b9050855183868201018583198251161781525080518487011115610d535783860181525b509495945050505050565b600081831115610d6f575081610a04565b50919050565b8151610d81838361099f565b50610a2f8382610b1f565b6040805160a0810182526000808252602080830182905282840182905260608084018390528451808601909552845283015290608082015290565b6000815180845260005b81811015610ded57602081850181015186830182015201610dd1565b506000602082860101526020601f19601f83011685010191505092915050565b602081526000610b466020830184610dc7565b634e487b7160e01b600052604160045260246000fd5b600060208284031215610e4857600080fd5b813567ffffffffffffffff80821115610e6057600080fd5b818401915084601f830112610e7457600080fd5b813581811115610e8657610e86610e20565b604051601f8201601f19908116603f01168101908382118183101715610eae57610eae610e20565b81604052828152876020848701011115610ec757600080fd5b826020860160208301376000928101602001929092525095945050505050565b60008060408385031215610efa57600080fd5b50508035926020909101359150565b600060208284031215610f1b57600080fd5b81356001600160a01b0381168114610b4657600080fd5b600060208284031215610f4457600080fd5b5035919050565b600181811c90821680610f5f57607f821691505b602082108103610d6f57634e487b7160e01b600052602260045260246000fd5b601f82111561074c57600081815260208120601f850160051c81016020861015610fa65750805b601f850160051c820191505b81811015610fc557828155600101610fb2565b505050505050565b815167ffffffffffffffff811115610fe757610fe7610e20565b610ffb81610ff58454610f4b565b84610f7f565b602080601f83116001811461103057600084156110185750858301515b600019600386901b1c1916600185901b178555610fc5565b600085815260208120601f198616915b8281101561105f57888601518255948401946001909101908401611040565b508582101561107d5787850151600019600388901b60f8161c191681555b5050505050600190811b01905550565b634e487b7160e01b600052601160045260246000fd5b81810381811115610a0457610a0461108d565b634e487b7160e01b600052603260045260246000fd5b80820180821115610a0457610a0461108d565b6001600160a01b0389811682526020820189905260408201889052861660608201526001600160e01b03198516608082015260a0810184905260c0810183905261010060e0820181905260009061113883820185610dc7565b9b9a5050505050505050505050565b60018060a01b03841681528260208201526060604082015260006107256060830184610dc7565b60006020828403121561118057600080fd5b81518015158114610b4657600080fd5b6000826111ad57634e487b7160e01b600052601260045260246000fd5b500690565b8082028115828204841417610a0457610a0461108d565b600181815b808511156112045781600019048211156111ea576111ea61108d565b808516156111f757918102915b93841c93908002906111ce565b509250929050565b60008261121b57506001610a04565b8161122857506000610a04565b816001811461123e576002811461124857611264565b6001915050610a04565b60ff8411156112595761125961108d565b50506001821b610a04565b5060208310610133831016604e8410600b8410161715611287575081810a610a04565b61129183836111c9565b80600019048211156112a5576112a561108d565b029392505050565b6000610b46838361120c56fe68747470733a2f2f6d696e2d6170692e63727970746f636f6d706172652e636f6d2f646174612f70726963656d756c746966756c6c3f6673796d733d455448267473796d733d555344a2646970667358221220753636b8060ce37759f9330b025de19fe771cd98dea0d0b63eb9b6caeb0eea9a64736f6c63430008130033",
    "sourcePath": "/Users/zoint/Desktop/Projects/zointblackbriar/PaperCode/Tokenization-Of-Ownership-Management-for-Web-of-Things/contracts/WebofThingsDevice.sol",
    "compiler": {
        "name": "solc",
        "version": "0.8.19+commit.7dd6d404"
    },
    "functionHashes": {
        "fulfill(bytes32,uint256)": "4357855e",
        "getSampleMessage()": "3aefce12",
        "getWotDescriptionName()": "01a26903",
        "getWotName()": "6d181c2e",
        "getWotSpecificationName()": "f54dc872",
        "owner()": "8da5cb5b",
        "ownershipTransfer(address)": "d3a417a2",
        "requestExternalData()": "68b67ccf",
        "volume()": "c618a1e4",
        "woTDescription()": "774ab516",
        "woTName()": "25d4b3af",
        "woTSpecification(uint256)": "e6d3ff07",
        "wotDeviceHandOver()": "8c41e5c6",
        "wotNameUpdate(string)": "0a4ad014",
        "wotSpecificationUpdate(string)": "6722a79b"
    },
    "gasEstimates": {
        "creation": {
            "codeDepositCost": "984000",
            "executionCost": "infinite",
            "totalCost": "infinite"
        },
        "external": {
            "fulfill(bytes32,uint256)": "51497",
            "getSampleMessage()": "infinite",
            "getWotDescriptionName()": "infinite",
            "getWotName()": "infinite",
            "getWotSpecificationName()": "infinite",
            "owner()": "2426",
            "ownershipTransfer(address)": "26720",
            "requestExternalData()": "infinite",
            "volume()": "2317",
            "woTDescription()": "infinite",
            "woTName()": "infinite",
            "woTSpecification(uint256)": "infinite",
            "wotDeviceHandOver()": "28743",
            "wotNameUpdate(string)": "infinite",
            "wotSpecificationUpdate(string)": "infinite"
        }
    }
}