{"contracts/MockOracle.sol":{"MockOracle":{"abi":[{"inputs":[{"internalType":"address","name":"_link","type":"address"}],"stateMutability":"nonpayable","type":"constructor"},{"anonymous":false,"inputs":[{"indexed":true,"internalType":"bytes32","name":"requestId","type":"bytes32"}],"name":"CancelOracleRequest","type":"event"},{"anonymous":false,"inputs":[{"indexed":true,"internalType":"bytes32","name":"specId","type":"bytes32"},{"indexed":false,"internalType":"address","name":"requester","type":"address"},{"indexed":false,"internalType":"bytes32","name":"requestId","type":"bytes32"},{"indexed":false,"internalType":"uint256","name":"payment","type":"uint256"},{"indexed":false,"internalType":"address","name":"callbackAddr","type":"address"},{"indexed":false,"internalType":"bytes4","name":"callbackFunctionId","type":"bytes4"},{"indexed":false,"internalType":"uint256","name":"cancelExpiration","type":"uint256"},{"indexed":false,"internalType":"uint256","name":"dataVersion","type":"uint256"},{"indexed":false,"internalType":"bytes","name":"data","type":"bytes"}],"name":"OracleRequest","type":"event"},{"inputs":[],"name":"EXPIRY_TIME","outputs":[{"internalType":"uint256","name":"","type":"uint256"}],"stateMutability":"view","type":"function"},{"inputs":[{"internalType":"bytes32","name":"_requestId","type":"bytes32"},{"internalType":"uint256","name":"_payment","type":"uint256"},{"internalType":"bytes4","name":"","type":"bytes4"},{"internalType":"uint256","name":"_expiration","type":"uint256"}],"name":"cancelOracleRequest","outputs":[],"stateMutability":"nonpayable","type":"function"},{"inputs":[{"internalType":"bytes32","name":"_requestId","type":"bytes32"},{"internalType":"bytes32","name":"_data","type":"bytes32"}],"name":"fulfillOracleRequest","outputs":[{"internalType":"bool","name":"","type":"bool"}],"stateMutability":"nonpayable","type":"function"},{"inputs":[],"name":"getChainlinkToken","outputs":[{"internalType":"address","name":"","type":"address"}],"stateMutability":"view","type":"function"},{"inputs":[{"internalType":"address","name":"_sender","type":"address"},{"internalType":"uint256","name":"_amount","type":"uint256"},{"internalType":"bytes","name":"_data","type":"bytes"}],"name":"onTokenTransfer","outputs":[],"stateMutability":"nonpayable","type":"function"},{"inputs":[{"internalType":"address","name":"_sender","type":"address"},{"internalType":"uint256","name":"_payment","type":"uint256"},{"internalType":"bytes32","name":"_specId","type":"bytes32"},{"internalType":"address","name":"_callbackAddress","type":"address"},{"internalType":"bytes4","name":"_callbackFunctionId","type":"bytes4"},{"internalType":"uint256","name":"_nonce","type":"uint256"},{"internalType":"uint256","name":"_dataVersion","type":"uint256"},{"internalType":"bytes","name":"_data","type":"bytes"}],"name":"oracleRequest","outputs":[],"stateMutability":"nonpayable","type":"function"}],"evm":{"bytecode":{"linkReferences":{},"object":"608060405234801561001057600080fd5b50604051610d13380380610d138339818101604052602081101561003357600080fd5b5051600080546001600160a01b039092166001600160a01b0319909216919091179055610cae806100656000396000f3fe608060405234801561001057600080fd5b50600436106100725760003560e01c80634b602282116100505780634b602282146101855780636ee4d5531461019f578063a4c0ed36146101d857610072565b8063165d35e1146100775780631f8f238c1461009b57806340429946146100d2575b600080fd5b61007f610293565b604080516001600160a01b039092168252519081900360200190f35b6100be600480360360408110156100b157600080fd5b50803590602001356102a2565b604080519115158252519081900360200190f35b61018360048036036101008110156100e957600080fd5b6001600160a01b038235811692602081013592604082013592606083013516916001600160e01b03196080820135169160a08201359160c081013591810190610100810160e082013564010000000081111561014457600080fd5b82018360208201111561015657600080fd5b8035906020019184600183028401116401000000008311171561017857600080fd5b5090925090506104e2565b005b61018d6107e4565b60408051918252519081900360200190f35b610183600480360360808110156101b557600080fd5b508035906020810135906001600160e01b031960408201351690606001356107ea565b610183600480360360608110156101ee57600080fd5b6001600160a01b038235169160208101359181019060608101604082013564010000000081111561021e57600080fd5b82018360208201111561023057600080fd5b8035906020019184600183028401116401000000008311171561025257600080fd5b91908080601f0160208091040260200160405190810160405280939291908181526020018383808284376000920191909152509295506109a9945050505050565b6000546001600160a01b031690565b60008281526001602052604081205483906001600160a01b031661030d576040805162461bcd60e51b815260206004820152601b60248201527f4d757374206861766520612076616c6964207265717565737449640000000000604482015290519081900360640190fd5b610315610c61565b506000848152600160208181526040808420815180830190925280546001600160a01b03811683526001600160e01b031974010000000000000000000000000000000000000000820460e01b168385015294899052929091527fffffffffffffffff000000000000000000000000000000000000000000000000909216905562061a805a10156103ec576040805162461bcd60e51b815260206004820181905260248201527f4d7573742070726f7669646520636f6e73756d657220656e6f75676820676173604482015290519081900360640190fd5b805160208083015160408051602481018a905260448082018a9052825180830390910181526064909101825292830180516001600160e01b03166001600160e01b03199093169290921782525182516000946001600160a01b0316939282918083835b6020831061046e5780518252601f19909201916020918201910161044f565b6001836020036101000a0380198251168184511680821785525050505050509050019150506000604051808303816000865af19150503d80600081146104d0576040519150601f19603f3d011682016040523d82523d6000602084013e6104d5565b606091505b5090979650505050505050565b6104ea610293565b6001600160a01b0316336001600160a01b03161461054f576040805162461bcd60e51b815260206004820152601360248201527f4d75737420757365204c494e4b20746f6b656e00000000000000000000000000604482015290519081900360640190fd5b60005486906001600160a01b03808316911614156105b4576040805162461bcd60e51b815260206004820152601760248201527f43616e6e6f742063616c6c6261636b20746f204c494e4b000000000000000000604482015290519081900360640190fd5b604080516bffffffffffffffffffffffff1960608d901b166020808301919091526034808301899052835180840390910181526054909201835281519181019190912060008181526001909252919020546001600160a01b031615610660576040805162461bcd60e51b815260206004820152601460248201527f4d75737420757365206120756e69717565204944000000000000000000000000604482015290519081900360640190fd5b60006106744261012c63ffffffff610c0016565b905060405180604001604052808a6001600160a01b03168152602001896001600160e01b0319168152506001600084815260200190815260200160002060008201518160000160006101000a8154816001600160a01b0302191690836001600160a01b0316021790555060208201518160000160146101000a81548163ffffffff021916908360e01c0217905550905050897fd8d7ecc4800d25fa53ce0372f13a416d98907a7ef3d8d3bdd79cf4fe75529c658d848e8d8d878d8d8d604051808a6001600160a01b03166001600160a01b03168152602001898152602001888152602001876001600160a01b03166001600160a01b03168152602001866001600160e01b0319166001600160e01b0319168152602001858152602001848152602001806020018281038252848482818152602001925080828437600083820152604051601f909101601f19169092018290039c50909a5050505050505050505050a2505050505050505050505050565b61012c81565b6000848152600160205260409020546001600160a01b0316610853576040805162461bcd60e51b815260206004820152601460248201527f4d75737420757365206120756e69717565204944000000000000000000000000604482015290519081900360640190fd5b428111156108a8576040805162461bcd60e51b815260206004820152601660248201527f52657175657374206973206e6f74206578706972656400000000000000000000604482015290519081900360640190fd5b60008481526001602052604080822080547fffffffffffffffff0000000000000000000000000000000000000000000000001690555185917fa7842b9ec549398102c0d91b1b9919b2f20558aefdadf57528a95c6cd3292e9391a260008054604080517fa9059cbb0000000000000000000000000000000000000000000000000000000081523360048201526024810187905290516001600160a01b039092169263a9059cbb926044808401936020939083900390910190829087803b15801561097157600080fd5b505af1158015610985573d6000803e3d6000fd5b505050506040513d602081101561099b57600080fd5b50516109a357fe5b50505050565b6109b1610293565b6001600160a01b0316336001600160a01b031614610a16576040805162461bcd60e51b815260206004820152601360248201527f4d75737420757365204c494e4b20746f6b656e00000000000000000000000000604482015290519081900360640190fd5b8051819060441115610a6f576040805162461bcd60e51b815260206004820152601660248201527f496e76616c69642072657175657374206c656e67746800000000000000000000604482015290519081900360640190fd5b602082015182906001600160e01b031981167f404299460000000000000000000000000000000000000000000000000000000014610af4576040805162461bcd60e51b815260206004820152601e60248201527f4d757374207573652077686974656c69737465642066756e6374696f6e730000604482015290519081900360640190fd5b8560248501528460448501526000306001600160a01b0316856040518082805190602001908083835b60208310610b3c5780518252601f199092019160209182019101610b1d565b6001836020036101000a038019825116818451168082178552505050505050905001915050600060405180830381855af49150503d8060008114610b9c576040519150601f19603f3d011682016040523d82523d6000602084013e610ba1565b606091505b5050905080610bf7576040805162461bcd60e51b815260206004820152601860248201527f556e61626c6520746f2063726561746520726571756573740000000000000000604482015290519081900360640190fd5b50505050505050565b600082820183811015610c5a576040805162461bcd60e51b815260206004820152601b60248201527f536166654d6174683a206164646974696f6e206f766572666c6f770000000000604482015290519081900360640190fd5b9392505050565b60408051808201909152600080825260208201529056fea264697066735822122026141457ad31deb7983699d3af3d1a17d4bf007350eb007a86b9f39223a5f25064736f6c63430006060033","opcodes":"PUSH1 0x80 PUSH1 0x40 MSTORE CALLVALUE DUP1 ISZERO PUSH2 0x10 JUMPI PUSH1 0x0 DUP1 REVERT JUMPDEST POP PUSH1 0x40 MLOAD PUSH2 0xD13 CODESIZE SUB DUP1 PUSH2 0xD13 DUP4 CODECOPY DUP2 DUP2 ADD PUSH1 0x40 MSTORE PUSH1 0x20 DUP2 LT ISZERO PUSH2 0x33 JUMPI PUSH1 0x0 DUP1 REVERT JUMPDEST POP MLOAD PUSH1 0x0 DUP1 SLOAD PUSH1 0x1 PUSH1 0x1 PUSH1 0xA0 SHL SUB SWAP1 SWAP3 AND PUSH1 0x1 PUSH1 0x1 PUSH1 0xA0 SHL SUB NOT SWAP1 SWAP3 AND SWAP2 SWAP1 SWAP2 OR SWAP1 SSTORE PUSH2 0xCAE DUP1 PUSH2 0x65 PUSH1 0x0 CODECOPY PUSH1 0x0 RETURN INVALID PUSH1 0x80 PUSH1 0x40 MSTORE CALLVALUE DUP1 ISZERO PUSH2 0x10 JUMPI PUSH1 0x0 DUP1 REVERT JUMPDEST POP PUSH1 0x4 CALLDATASIZE LT PUSH2 0x72 JUMPI PUSH1 0x0 CALLDATALOAD PUSH1 0xE0 SHR DUP1 PUSH4 0x4B602282 GT PUSH2 0x50 JUMPI DUP1 PUSH4 0x4B602282 EQ PUSH2 0x185 JUMPI DUP1 PUSH4 0x6EE4D553 EQ PUSH2 0x19F JUMPI DUP1 PUSH4 0xA4C0ED36 EQ PUSH2 0x1D8 JUMPI PUSH2 0x72 JUMP JUMPDEST DUP1 PUSH4 0x165D35E1 EQ PUSH2 0x77 JUMPI DUP1 PUSH4 0x1F8F238C EQ PUSH2 0x9B JUMPI DUP1 PUSH4 0x40429946 EQ PUSH2 0xD2 JUMPI JUMPDEST PUSH1 0x0 DUP1 REVERT JUMPDEST PUSH2 0x7F PUSH2 0x293 JUMP JUMPDEST PUSH1 0x40 DUP1 MLOAD PUSH1 0x1 PUSH1 0x1 PUSH1 0xA0 SHL SUB SWAP1 SWAP3 AND DUP3 MSTORE MLOAD SWAP1 DUP2 SWAP1 SUB PUSH1 0x20 ADD SWAP1 RETURN JUMPDEST PUSH2 0xBE PUSH1 0x4 DUP1 CALLDATASIZE SUB PUSH1 0x40 DUP2 LT ISZERO PUSH2 0xB1 JUMPI PUSH1 0x0 DUP1 REVERT JUMPDEST POP DUP1 CALLDATALOAD SWAP1 PUSH1 0x20 ADD CALLDATALOAD PUSH2 0x2A2 JUMP JUMPDEST PUSH1 0x40 DUP1 MLOAD SWAP2 ISZERO ISZERO DUP3 MSTORE MLOAD SWAP1 DUP2 SWAP1 SUB PUSH1 0x20 ADD SWAP1 RETURN JUMPDEST PUSH2 0x183 PUSH1 0x4 DUP1 CALLDATASIZE SUB PUSH2 0x100 DUP2 LT ISZERO PUSH2 0xE9 JUMPI PUSH1 0x0 DUP1 REVERT JUMPDEST PUSH1 0x1 PUSH1 0x1 PUSH1 0xA0 SHL SUB DUP3 CALLDATALOAD DUP2 AND SWAP3 PUSH1 0x20 DUP2 ADD CALLDATALOAD SWAP3 PUSH1 0x40 DUP3 ADD CALLDATALOAD SWAP3 PUSH1 0x60 DUP4 ADD CALLDATALOAD AND SWAP2 PUSH1 0x1 PUSH1 0x1 PUSH1 0xE0 SHL SUB NOT PUSH1 0x80 DUP3 ADD CALLDATALOAD AND SWAP2 PUSH1 0xA0 DUP3 ADD CALLDATALOAD SWAP2 PUSH1 0xC0 DUP2 ADD CALLDATALOAD SWAP2 DUP2 ADD SWAP1 PUSH2 0x100 DUP2 ADD PUSH1 0xE0 DUP3 ADD CALLDATALOAD PUSH5 0x100000000 DUP2 GT ISZERO PUSH2 0x144 JUMPI PUSH1 0x0 DUP1 REVERT JUMPDEST DUP3 ADD DUP4 PUSH1 0x20 DUP3 ADD GT ISZERO PUSH2 0x156 JUMPI PUSH1 0x0 DUP1 REVERT JUMPDEST DUP1 CALLDATALOAD SWAP1 PUSH1 0x20 ADD SWAP2 DUP5 PUSH1 0x1 DUP4 MUL DUP5 ADD GT PUSH5 0x100000000 DUP4 GT OR ISZERO PUSH2 0x178 JUMPI PUSH1 0x0 DUP1 REVERT JUMPDEST POP SWAP1 SWAP3 POP SWAP1 POP PUSH2 0x4E2 JUMP JUMPDEST STOP JUMPDEST PUSH2 0x18D PUSH2 0x7E4 JUMP JUMPDEST PUSH1 0x40 DUP1 MLOAD SWAP2 DUP3 MSTORE MLOAD SWAP1 DUP2 SWAP1 SUB PUSH1 0x20 ADD SWAP1 RETURN JUMPDEST PUSH2 0x183 PUSH1 0x4 DUP1 CALLDATASIZE SUB PUSH1 0x80 DUP2 LT ISZERO PUSH2 0x1B5 JUMPI PUSH1 0x0 DUP1 REVERT JUMPDEST POP DUP1 CALLDATALOAD SWAP1 PUSH1 0x20 DUP2 ADD CALLDATALOAD SWAP1 PUSH1 0x1 PUSH1 0x1 PUSH1 0xE0 SHL SUB NOT PUSH1 0x40 DUP3 ADD CALLDATALOAD AND SWAP1 PUSH1 0x60 ADD CALLDATALOAD PUSH2 0x7EA JUMP JUMPDEST PUSH2 0x183 PUSH1 0x4 DUP1 CALLDATASIZE SUB PUSH1 0x60 DUP2 LT ISZERO PUSH2 0x1EE JUMPI PUSH1 0x0 DUP1 REVERT JUMPDEST PUSH1 0x1 PUSH1 0x1 PUSH1 0xA0 SHL SUB DUP3 CALLDATALOAD AND SWAP2 PUSH1 0x20 DUP2 ADD CALLDATALOAD SWAP2 DUP2 ADD SWAP1 PUSH1 0x60 DUP2 ADD PUSH1 0x40 DUP3 ADD CALLDATALOAD PUSH5 0x100000000 DUP2 GT ISZERO PUSH2 0x21E JUMPI PUSH1 0x0 DUP1 REVERT JUMPDEST DUP3 ADD DUP4 PUSH1 0x20 DUP3 ADD GT ISZERO PUSH2 0x230 JUMPI PUSH1 0x0 DUP1 REVERT JUMPDEST DUP1 CALLDATALOAD SWAP1 PUSH1 0x20 ADD SWAP2 DUP5 PUSH1 0x1 DUP4 MUL DUP5 ADD GT PUSH5 0x100000000 DUP4 GT OR ISZERO PUSH2 0x252 JUMPI PUSH1 0x0 DUP1 REVERT JUMPDEST SWAP2 SWAP1 DUP1 DUP1 PUSH1 0x1F ADD PUSH1 0x20 DUP1 SWAP2 DIV MUL PUSH1 0x20 ADD PUSH1 0x40 MLOAD SWAP1 DUP2 ADD PUSH1 0x40 MSTORE DUP1 SWAP4 SWAP3 SWAP2 SWAP1 DUP2 DUP2 MSTORE PUSH1 0x20 ADD DUP4 DUP4 DUP1 DUP3 DUP5 CALLDATACOPY PUSH1 0x0 SWAP3 ADD SWAP2 SWAP1 SWAP2 MSTORE POP SWAP3 SWAP6 POP PUSH2 0x9A9 SWAP5 POP POP POP POP POP JUMP JUMPDEST PUSH1 0x0 SLOAD PUSH1 0x1 PUSH1 0x1 PUSH1 0xA0 SHL SUB AND SWAP1 JUMP JUMPDEST PUSH1 0x0 DUP3 DUP2 MSTORE PUSH1 0x1 PUSH1 0x20 MSTORE PUSH1 0x40 DUP2 KECCAK256 SLOAD DUP4 SWAP1 PUSH1 0x1 PUSH1 0x1 PUSH1 0xA0 SHL SUB AND PUSH2 0x30D JUMPI PUSH1 0x40 DUP1 MLOAD PUSH3 0x461BCD PUSH1 0xE5 SHL DUP2 MSTORE PUSH1 0x20 PUSH1 0x4 DUP3 ADD MSTORE PUSH1 0x1B PUSH1 0x24 DUP3 ADD MSTORE PUSH32 0x4D757374206861766520612076616C6964207265717565737449640000000000 PUSH1 0x44 DUP3 ADD MSTORE SWAP1 MLOAD SWAP1 DUP2 SWAP1 SUB PUSH1 0x64 ADD SWAP1 REVERT JUMPDEST PUSH2 0x315 PUSH2 0xC61 JUMP JUMPDEST POP PUSH1 0x0 DUP5 DUP2 MSTORE PUSH1 0x1 PUSH1 0x20 DUP2 DUP2 MSTORE PUSH1 0x40 DUP1 DUP5 KECCAK256 DUP2 MLOAD DUP1 DUP4 ADD SWAP1 SWAP3 MSTORE DUP1 SLOAD PUSH1 0x1 PUSH1 0x1 PUSH1 0xA0 SHL SUB DUP2 AND DUP4 MSTORE PUSH1 0x1 PUSH1 0x1 PUSH1 0xE0 SHL SUB NOT PUSH21 0x10000000000000000000000000000000000000000 DUP3 DIV PUSH1 0xE0 SHL AND DUP4 DUP6 ADD MSTORE SWAP5 DUP10 SWAP1 MSTORE SWAP3 SWAP1 SWAP2 MSTORE PUSH32 0xFFFFFFFFFFFFFFFF000000000000000000000000000000000000000000000000 SWAP1 SWAP3 AND SWAP1 SSTORE PUSH3 0x61A80 GAS LT ISZERO PUSH2 0x3EC JUMPI PUSH1 0x40 DUP1 MLOAD PUSH3 0x461BCD PUSH1 0xE5 SHL DUP2 MSTORE PUSH1 0x20 PUSH1 0x4 DUP3 ADD DUP2 SWAP1 MSTORE PUSH1 0x24 DUP3 ADD MSTORE PUSH32 0x4D7573742070726F7669646520636F6E73756D657220656E6F75676820676173 PUSH1 0x44 DUP3 ADD MSTORE SWAP1 MLOAD SWAP1 DUP2 SWAP1 SUB PUSH1 0x64 ADD SWAP1 REVERT JUMPDEST DUP1 MLOAD PUSH1 0x20 DUP1 DUP4 ADD MLOAD PUSH1 0x40 DUP1 MLOAD PUSH1 0x24 DUP2 ADD DUP11 SWAP1 MSTORE PUSH1 0x44 DUP1 DUP3 ADD DUP11 SWAP1 MSTORE DUP3 MLOAD DUP1 DUP4 SUB SWAP1 SWAP2 ADD DUP2 MSTORE PUSH1 0x64 SWAP1 SWAP2 ADD DUP3 MSTORE SWAP3 DUP4 ADD DUP1 MLOAD PUSH1 0x1 PUSH1 0x1 PUSH1 0xE0 SHL SUB AND PUSH1 0x1 PUSH1 0x1 PUSH1 0xE0 SHL SUB NOT SWAP1 SWAP4 AND SWAP3 SWAP1 SWAP3 OR DUP3 MSTORE MLOAD DUP3 MLOAD PUSH1 0x0 SWAP5 PUSH1 0x1 PUSH1 0x1 PUSH1 0xA0 SHL SUB AND SWAP4 SWAP3 DUP3 SWAP2 DUP1 DUP4 DUP4 JUMPDEST PUSH1 0x20 DUP4 LT PUSH2 0x46E JUMPI DUP1 MLOAD DUP3 MSTORE PUSH1 0x1F NOT SWAP1 SWAP3 ADD SWAP2 PUSH1 0x20 SWAP2 DUP3 ADD SWAP2 ADD PUSH2 0x44F JUMP JUMPDEST PUSH1 0x1 DUP4 PUSH1 0x20 SUB PUSH2 0x100 EXP SUB DUP1 NOT DUP3 MLOAD AND DUP2 DUP5 MLOAD AND DUP1 DUP3 OR DUP6 MSTORE POP POP POP POP POP POP SWAP1 POP ADD SWAP2 POP POP PUSH1 0x0 PUSH1 0x40 MLOAD DUP1 DUP4 SUB DUP2 PUSH1 0x0 DUP7 GAS CALL SWAP2 POP POP RETURNDATASIZE DUP1 PUSH1 0x0 DUP2 EQ PUSH2 0x4D0 JUMPI PUSH1 0x40 MLOAD SWAP2 POP PUSH1 0x1F NOT PUSH1 0x3F RETURNDATASIZE ADD AND DUP3 ADD PUSH1 0x40 MSTORE RETURNDATASIZE DUP3 MSTORE RETURNDATASIZE PUSH1 0x0 PUSH1 0x20 DUP5 ADD RETURNDATACOPY PUSH2 0x4D5 JUMP JUMPDEST PUSH1 0x60 SWAP2 POP JUMPDEST POP SWAP1 SWAP8 SWAP7 POP POP POP POP POP POP POP JUMP JUMPDEST PUSH2 0x4EA PUSH2 0x293 JUMP JUMPDEST PUSH1 0x1 PUSH1 0x1 PUSH1 0xA0 SHL SUB AND CALLER PUSH1 0x1 PUSH1 0x1 PUSH1 0xA0 SHL SUB AND EQ PUSH2 0x54F JUMPI PUSH1 0x40 DUP1 MLOAD PUSH3 0x461BCD PUSH1 0xE5 SHL DUP2 MSTORE PUSH1 0x20 PUSH1 0x4 DUP3 ADD MSTORE PUSH1 0x13 PUSH1 0x24 DUP3 ADD MSTORE PUSH32 0x4D75737420757365204C494E4B20746F6B656E00000000000000000000000000 PUSH1 0x44 DUP3 ADD MSTORE SWAP1 MLOAD SWAP1 DUP2 SWAP1 SUB PUSH1 0x64 ADD SWAP1 REVERT JUMPDEST PUSH1 0x0 SLOAD DUP7 SWAP1 PUSH1 0x1 PUSH1 0x1 PUSH1 0xA0 SHL SUB DUP1 DUP4 AND SWAP2 AND EQ ISZERO PUSH2 0x5B4 JUMPI PUSH1 0x40 DUP1 MLOAD PUSH3 0x461BCD PUSH1 0xE5 SHL DUP2 MSTORE PUSH1 0x20 PUSH1 0x4 DUP3 ADD MSTORE PUSH1 0x17 PUSH1 0x24 DUP3 ADD MSTORE PUSH32 0x43616E6E6F742063616C6C6261636B20746F204C494E4B000000000000000000 PUSH1 0x44 DUP3 ADD MSTORE SWAP1 MLOAD SWAP1 DUP2 SWAP1 SUB PUSH1 0x64 ADD SWAP1 REVERT JUMPDEST PUSH1 0x40 DUP1 MLOAD PUSH12 0xFFFFFFFFFFFFFFFFFFFFFFFF NOT PUSH1 0x60 DUP14 SWAP1 SHL AND PUSH1 0x20 DUP1 DUP4 ADD SWAP2 SWAP1 SWAP2 MSTORE PUSH1 0x34 DUP1 DUP4 ADD DUP10 SWAP1 MSTORE DUP4 MLOAD DUP1 DUP5 SUB SWAP1 SWAP2 ADD DUP2 MSTORE PUSH1 0x54 SWAP1 SWAP3 ADD DUP4 MSTORE DUP2 MLOAD SWAP2 DUP2 ADD SWAP2 SWAP1 SWAP2 KECCAK256 PUSH1 0x0 DUP2 DUP2 MSTORE PUSH1 0x1 SWAP1 SWAP3 MSTORE SWAP2 SWAP1 KECCAK256 SLOAD PUSH1 0x1 PUSH1 0x1 PUSH1 0xA0 SHL SUB AND ISZERO PUSH2 0x660 JUMPI PUSH1 0x40 DUP1 MLOAD PUSH3 0x461BCD PUSH1 0xE5 SHL DUP2 MSTORE PUSH1 0x20 PUSH1 0x4 DUP3 ADD MSTORE PUSH1 0x14 PUSH1 0x24 DUP3 ADD MSTORE PUSH32 0x4D75737420757365206120756E69717565204944000000000000000000000000 PUSH1 0x44 DUP3 ADD MSTORE SWAP1 MLOAD SWAP1 DUP2 SWAP1 SUB PUSH1 0x64 ADD SWAP1 REVERT JUMPDEST PUSH1 0x0 PUSH2 0x674 TIMESTAMP PUSH2 0x12C PUSH4 0xFFFFFFFF PUSH2 0xC00 AND JUMP JUMPDEST SWAP1 POP PUSH1 0x40 MLOAD DUP1 PUSH1 0x40 ADD PUSH1 0x40 MSTORE DUP1 DUP11 PUSH1 0x1 PUSH1 0x1 PUSH1 0xA0 SHL SUB AND DUP2 MSTORE PUSH1 0x20 ADD DUP10 PUSH1 0x1 PUSH1 0x1 PUSH1 0xE0 SHL SUB NOT AND DUP2 MSTORE POP PUSH1 0x1 PUSH1 0x0 DUP5 DUP2 MSTORE PUSH1 0x20 ADD SWAP1 DUP2 MSTORE PUSH1 0x20 ADD PUSH1 0x0 KECCAK256 PUSH1 0x0 DUP3 ADD MLOAD DUP2 PUSH1 0x0 ADD PUSH1 0x0 PUSH2 0x100 EXP DUP2 SLOAD DUP2 PUSH1 0x1 PUSH1 0x1 PUSH1 0xA0 SHL SUB MUL NOT AND SWAP1 DUP4 PUSH1 0x1 PUSH1 0x1 PUSH1 0xA0 SHL SUB AND MUL OR SWAP1 SSTORE POP PUSH1 0x20 DUP3 ADD MLOAD DUP2 PUSH1 0x0 ADD PUSH1 0x14 PUSH2 0x100 EXP DUP2 SLOAD DUP2 PUSH4 0xFFFFFFFF MUL NOT AND SWAP1 DUP4 PUSH1 0xE0 SHR MUL OR SWAP1 SSTORE POP SWAP1 POP POP DUP10 PUSH32 0xD8D7ECC4800D25FA53CE0372F13A416D98907A7EF3D8D3BDD79CF4FE75529C65 DUP14 DUP5 DUP15 DUP14 DUP14 DUP8 DUP14 DUP14 DUP14 PUSH1 0x40 MLOAD DUP1 DUP11 PUSH1 0x1 PUSH1 0x1 PUSH1 0xA0 SHL SUB AND PUSH1 0x1 PUSH1 0x1 PUSH1 0xA0 SHL SUB AND DUP2 MSTORE PUSH1 0x20 ADD DUP10 DUP2 MSTORE PUSH1 0x20 ADD DUP9 DUP2 MSTORE PUSH1 0x20 ADD DUP8 PUSH1 0x1 PUSH1 0x1 PUSH1 0xA0 SHL SUB AND PUSH1 0x1 PUSH1 0x1 PUSH1 0xA0 SHL SUB AND DUP2 MSTORE PUSH1 0x20 ADD DUP7 PUSH1 0x1 PUSH1 0x1 PUSH1 0xE0 SHL SUB NOT AND PUSH1 0x1 PUSH1 0x1 PUSH1 0xE0 SHL SUB NOT AND DUP2 MSTORE PUSH1 0x20 ADD DUP6 DUP2 MSTORE PUSH1 0x20 ADD DUP5 DUP2 MSTORE PUSH1 0x20 ADD DUP1 PUSH1 0x20 ADD DUP3 DUP2 SUB DUP3 MSTORE DUP5 DUP5 DUP3 DUP2 DUP2 MSTORE PUSH1 0x20 ADD SWAP3 POP DUP1 DUP3 DUP5 CALLDATACOPY PUSH1 0x0 DUP4 DUP3 ADD MSTORE PUSH1 0x40 MLOAD PUSH1 0x1F SWAP1 SWAP2 ADD PUSH1 0x1F NOT AND SWAP1 SWAP3 ADD DUP3 SWAP1 SUB SWAP13 POP SWAP1 SWAP11 POP POP POP POP POP POP POP POP POP POP POP LOG2 POP POP POP POP POP POP POP POP POP POP POP POP JUMP JUMPDEST PUSH2 0x12C DUP2 JUMP JUMPDEST PUSH1 0x0 DUP5 DUP2 MSTORE PUSH1 0x1 PUSH1 0x20 MSTORE PUSH1 0x40 SWAP1 KECCAK256 SLOAD PUSH1 0x1 PUSH1 0x1 PUSH1 0xA0 SHL SUB AND PUSH2 0x853 JUMPI PUSH1 0x40 DUP1 MLOAD PUSH3 0x461BCD PUSH1 0xE5 SHL DUP2 MSTORE PUSH1 0x20 PUSH1 0x4 DUP3 ADD MSTORE PUSH1 0x14 PUSH1 0x24 DUP3 ADD MSTORE PUSH32 0x4D75737420757365206120756E69717565204944000000000000000000000000 PUSH1 0x44 DUP3 ADD MSTORE SWAP1 MLOAD SWAP1 DUP2 SWAP1 SUB PUSH1 0x64 ADD SWAP1 REVERT JUMPDEST TIMESTAMP DUP2 GT ISZERO PUSH2 0x8A8 JUMPI PUSH1 0x40 DUP1 MLOAD PUSH3 0x461BCD PUSH1 0xE5 SHL DUP2 MSTORE PUSH1 0x20 PUSH1 0x4 DUP3 ADD MSTORE PUSH1 0x16 PUSH1 0x24 DUP3 ADD MSTORE PUSH32 0x52657175657374206973206E6F74206578706972656400000000000000000000 PUSH1 0x44 DUP3 ADD MSTORE SWAP1 MLOAD SWAP1 DUP2 SWAP1 SUB PUSH1 0x64 ADD SWAP1 REVERT JUMPDEST PUSH1 0x0 DUP5 DUP2 MSTORE PUSH1 0x1 PUSH1 0x20 MSTORE PUSH1 0x40 DUP1 DUP3 KECCAK256 DUP1 SLOAD PUSH32 0xFFFFFFFFFFFFFFFF000000000000000000000000000000000000000000000000 AND SWAP1 SSTORE MLOAD DUP6 SWAP2 PUSH32 0xA7842B9EC549398102C0D91B1B9919B2F20558AEFDADF57528A95C6CD3292E93 SWAP2 LOG2 PUSH1 0x0 DUP1 SLOAD PUSH1 0x40 DUP1 MLOAD PUSH32 0xA9059CBB00000000000000000000000000000000000000000000000000000000 DUP2 MSTORE CALLER PUSH1 0x4 DUP3 ADD MSTORE PUSH1 0x24 DUP2 ADD DUP8 SWAP1 MSTORE SWAP1 MLOAD PUSH1 0x1 PUSH1 0x1 PUSH1 0xA0 SHL SUB SWAP1 SWAP3 AND SWAP3 PUSH4 0xA9059CBB SWAP3 PUSH1 0x44 DUP1 DUP5 ADD SWAP4 PUSH1 0x20 SWAP4 SWAP1 DUP4 SWAP1 SUB SWAP1 SWAP2 ADD SWAP1 DUP3 SWAP1 DUP8 DUP1 EXTCODESIZE ISZERO DUP1 ISZERO PUSH2 0x971 JUMPI PUSH1 0x0 DUP1 REVERT JUMPDEST POP GAS CALL ISZERO DUP1 ISZERO PUSH2 0x985 JUMPI RETURNDATASIZE PUSH1 0x0 DUP1 RETURNDATACOPY RETURNDATASIZE PUSH1 0x0 REVERT JUMPDEST POP POP POP POP PUSH1 0x40 MLOAD RETURNDATASIZE PUSH1 0x20 DUP2 LT ISZERO PUSH2 0x99B JUMPI PUSH1 0x0 DUP1 REVERT JUMPDEST POP MLOAD PUSH2 0x9A3 JUMPI INVALID JUMPDEST POP POP POP POP JUMP JUMPDEST PUSH2 0x9B1 PUSH2 0x293 JUMP JUMPDEST PUSH1 0x1 PUSH1 0x1 PUSH1 0xA0 SHL SUB AND CALLER PUSH1 0x1 PUSH1 0x1 PUSH1 0xA0 SHL SUB AND EQ PUSH2 0xA16 JUMPI PUSH1 0x40 DUP1 MLOAD PUSH3 0x461BCD PUSH1 0xE5 SHL DUP2 MSTORE PUSH1 0x20 PUSH1 0x4 DUP3 ADD MSTORE PUSH1 0x13 PUSH1 0x24 DUP3 ADD MSTORE PUSH32 0x4D75737420757365204C494E4B20746F6B656E00000000000000000000000000 PUSH1 0x44 DUP3 ADD MSTORE SWAP1 MLOAD SWAP1 DUP2 SWAP1 SUB PUSH1 0x64 ADD SWAP1 REVERT JUMPDEST DUP1 MLOAD DUP2 SWAP1 PUSH1 0x44 GT ISZERO PUSH2 0xA6F JUMPI PUSH1 0x40 DUP1 MLOAD PUSH3 0x461BCD PUSH1 0xE5 SHL DUP2 MSTORE PUSH1 0x20 PUSH1 0x4 DUP3 ADD MSTORE PUSH1 0x16 PUSH1 0x24 DUP3 ADD MSTORE PUSH32 0x496E76616C69642072657175657374206C656E67746800000000000000000000 PUSH1 0x44 DUP3 ADD MSTORE SWAP1 MLOAD SWAP1 DUP2 SWAP1 SUB PUSH1 0x64 ADD SWAP1 REVERT JUMPDEST PUSH1 0x20 DUP3 ADD MLOAD DUP3 SWAP1 PUSH1 0x1 PUSH1 0x1 PUSH1 0xE0 SHL SUB NOT DUP2 AND PUSH32 0x4042994600000000000000000000000000000000000000000000000000000000 EQ PUSH2 0xAF4 JUMPI PUSH1 0x40 DUP1 MLOAD PUSH3 0x461BCD PUSH1 0xE5 SHL DUP2 MSTORE PUSH1 0x20 PUSH1 0x4 DUP3 ADD MSTORE PUSH1 0x1E PUSH1 0x24 DUP3 ADD MSTORE PUSH32 0x4D757374207573652077686974656C69737465642066756E6374696F6E730000 PUSH1 0x44 DUP3 ADD MSTORE SWAP1 MLOAD SWAP1 DUP2 SWAP1 SUB PUSH1 0x64 ADD SWAP1 REVERT JUMPDEST DUP6 PUSH1 0x24 DUP6 ADD MSTORE DUP5 PUSH1 0x44 DUP6 ADD MSTORE PUSH1 0x0 ADDRESS PUSH1 0x1 PUSH1 0x1 PUSH1 0xA0 SHL SUB AND DUP6 PUSH1 0x40 MLOAD DUP1 DUP3 DUP1 MLOAD SWAP1 PUSH1 0x20 ADD SWAP1 DUP1 DUP4 DUP4 JUMPDEST PUSH1 0x20 DUP4 LT PUSH2 0xB3C JUMPI DUP1 MLOAD DUP3 MSTORE PUSH1 0x1F NOT SWAP1 SWAP3 ADD SWAP2 PUSH1 0x20 SWAP2 DUP3 ADD SWAP2 ADD PUSH2 0xB1D JUMP JUMPDEST PUSH1 0x1 DUP4 PUSH1 0x20 SUB PUSH2 0x100 EXP SUB DUP1 NOT DUP3 MLOAD AND DUP2 DUP5 MLOAD AND DUP1 DUP3 OR DUP6 MSTORE POP POP POP POP POP POP SWAP1 POP ADD SWAP2 POP POP PUSH1 0x0 PUSH1 0x40 MLOAD DUP1 DUP4 SUB DUP2 DUP6 GAS DELEGATECALL SWAP2 POP POP RETURNDATASIZE DUP1 PUSH1 0x0 DUP2 EQ PUSH2 0xB9C JUMPI PUSH1 0x40 MLOAD SWAP2 POP PUSH1 0x1F NOT PUSH1 0x3F RETURNDATASIZE ADD AND DUP3 ADD PUSH1 0x40 MSTORE RETURNDATASIZE DUP3 MSTORE RETURNDATASIZE PUSH1 0x0 PUSH1 0x20 DUP5 ADD RETURNDATACOPY PUSH2 0xBA1 JUMP JUMPDEST PUSH1 0x60 SWAP2 POP JUMPDEST POP POP SWAP1 POP DUP1 PUSH2 0xBF7 JUMPI PUSH1 0x40 DUP1 MLOAD PUSH3 0x461BCD PUSH1 0xE5 SHL DUP2 MSTORE PUSH1 0x20 PUSH1 0x4 DUP3 ADD MSTORE PUSH1 0x18 PUSH1 0x24 DUP3 ADD MSTORE PUSH32 0x556E61626C6520746F2063726561746520726571756573740000000000000000 PUSH1 0x44 DUP3 ADD MSTORE SWAP1 MLOAD SWAP1 DUP2 SWAP1 SUB PUSH1 0x64 ADD SWAP1 REVERT JUMPDEST POP POP POP POP POP POP POP JUMP JUMPDEST PUSH1 0x0 DUP3 DUP3 ADD DUP4 DUP2 LT ISZERO PUSH2 0xC5A JUMPI PUSH1 0x40 DUP1 MLOAD PUSH3 0x461BCD PUSH1 0xE5 SHL DUP2 MSTORE PUSH1 0x20 PUSH1 0x4 DUP3 ADD MSTORE PUSH1 0x1B PUSH1 0x24 DUP3 ADD MSTORE PUSH32 0x536166654D6174683A206164646974696F6E206F766572666C6F770000000000 PUSH1 0x44 DUP3 ADD MSTORE SWAP1 MLOAD SWAP1 DUP2 SWAP1 SUB PUSH1 0x64 ADD SWAP1 REVERT JUMPDEST SWAP4 SWAP3 POP POP POP JUMP JUMPDEST PUSH1 0x40 DUP1 MLOAD DUP1 DUP3 ADD SWAP1 SWAP2 MSTORE PUSH1 0x0 DUP1 DUP3 MSTORE PUSH1 0x20 DUP3 ADD MSTORE SWAP1 JUMP INVALID LOG2 PUSH5 0x6970667358 0x22 SLT KECCAK256 0x26 EQ EQ JUMPI 0xAD BALANCE 0xDE 0xB7 SWAP9 CALLDATASIZE SWAP10 0xD3 0xAF RETURNDATASIZE BYTE OR 0xD4 0xBF STOP PUSH20 0x50EB007A86B9F39223A5F25064736F6C63430006 MOD STOP CALLER "},"methodIdentifiers":{"EXPIRY_TIME()":"4b602282","cancelOracleRequest(bytes32,uint256,bytes4,uint256)":"6ee4d553","fulfillOracleRequest(bytes32,bytes32)":"1f8f238c","getChainlinkToken()":"165d35e1","onTokenTransfer(address,uint256,bytes)":"a4c0ed36","oracleRequest(address,uint256,bytes32,address,bytes4,uint256,uint256,bytes)":"40429946"}}}}}