{
  "_format": "hh-sol-artifact-1",
  "contractName": "Fractional",
  "sourceName": "contracts/Fractional.sol",
  "abi": [
    {
      "inputs": [
        {
          "internalType": "string",
          "name": "_name",
          "type": "string"
        },
        {
          "internalType": "string",
          "name": "_symbol",
          "type": "string"
        }
      ],
      "stateMutability": "nonpayable",
      "type": "constructor"
    },
    {
      "anonymous": false,
      "inputs": [
        {
          "indexed": true,
          "internalType": "address",
          "name": "owner",
          "type": "address"
        },
        {
          "indexed": true,
          "internalType": "address",
          "name": "approved",
          "type": "address"
        },
        {
          "indexed": true,
          "internalType": "uint256",
          "name": "tokenId",
          "type": "uint256"
        }
      ],
      "name": "Approval",
      "type": "event"
    },
    {
      "anonymous": false,
      "inputs": [
        {
          "indexed": true,
          "internalType": "address",
          "name": "owner",
          "type": "address"
        },
        {
          "indexed": true,
          "internalType": "address",
          "name": "operator",
          "type": "address"
        },
        {
          "indexed": false,
          "internalType": "bool",
          "name": "approved",
          "type": "bool"
        }
      ],
      "name": "ApprovalForAll",
      "type": "event"
    },
    {
      "anonymous": false,
      "inputs": [
        {
          "indexed": false,
          "internalType": "string",
          "name": "data",
          "type": "string"
        }
      ],
      "name": "ReadData",
      "type": "event"
    },
    {
      "anonymous": false,
      "inputs": [
        {
          "indexed": true,
          "internalType": "address",
          "name": "from",
          "type": "address"
        },
        {
          "indexed": true,
          "internalType": "address",
          "name": "to",
          "type": "address"
        },
        {
          "indexed": true,
          "internalType": "uint256",
          "name": "tokenId",
          "type": "uint256"
        }
      ],
      "name": "Transfer",
      "type": "event"
    },
    {
      "inputs": [
        {
          "internalType": "address",
          "name": "",
          "type": "address"
        }
      ],
      "name": "Track",
      "outputs": [
        {
          "internalType": "uint256",
          "name": "",
          "type": "uint256"
        }
      ],
      "stateMutability": "view",
      "type": "function"
    },
    {
      "inputs": [
        {
          "internalType": "address",
          "name": "to",
          "type": "address"
        },
        {
          "internalType": "uint256",
          "name": "tokenId",
          "type": "uint256"
        }
      ],
      "name": "approve",
      "outputs": [],
      "stateMutability": "nonpayable",
      "type": "function"
    },
    {
      "inputs": [
        {
          "internalType": "address",
          "name": "owner",
          "type": "address"
        }
      ],
      "name": "balanceOf",
      "outputs": [
        {
          "internalType": "uint256",
          "name": "",
          "type": "uint256"
        }
      ],
      "stateMutability": "view",
      "type": "function"
    },
    {
      "inputs": [
        {
          "internalType": "string[]",
          "name": "baz",
          "type": "string[]"
        }
      ],
      "name": "bar",
      "outputs": [],
      "stateMutability": "nonpayable",
      "type": "function"
    },
    {
      "inputs": [
        {
          "internalType": "uint256",
          "name": "_tokenID",
          "type": "uint256"
        },
        {
          "internalType": "uint256",
          "name": "_totalShares",
          "type": "uint256"
        },
        {
          "internalType": "address",
          "name": "account",
          "type": "address"
        }
      ],
      "name": "buyFractionalShares",
      "outputs": [],
      "stateMutability": "payable",
      "type": "function"
    },
    {
      "inputs": [
        {
          "internalType": "string",
          "name": "_tokenURI",
          "type": "string"
        },
        {
          "internalType": "uint256",
          "name": "_price",
          "type": "uint256"
        }
      ],
      "name": "createNFT",
      "outputs": [],
      "stateMutability": "nonpayable",
      "type": "function"
    },
    {
      "inputs": [],
      "name": "fetchNFTs",
      "outputs": [
        {
          "components": [
            {
              "internalType": "uint256",
              "name": "tokenID",
              "type": "uint256"
            },
            {
              "internalType": "address payable",
              "name": "owner",
              "type": "address"
            },
            {
              "internalType": "uint256",
              "name": "price",
              "type": "uint256"
            },
            {
              "internalType": "address[]",
              "name": "shareHolders",
              "type": "address[]"
            }
          ],
          "internalType": "struct Fractional.NFT[]",
          "name": "",
          "type": "tuple[]"
        }
      ],
      "stateMutability": "view",
      "type": "function"
    },
    {
      "inputs": [],
      "name": "fulfill",
      "outputs": [],
      "stateMutability": "nonpayable",
      "type": "function"
    },
    {
      "inputs": [
        {
          "internalType": "uint256",
          "name": "tokenId",
          "type": "uint256"
        }
      ],
      "name": "getApproved",
      "outputs": [
        {
          "internalType": "address",
          "name": "",
          "type": "address"
        }
      ],
      "stateMutability": "view",
      "type": "function"
    },
    {
      "inputs": [
        {
          "internalType": "uint256",
          "name": "",
          "type": "uint256"
        }
      ],
      "name": "idToNFT",
      "outputs": [
        {
          "internalType": "uint256",
          "name": "tokenID",
          "type": "uint256"
        },
        {
          "internalType": "address payable",
          "name": "owner",
          "type": "address"
        },
        {
          "internalType": "uint256",
          "name": "price",
          "type": "uint256"
        }
      ],
      "stateMutability": "view",
      "type": "function"
    },
    {
      "inputs": [
        {
          "internalType": "uint256",
          "name": "",
          "type": "uint256"
        }
      ],
      "name": "idToPrice",
      "outputs": [
        {
          "internalType": "uint256",
          "name": "",
          "type": "uint256"
        }
      ],
      "stateMutability": "view",
      "type": "function"
    },
    {
      "inputs": [
        {
          "internalType": "uint256",
          "name": "",
          "type": "uint256"
        }
      ],
      "name": "idToShare",
      "outputs": [
        {
          "internalType": "contract ERC20",
          "name": "",
          "type": "address"
        }
      ],
      "stateMutability": "view",
      "type": "function"
    },
    {
      "inputs": [
        {
          "internalType": "uint256",
          "name": "",
          "type": "uint256"
        }
      ],
      "name": "idToShareValue",
      "outputs": [
        {
          "internalType": "uint256",
          "name": "",
          "type": "uint256"
        }
      ],
      "stateMutability": "view",
      "type": "function"
    },
    {
      "inputs": [
        {
          "internalType": "address",
          "name": "owner",
          "type": "address"
        },
        {
          "internalType": "address",
          "name": "operator",
          "type": "address"
        }
      ],
      "name": "isApprovedForAll",
      "outputs": [
        {
          "internalType": "bool",
          "name": "",
          "type": "bool"
        }
      ],
      "stateMutability": "view",
      "type": "function"
    },
    {
      "inputs": [
        {
          "internalType": "uint256",
          "name": "tokenId",
          "type": "uint256"
        },
        {
          "internalType": "address",
          "name": "account",
          "type": "address"
        }
      ],
      "name": "isNFTOwner",
      "outputs": [
        {
          "internalType": "bool",
          "name": "",
          "type": "bool"
        }
      ],
      "stateMutability": "view",
      "type": "function"
    },
    {
      "inputs": [
        {
          "internalType": "uint256",
          "name": "_tokenID",
          "type": "uint256"
        },
        {
          "internalType": "string",
          "name": "_tokenURI",
          "type": "string"
        },
        {
          "internalType": "uint256",
          "name": "_sharesAmount",
          "type": "uint256"
        }
      ],
      "name": "lockNFT",
      "outputs": [],
      "stateMutability": "nonpayable",
      "type": "function"
    },
    {
      "inputs": [],
      "name": "name",
      "outputs": [
        {
          "internalType": "string",
          "name": "",
          "type": "string"
        }
      ],
      "stateMutability": "view",
      "type": "function"
    },
    {
      "inputs": [
        {
          "internalType": "uint256",
          "name": "tokenId",
          "type": "uint256"
        }
      ],
      "name": "ownerOf",
      "outputs": [
        {
          "internalType": "address",
          "name": "",
          "type": "address"
        }
      ],
      "stateMutability": "view",
      "type": "function"
    },
    {
      "inputs": [
        {
          "internalType": "address",
          "name": "from",
          "type": "address"
        },
        {
          "internalType": "address",
          "name": "to",
          "type": "address"
        },
        {
          "internalType": "uint256",
          "name": "tokenId",
          "type": "uint256"
        }
      ],
      "name": "safeTransferFrom",
      "outputs": [],
      "stateMutability": "nonpayable",
      "type": "function"
    },
    {
      "inputs": [
        {
          "internalType": "address",
          "name": "from",
          "type": "address"
        },
        {
          "internalType": "address",
          "name": "to",
          "type": "address"
        },
        {
          "internalType": "uint256",
          "name": "tokenId",
          "type": "uint256"
        },
        {
          "internalType": "bytes",
          "name": "data",
          "type": "bytes"
        }
      ],
      "name": "safeTransferFrom",
      "outputs": [],
      "stateMutability": "nonpayable",
      "type": "function"
    },
    {
      "inputs": [
        {
          "internalType": "address",
          "name": "operator",
          "type": "address"
        },
        {
          "internalType": "bool",
          "name": "approved",
          "type": "bool"
        }
      ],
      "name": "setApprovalForAll",
      "outputs": [],
      "stateMutability": "nonpayable",
      "type": "function"
    },
    {
      "inputs": [
        {
          "internalType": "bytes4",
          "name": "interfaceId",
          "type": "bytes4"
        }
      ],
      "name": "supportsInterface",
      "outputs": [
        {
          "internalType": "bool",
          "name": "",
          "type": "bool"
        }
      ],
      "stateMutability": "view",
      "type": "function"
    },
    {
      "inputs": [],
      "name": "symbol",
      "outputs": [
        {
          "internalType": "string",
          "name": "",
          "type": "string"
        }
      ],
      "stateMutability": "view",
      "type": "function"
    },
    {
      "inputs": [
        {
          "internalType": "uint256",
          "name": "tokenId",
          "type": "uint256"
        }
      ],
      "name": "tokenURI",
      "outputs": [
        {
          "internalType": "string",
          "name": "",
          "type": "string"
        }
      ],
      "stateMutability": "view",
      "type": "function"
    },
    {
      "inputs": [
        {
          "internalType": "address",
          "name": "from",
          "type": "address"
        },
        {
          "internalType": "address",
          "name": "to",
          "type": "address"
        },
        {
          "internalType": "uint256",
          "name": "tokenId",
          "type": "uint256"
        }
      ],
      "name": "transferFrom",
      "outputs": [],
      "stateMutability": "nonpayable",
      "type": "function"
    }
  ],
  "bytecode": "0x60a06040523480156200001157600080fd5b50604051620041fe380380620041fe833981016040819052620000349162000232565b8151829082906200004d906000906020850190620000fb565b50805162000063906001906020840190620000fb565b5050503360601b60805262000084826200008c602090811b6200152717901c565b505062000357565b620000d781604051602401620000a391906200029c565b60408051601f198184030181529190526020810180516001600160e01b0390811663104c13eb60e21b17909152620000da16565b50565b80516a636f6e736f6c652e6c6f67602083016000808483855afa5050505050565b828054620001099062000304565b90600052602060002090601f0160209004810192826200012d576000855562000178565b82601f106200014857805160ff191683800117855562000178565b8280016001018555821562000178579182015b82811115620001785782518255916020019190600101906200015b565b50620001869291506200018a565b5090565b5b808211156200018657600081556001016200018b565b600082601f830112620001b357600080fd5b81516001600160401b0380821115620001d057620001d062000341565b604051601f8301601f19908116603f01168101908282118183101715620001fb57620001fb62000341565b816040528381528660208588010111156200021557600080fd5b62000228846020830160208901620002d1565b9695505050505050565b600080604083850312156200024657600080fd5b82516001600160401b03808211156200025e57600080fd5b6200026c86838701620001a1565b935060208501519150808211156200028357600080fd5b506200029285828601620001a1565b9150509250929050565b6020815260008251806020840152620002bd816040850160208701620002d1565b601f01601f19169190910160400192915050565b60005b83811015620002ee578181015183820152602001620002d4565b83811115620002fe576000848401525b50505050565b600181811c908216806200031957607f821691505b602082108114156200033b57634e487b7160e01b600052602260045260246000fd5b50919050565b634e487b7160e01b600052604160045260246000fd5b60805160601c613e8b6200037360003960005050613e8b6000f3fe608060405260043610620001b75760003560e01c80636352211e11620000f3578063a22cb4651162000095578063c87b56dd116200006c578063c87b56dd1462000540578063c89b023e1462000565578063e985e9c5146200059f578063f9c6a05414620005ec57600080fd5b8063a22cb46514620004d1578063ac5d42cb14620004f6578063b88d4fde146200051b57600080fd5b806378f04baf11620000ca57806378f04baf146200046d57806382cf776f146200049457806395d89b4114620004b957600080fd5b80636352211e14620003fe57806365b38184146200042357806370a08231146200044857600080fd5b806323b872dd116200015d57806342842e0e116200013457806342842e0e146200039057806344a39c2514620003b55780636032f4a614620003e657600080fd5b806323b872dd14620002d95780632682915514620002fe57806333aa49cd146200032357600080fd5b8063095ea7b31162000192578063095ea7b3146200025b5780630a59749414620002825780630f10df6314620002c257600080fd5b806301ffc9a714620001bc57806306fdde0314620001f6578063081812fc146200021d575b600080fd5b348015620001c957600080fd5b50620001e1620001db36600462002610565b6200061d565b60405190151581526020015b60405180910390f35b3480156200020357600080fd5b506200020e620006bc565b604051620001ed9190620028cb565b3480156200022a57600080fd5b50620002426200023c36600462002699565b62000756565b6040516001600160a01b039091168152602001620001ed565b3480156200026857600080fd5b50620002806200027a36600462002549565b6200077f565b005b3480156200028f57600080fd5b50620002b3620002a136600462002699565b600c6020526000908152604090205481565b604051908152602001620001ed565b62000280620002d33660046200272d565b620008c0565b348015620002e657600080fd5b5062000280620002f836600462002447565b62000994565b3480156200030b57600080fd5b50620002806200031d36600462002650565b62000a21565b3480156200033057600080fd5b506200036c6200034236600462002699565b60096020526000908152604090208054600182015460029092015490916001600160a01b03169083565b604080519384526001600160a01b03909216602084015290820152606001620001ed565b3480156200039d57600080fd5b5062000280620003af36600462002447565b62000ae3565b348015620003c257600080fd5b50620002b3620003d4366004620023f1565b60086020526000908152604090205481565b348015620003f357600080fd5b506200028062000b00565b3480156200040b57600080fd5b50620002426200041d36600462002699565b62000c14565b3480156200043057600080fd5b506200028062000442366004620026d9565b62000c7b565b3480156200045557600080fd5b50620002b362000467366004620023f1565b62000ef3565b3480156200047a57600080fd5b506200048562000f8f565b604051620001ed919062002804565b348015620004a157600080fd5b5062000280620004b336600462002576565b620011d7565b348015620004c657600080fd5b506200020e6200127a565b348015620004de57600080fd5b5062000280620004f03660046200250d565b6200128b565b3480156200050357600080fd5b50620001e162000515366004620026b3565b62001298565b3480156200052857600080fd5b50620002806200053a36600462002488565b62001371565b3480156200054d57600080fd5b506200020e6200055f36600462002699565b62001405565b3480156200057257600080fd5b50620002426200058436600462002699565b600d602052600090815260409020546001600160a01b031681565b348015620005ac57600080fd5b50620001e1620005be3660046200240f565b6001600160a01b03918216600090815260056020908152604080832093909416825291909152205460ff1690565b348015620005f957600080fd5b50620002b36200060b36600462002699565b600b6020526000908152604090205481565b60006001600160e01b031982167f80ac58cd0000000000000000000000000000000000000000000000000000000014806200068157506001600160e01b031982167f5b5e139f00000000000000000000000000000000000000000000000000000000145b80620006b657507f01ffc9a7000000000000000000000000000000000000000000000000000000006001600160e01b03198316145b92915050565b606060008054620006cd9062002a8b565b80601f0160208091040260200160405190810160405280929190818152602001828054620006fb9062002a8b565b80156200074c5780601f1062000720576101008083540402835291602001916200074c565b820191906000526020600020905b8154815290600101906020018083116200072e57829003601f168201915b5050505050905090565b600062000763826200158a565b506000908152600460205260409020546001600160a01b031690565b60006200078c8262000c14565b9050806001600160a01b0316836001600160a01b031614156200081c5760405162461bcd60e51b815260206004820152602160248201527f4552433732313a20617070726f76616c20746f2063757272656e74206f776e6560448201527f720000000000000000000000000000000000000000000000000000000000000060648201526084015b60405180910390fd5b336001600160a01b03821614806200083b57506200083b8133620005be565b620008af5760405162461bcd60e51b815260206004820152603e60248201527f4552433732313a20617070726f76652063616c6c6572206973206e6f7420746f60448201527f6b656e206f776e6572206e6f7220617070726f76656420666f7220616c6c0000606482015260840162000813565b620008bb8383620015f0565b505050565b6000838152600a6020908152604080832054600c9092528220546001600160a01b039091169190620008f3908562001660565b6000868152600d60205260409081902054905163a9059cbb60e01b81526001600160a01b0386811660048301526024820188905292935091169063a9059cbb90604401602060405180830381600087803b1580156200095157600080fd5b505af115801562000966573d6000803e3d6000fd5b505050506040513d601f19601f820116820180604052508101906200098c9190620025f0565b505050505050565b620009a0338262001675565b62000a145760405162461bcd60e51b815260206004820152602e60248201527f4552433732313a2063616c6c6572206973206e6f7420746f6b656e206f776e6560448201527f72206e6f7220617070726f766564000000000000000000000000000000000000606482015260840162000813565b620008bb838383620016f9565b600062000a2f3384620018d2565b9050606062000a4783670de0b6b3a764000062002a20565b6000838152600b60209081526040808320938455600a82528083208054336001600160a01b03199182168117909255825160808101845288815280850192835295548684019081526060870188815289875260098652939095208651815591516001830180549092166001600160a01b039091161790559251600284015551805162000ada926003850192019062002228565b50505050505050565b620008bb8383836040518060200160405280600081525062001371565b6040517f7b226e616d65223a20226170706f696e746d656e74000000000000000000000060208201527f222c2022616363657373223a202230222c202261747472696275746573223a0060358201527f5b7b226b6579223a2274726169745f74797065222c2276616c7565223a22312260548201527f7d5d00000000000000000000000000000000000000000000000000000000000060748201527f7d00000000000000000000000000000000000000000000000000000000000000607682015260009060770160405160208183030381529060405290507f7f318df082a9b8338cbe38250b806cae511d3a83c7a1f750ef8d6563de5380f88160405162000c099190620028cb565b60405180910390a150565b6000818152600260205260408120546001600160a01b031680620006b65760405162461bcd60e51b815260206004820152601860248201527f4552433732313a20696e76616c696420746f6b656e2049440000000000000000604482015260640162000813565b62000c8933308585620019a5565b600062000c9684620019e7565b905060006040518060400160405280600b81526020017f4672616374696f6e4e465400000000000000000000000000000000000000000081525090506000818360405160200162000ce992919062002793565b60408051601f198184030181528282018252600483527f464e465400000000000000000000000000000000000000000000000000000000602084810191909152915190935060009162000d4191849188910162002793565b6040516020818303038152906040529050600083828860405162000d659062002292565b62000d73939291906200293f565b604051809103906000f08015801562000d90573d6000803e3d6000fd5b5060405163a9059cbb60e01b8152306004820152602481018990529091506001600160a01b0382169063a9059cbb90604401602060405180830381600087803b15801562000ddd57600080fd5b505af115801562000df2573d6000803e3d6000fd5b505050506040513d601f19601f8201168201806040525081019062000e189190620025f0565b5062000e5a6040518060400160405280601081526020017f436f6e74726163742041646472657373000000000000000000000000000000008152503062001b31565b62000e6f62000e693062000ef3565b62001b93565b6000898152600d6020908152604080832080546001600160a01b0386166001600160a01b031991821617909155600983528184206003018054600181018255908552838520018054909116331790558b8352600b90915290205462000ed5818962001bf4565b60009a8b52600c6020526040909a2099909955505050505050505050565b60006001600160a01b03821662000f735760405162461bcd60e51b815260206004820152602960248201527f4552433732313a2061646472657373207a65726f206973206e6f74206120766160448201527f6c6964206f776e65720000000000000000000000000000000000000000000000606482015260840162000813565b506001600160a01b031660009081526003602052604090205490565b6060600062000f9d60075490565b905060008060005b838110156200100957336009600062000fc0846001620029ee565b81526020810191909152604001600020600101546001600160a01b0316141562000ff45762000ff1600184620029ee565b92505b80620010008162002ac8565b91505062000fa5565b5060008267ffffffffffffffff81111562001028576200102862002b3f565b6040519080825280602002602001820160405280156200109057816020015b6200107c60405180608001604052806000815260200160006001600160a01b0316815260200160008152602001606081525090565b815260200190600190039081620010475790505b50905060005b84811015620011ce573360096000620010b1846001620029ee565b81526020810191909152604001600020600101546001600160a01b03161415620011b9576000620010e4826001620029ee565b60008181526009602090815260409182902082516080810184528154815260018201546001600160a01b03168184015260028201548185015260038201805485518186028101860190965280865295965091949093859360608601939192908301828280156200117e57602002820191906000526020600020905b81546001600160a01b031681526001909101906020018083116200115f575b5050505050815250508486815181106200119c576200119c62002b29565b6020908102919091010152620011b4600186620029ee565b945050505b80620011c58162002ac8565b91505062001096565b50949350505050565b620012766040518060400160405280600581526020017f42617a20300000000000000000000000000000000000000000000000000000008152508383600081811062001227576200122762002b29565b90506020028101906200123b91906200299d565b8080601f01602080910402602001604051908101604052809392919081815260200183838082843760009201919091525062001c0292505050565b5050565b606060018054620006cd9062002a8b565b6200127633838362001c64565b600082815260096020908152604080832060030180548251818502810185019093528083528493830182828015620012fa57602002820191906000526020600020905b81546001600160a01b03168152600190910190602001808311620012db575b5050505050905060005b8151811015620013665781818151811062001323576200132362002b29565b60200260200101516001600160a01b0316846001600160a01b031614156200135157600192505050620006b6565b806200135d8162002ac8565b91505062001304565b506000949350505050565b6200137d338362001675565b620013f15760405162461bcd60e51b815260206004820152602e60248201527f4552433732313a2063616c6c6572206973206e6f7420746f6b656e206f776e6560448201527f72206e6f7220617070726f766564000000000000000000000000000000000000606482015260840162000813565b620013ff8484848462001d35565b50505050565b606062001412826200158a565b600082815260066020526040812080546200142d9062002a8b565b80601f01602080910402602001604051908101604052809291908181526020018280546200145b9062002a8b565b8015620014ac5780601f106200148057610100808354040283529160200191620014ac565b820191906000526020600020905b8154815290600101906020018083116200148e57829003601f168201915b505050505090506000620014cb60408051602081019091526000815290565b9050805160001415620014df575092915050565b81511562001514578082604051602001620014fc92919062002793565b60405160208183030381529060405292505050919050565b6200151f8462001dc4565b949350505050565b62001587816040516024016200153e9190620028cb565b60408051601f198184030181529190526020810180516001600160e01b03167f41304fac0000000000000000000000000000000000000000000000000000000017905262001e40565b50565b6000818152600260205260409020546001600160a01b0316620015875760405162461bcd60e51b815260206004820152601860248201527f4552433732313a20696e76616c696420746f6b656e2049440000000000000000604482015260640162000813565b600081815260046020526040902080546001600160a01b0319166001600160a01b0384169081179091558190620016278262000c14565b6001600160a01b03167f8c5be1e5ebec7d5bd14f71427d1e84f3dd0314c0f7b2291e5b200ac8c7c3b92560405160405180910390a45050565b60006200166e828462002a20565b9392505050565b600080620016838362000c14565b9050806001600160a01b0316846001600160a01b03161480620016cb57506001600160a01b0380821660009081526005602090815260408083209388168352929052205460ff165b806200151f5750836001600160a01b0316620016e78462000756565b6001600160a01b031614949350505050565b826001600160a01b03166200170e8262000c14565b6001600160a01b0316146200178c5760405162461bcd60e51b815260206004820152602560248201527f4552433732313a207472616e736665722066726f6d20696e636f72726563742060448201527f6f776e6572000000000000000000000000000000000000000000000000000000606482015260840162000813565b6001600160a01b038216620018095760405162461bcd60e51b8152602060048201526024808201527f4552433732313a207472616e7366657220746f20746865207a65726f2061646460448201527f7265737300000000000000000000000000000000000000000000000000000000606482015260840162000813565b62001816600082620015f0565b6001600160a01b03831660009081526003602052604081208054600192906200184190849062002a42565b90915550506001600160a01b038216600090815260036020526040812080546001929062001871908490620029ee565b909155505060008181526002602052604080822080546001600160a01b0319166001600160a01b0386811691821790925591518493918716917fddf252ad1be2c89b69c2b068fc378daa952ba7f163c4a11628f55a4df523b3ef91a4505050565b600080620018df60075490565b9050620018ed848262001e61565b6200192e6040518060400160405280600981526020017f546f6b656e2055524900000000000000000000000000000000000000000000008152508462001c02565b6200193a818462001fa9565b6001600160a01b038416600090815260086020526040902081905562001964600780546001019055565b6200166e6040518060400160405280600881526020017f546f6b656e2049440000000000000000000000000000000000000000000000008152508262002056565b620019b2848484620016f9565b620019be828262001fa9565b506001600160a01b03928316600090815260086020526040808220829055929093168352912055565b60608162001a2857505060408051808201909152600181527f3000000000000000000000000000000000000000000000000000000000000000602082015290565b8160005b811562001a58578062001a3f8162002ac8565b915062001a509050600a8362002a09565b915062001a2c565b60008167ffffffffffffffff81111562001a765762001a7662002b3f565b6040519080825280601f01601f19166020018201604052801562001aa1576020820181803683370190505b5090505b84156200151f5762001ab960018362002a42565b915062001ac8600a8662002ae6565b62001ad5906030620029ee565b60f81b81838151811062001aed5762001aed62002b29565b60200101907effffffffffffffffffffffffffffffffffffffffffffffffffffffffffffff1916908160001a90535062001b29600a8662002a09565b945062001aa5565b62001276828260405160240162001b4a929190620028e0565b60408051601f198184030181529190526020810180516001600160e01b03167f319af3330000000000000000000000000000000000000000000000000000000017905262001e40565b620015878160405160240162001bab91815260200190565b60408051601f198184030181529190526020810180516001600160e01b03167ff82c50f10000000000000000000000000000000000000000000000000000000017905262001e40565b60006200166e828462002a09565b62001276828260405160240162001c1b9291906200290d565b60408051601f198184030181529190526020810180516001600160e01b03167f4b5c42770000000000000000000000000000000000000000000000000000000017905262001e40565b816001600160a01b0316836001600160a01b0316141562001cc85760405162461bcd60e51b815260206004820152601960248201527f4552433732313a20617070726f766520746f2063616c6c657200000000000000604482015260640162000813565b6001600160a01b03838116600081815260056020908152604080832094871680845294825291829020805460ff191686151590811790915591519182527f17307eab39ab6107e8899845ad3d59bd9653f200f220920489ca2b5937696c31910160405180910390a3505050565b62001d42848484620016f9565b62001d5084848484620020b8565b620013ff5760405162461bcd60e51b815260206004820152603260248201527f4552433732313a207472616e7366657220746f206e6f6e20455243373231526560448201527f63656976657220696d706c656d656e7465720000000000000000000000000000606482015260840162000813565b606062001dd1826200158a565b600062001de960408051602081019091526000815290565b9050600081511162001e0b57604051806020016040528060008152506200166e565b8062001e1784620019e7565b60405160200162001e2a92919062002793565b6040516020818303038152906040529392505050565b80516a636f6e736f6c652e6c6f67602083016000808483855afa5050505050565b6001600160a01b03821662001eb95760405162461bcd60e51b815260206004820181905260248201527f4552433732313a206d696e7420746f20746865207a65726f2061646472657373604482015260640162000813565b6000818152600260205260409020546001600160a01b03161562001f205760405162461bcd60e51b815260206004820152601c60248201527f4552433732313a20746f6b656e20616c7265616479206d696e74656400000000604482015260640162000813565b6001600160a01b038216600090815260036020526040812080546001929062001f4b908490620029ee565b909155505060008181526002602052604080822080546001600160a01b0319166001600160a01b03861690811790915590518392907fddf252ad1be2c89b69c2b068fc378daa952ba7f163c4a11628f55a4df523b3ef908290a45050565b6000828152600260205260409020546001600160a01b0316620020355760405162461bcd60e51b815260206004820152602e60248201527f45524337323155524953746f726167653a2055524920736574206f66206e6f6e60448201527f6578697374656e7420746f6b656e000000000000000000000000000000000000606482015260840162000813565b60008281526006602090815260409091208251620008bb92840190620022a0565b6200127682826040516024016200206f92919062002979565b60408051601f198184030181529190526020810180516001600160e01b03167fb60e72cc0000000000000000000000000000000000000000000000000000000017905262001e40565b60006001600160a01b0384163b156200221d57604051630a85bd0160e11b81526001600160a01b0385169063150b7a0290620020ff903390899088908890600401620027c6565b602060405180830381600087803b1580156200211a57600080fd5b505af19250505080156200214d575060408051601f3d908101601f191682019092526200214a9181019062002630565b60015b62002202573d8080156200217e576040519150601f19603f3d011682016040523d82523d6000602084013e62002183565b606091505b508051620021fa5760405162461bcd60e51b815260206004820152603260248201527f4552433732313a207472616e7366657220746f206e6f6e20455243373231526560448201527f63656976657220696d706c656d656e7465720000000000000000000000000000606482015260840162000813565b805181602001fd5b6001600160e01b031916630a85bd0160e11b1490506200151f565b506001949350505050565b82805482825590600052602060002090810192821562002280579160200282015b828111156200228057825182546001600160a01b0319166001600160a01b0390911617825560209092019160019091019062002249565b506200228e9291506200231d565b5090565b6112da8062002b7c83390190565b828054620022ae9062002a8b565b90600052602060002090601f016020900481019282620022d2576000855562002280565b82601f10620022ed57805160ff191683800117855562002280565b8280016001018555821562002280579182015b828111156200228057825182559160200191906001019062002300565b5b808211156200228e57600081556001016200231e565b600067ffffffffffffffff8084111562002352576200235262002b3f565b604051601f8501601f19908116603f011681019082821181831017156200237d576200237d62002b3f565b816040528093508581528686860111156200239757600080fd5b858560208301376000602087830101525050509392505050565b80356001600160a01b0381168114620023c957600080fd5b919050565b600082601f830112620023e057600080fd5b6200166e8383356020850162002334565b6000602082840312156200240457600080fd5b6200166e82620023b1565b600080604083850312156200242357600080fd5b6200242e83620023b1565b91506200243e60208401620023b1565b90509250929050565b6000806000606084860312156200245d57600080fd5b6200246884620023b1565b92506200247860208501620023b1565b9150604084013590509250925092565b600080600080608085870312156200249f57600080fd5b620024aa85620023b1565b9350620024ba60208601620023b1565b925060408501359150606085013567ffffffffffffffff811115620024de57600080fd5b8501601f81018713620024f057600080fd5b620025018782356020840162002334565b91505092959194509250565b600080604083850312156200252157600080fd5b6200252c83620023b1565b915060208301356200253e8162002b55565b809150509250929050565b600080604083850312156200255d57600080fd5b6200256883620023b1565b946020939093013593505050565b600080602083850312156200258a57600080fd5b823567ffffffffffffffff80821115620025a357600080fd5b818501915085601f830112620025b857600080fd5b813581811115620025c857600080fd5b8660208260051b8501011115620025de57600080fd5b60209290920196919550909350505050565b6000602082840312156200260357600080fd5b81516200166e8162002b55565b6000602082840312156200262357600080fd5b81356200166e8162002b64565b6000602082840312156200264357600080fd5b81516200166e8162002b64565b600080604083850312156200266457600080fd5b823567ffffffffffffffff8111156200267c57600080fd5b6200268a85828601620023ce565b95602094909401359450505050565b600060208284031215620026ac57600080fd5b5035919050565b60008060408385031215620026c757600080fd5b823591506200243e60208401620023b1565b600080600060608486031215620026ef57600080fd5b83359250602084013567ffffffffffffffff8111156200270e57600080fd5b6200271c86828701620023ce565b925050604084013590509250925092565b6000806000606084860312156200274357600080fd5b83359250602084013591506200275c60408501620023b1565b90509250925092565b600081518084526200277f81602086016020860162002a5c565b601f01601f19169290920160200192915050565b60008351620027a781846020880162002a5c565b835190830190620027bd81836020880162002a5c565b01949350505050565b60006001600160a01b03808716835280861660208401525083604083015260806060830152620027fa608083018462002765565b9695505050505050565b60006020808301818452808551808352604092508286019150828160051b8701018488016000805b84811015620028bc57898403603f19018652825180518552888101516001600160a01b039081168a8701528882015189870152606091820151608092870183905280519287018390528a019160a08701918591905b81831015620028a557845181168452938c0193928c01926001929092019162002881565b50505096890196945050918701916001016200282c565b50919998505050505050505050565b6020815260006200166e602083018462002765565b604081526000620028f5604083018562002765565b90506001600160a01b03831660208301529392505050565b60408152600062002922604083018562002765565b828103602084015262002936818562002765565b95945050505050565b60608152600062002954606083018662002765565b828103602084015262002968818662002765565b915050826040830152949350505050565b6040815260006200298e604083018562002765565b90508260208301529392505050565b6000808335601e19843603018112620029b557600080fd5b83018035915067ffffffffffffffff821115620029d157600080fd5b602001915036819003821315620029e757600080fd5b9250929050565b6000821982111562002a045762002a0462002afd565b500190565b60008262002a1b5762002a1b62002b13565b500490565b600081600019048311821515161562002a3d5762002a3d62002afd565b500290565b60008282101562002a575762002a5762002afd565b500390565b60005b8381101562002a7957818101518382015260200162002a5f565b83811115620013ff5750506000910152565b600181811c9082168062002aa057607f821691505b6020821081141562002ac257634e487b7160e01b600052602260045260246000fd5b50919050565b600060001982141562002adf5762002adf62002afd565b5060010190565b60008262002af85762002af862002b13565b500690565b634e487b7160e01b600052601160045260246000fd5b634e487b7160e01b600052601260045260246000fd5b634e487b7160e01b600052603260045260246000fd5b634e487b7160e01b600052604160045260246000fd5b80151581146200158757600080fd5b6001600160e01b0319811681146200158757600080fdfe60806040526006805460ff191660121790553480156200001e57600080fd5b50604051620012da380380620012da8339810160408190526200004191620003e9565b6200004c33620000b2565b8251620000619060049060208601906200028c565b508151620000779060059060208501906200028c565b506006546000906200008e9060ff16600a620004c0565b6200009a90836200057f565b9050620000a8338262000102565b505050506200060a565b600080546001600160a01b038381166001600160a01b0319831681178455604051919092169283917f8be0079c531659141344cd1fd0a4f28419497f9722a3daafe3b4186f6b6457e09190a35050565b6200010c62000217565b6001600160a01b038216620001685760405162461bcd60e51b815260206004820152601f60248201527f45524332303a206d696e7420746f20746865207a65726f20616464726573730060448201526064015b60405180910390fd5b62000184816003546200027560201b620006571790919060201c565b6003556001600160a01b038216600090815260016020908152604090912054620001b99183906200065762000275821b17901c565b6001600160a01b0383166000818152600160205260408082209390935591519091907fddf252ad1be2c89b69c2b068fc378daa952ba7f163c4a11628f55a4df523b3ef906200020b9085815260200190565b60405180910390a35050565b6000546001600160a01b03163314620002735760405162461bcd60e51b815260206004820181905260248201527f4f776e61626c653a2063616c6c6572206973206e6f7420746865206f776e657260448201526064016200015f565b565b60006200028382846200045c565b90505b92915050565b8280546200029a90620005a1565b90600052602060002090601f016020900481019282620002be576000855562000309565b82601f10620002d957805160ff191683800117855562000309565b8280016001018555821562000309579182015b8281111562000309578251825591602001919060010190620002ec565b50620003179291506200031b565b5090565b5b808211156200031757600081556001016200031c565b600082601f8301126200034457600080fd5b81516001600160401b0380821115620003615762000361620005f4565b604051601f8301601f19908116603f011681019082821181831017156200038c576200038c620005f4565b81604052838152602092508683858801011115620003a957600080fd5b600091505b83821015620003cd5785820183015181830184015290820190620003ae565b83821115620003df5760008385830101525b9695505050505050565b600080600060608486031215620003ff57600080fd5b83516001600160401b03808211156200041757600080fd5b620004258783880162000332565b945060208601519150808211156200043c57600080fd5b506200044b8682870162000332565b925050604084015190509250925092565b60008219821115620004725762000472620005de565b500190565b600181815b80851115620004b85781600019048211156200049c576200049c620005de565b80851615620004aa57918102915b93841c93908002906200047c565b509250929050565b60006200028360ff841683600082620004dc5750600162000286565b81620004eb5750600062000286565b81600181146200050457600281146200050f576200052f565b600191505062000286565b60ff841115620005235762000523620005de565b50506001821b62000286565b5060208310610133831016604e8410600b841016171562000554575081810a62000286565b62000560838362000477565b8060001904821115620005775762000577620005de565b029392505050565b60008160001904831182151516156200059c576200059c620005de565b500290565b600181811c90821680620005b657607f821691505b60208210811415620005d857634e487b7160e01b600052602260045260246000fd5b50919050565b634e487b7160e01b600052601160045260246000fd5b634e487b7160e01b600052604160045260246000fd5b610cc0806200061a6000396000f3fe608060405234801561001057600080fd5b50600436106100f55760003560e01c8063715018a6116100975780639dc29fac116100665780639dc29fac146101f9578063a9059cbb1461020c578063dd62ed3e1461021f578063f2fde38b1461025857600080fd5b8063715018a6146101b3578063893d20e8146101bb5780638da5cb5b146101e057806395d89b41146101f157600080fd5b806323b872dd116100d357806323b872dd1461014d578063313ce5671461016057806340c10f191461017557806370a082311461018a57600080fd5b806306fdde03146100fa578063095ea7b31461011857806318160ddd1461013b575b600080fd5b61010261026b565b60405161010f9190610b45565b60405180910390f35b61012b610126366004610b1b565b6102fd565b604051901515815260200161010f565b6003545b60405190815260200161010f565b61012b61015b366004610adf565b610313565b60065460405160ff909116815260200161010f565b610188610183366004610b1b565b61037c565b005b61013f610198366004610a91565b6001600160a01b031660009081526001602052604090205490565b61018861046f565b6000546001600160a01b03165b6040516001600160a01b03909116815260200161010f565b6000546001600160a01b03166101c8565b610102610483565b610188610207366004610b1b565b610492565b61012b61021a366004610b1b565b6105ba565b61013f61022d366004610aac565b6001600160a01b03918216600090815260026020908152604080832093909416825291909152205490565b610188610266366004610a91565b6105c7565b60606004805461027a90610bc9565b80601f01602080910402602001604051908101604052809291908181526020018280546102a690610bc9565b80156102f35780601f106102c8576101008083540402835291602001916102f3565b820191906000526020600020905b8154815290600101906020018083116102d657829003601f168201915b5050505050905090565b600061030a33848461066a565b50600192915050565b60006103208484846107c3565b610372843361036d85604051806060016040528060288152602001610c63602891396001600160a01b038a166000908152600260209081526040808320338452909152902054919061097b565b61066a565b5060019392505050565b6103846109a7565b6001600160a01b0382166103df5760405162461bcd60e51b815260206004820152601f60248201527f45524332303a206d696e7420746f20746865207a65726f20616464726573730060448201526064015b60405180910390fd5b6003546103ec9082610657565b6003556001600160a01b0382166000908152600160205260409020546104129082610657565b6001600160a01b0383166000818152600160205260408082209390935591519091907fddf252ad1be2c89b69c2b068fc378daa952ba7f163c4a11628f55a4df523b3ef906104639085815260200190565b60405180910390a35050565b6104776109a7565b6104816000610a01565b565b60606005805461027a90610bc9565b61049a6109a7565b6001600160a01b0382166105165760405162461bcd60e51b815260206004820152602160248201527f45524332303a206275726e2066726f6d20746865207a65726f2061646472657360448201527f730000000000000000000000000000000000000000000000000000000000000060648201526084016103d6565b61055381604051806060016040528060228152602001610c1b602291396001600160a01b038516600090815260016020526040902054919061097b565b6001600160a01b0383166000908152600160205260409020556003546105799082610a69565b6003556040518181526000906001600160a01b038416907fddf252ad1be2c89b69c2b068fc378daa952ba7f163c4a11628f55a4df523b3ef90602001610463565b600061030a3384846107c3565b6105cf6109a7565b6001600160a01b03811661064b5760405162461bcd60e51b815260206004820152602660248201527f4f776e61626c653a206e6577206f776e657220697320746865207a65726f206160448201527f646472657373000000000000000000000000000000000000000000000000000060648201526084016103d6565b61065481610a01565b50565b60006106638284610b9a565b9392505050565b6001600160a01b0383166106e55760405162461bcd60e51b8152602060048201526024808201527f45524332303a20617070726f76652066726f6d20746865207a65726f2061646460448201527f726573730000000000000000000000000000000000000000000000000000000060648201526084016103d6565b6001600160a01b0382166107615760405162461bcd60e51b815260206004820152602260248201527f45524332303a20617070726f766520746f20746865207a65726f20616464726560448201527f737300000000000000000000000000000000000000000000000000000000000060648201526084016103d6565b6001600160a01b0383811660008181526002602090815260408083209487168084529482529182902085905590518481527f8c5be1e5ebec7d5bd14f71427d1e84f3dd0314c0f7b2291e5b200ac8c7c3b92591015b60405180910390a3505050565b6001600160a01b03831661083f5760405162461bcd60e51b815260206004820152602560248201527f45524332303a207472616e736665722066726f6d20746865207a65726f20616460448201527f647265737300000000000000000000000000000000000000000000000000000060648201526084016103d6565b6001600160a01b0382166108bb5760405162461bcd60e51b815260206004820152602360248201527f45524332303a207472616e7366657220746f20746865207a65726f206164647260448201527f657373000000000000000000000000000000000000000000000000000000000060648201526084016103d6565b6108f881604051806060016040528060268152602001610c3d602691396001600160a01b038616600090815260016020526040902054919061097b565b6001600160a01b0380851660009081526001602052604080822093909355908416815220546109279082610657565b6001600160a01b0380841660008181526001602052604090819020939093559151908516907fddf252ad1be2c89b69c2b068fc378daa952ba7f163c4a11628f55a4df523b3ef906107b69085815260200190565b6000818484111561099f5760405162461bcd60e51b81526004016103d69190610b45565b505050900390565b6000546001600160a01b031633146104815760405162461bcd60e51b815260206004820181905260248201527f4f776e61626c653a2063616c6c6572206973206e6f7420746865206f776e657260448201526064016103d6565b600080546001600160a01b038381167fffffffffffffffffffffffff0000000000000000000000000000000000000000831681178455604051919092169283917f8be0079c531659141344cd1fd0a4f28419497f9722a3daafe3b4186f6b6457e09190a35050565b60006106638284610bb2565b80356001600160a01b0381168114610a8c57600080fd5b919050565b600060208284031215610aa357600080fd5b61066382610a75565b60008060408385031215610abf57600080fd5b610ac883610a75565b9150610ad660208401610a75565b90509250929050565b600080600060608486031215610af457600080fd5b610afd84610a75565b9250610b0b60208501610a75565b9150604084013590509250925092565b60008060408385031215610b2e57600080fd5b610b3783610a75565b946020939093013593505050565b600060208083528351808285015260005b81811015610b7257858101830151858201604001528201610b56565b81811115610b84576000604083870101525b50601f01601f1916929092016040019392505050565b60008219821115610bad57610bad610c04565b500190565b600082821015610bc457610bc4610c04565b500390565b600181811c90821680610bdd57607f821691505b60208210811415610bfe57634e487b7160e01b600052602260045260246000fd5b50919050565b634e487b7160e01b600052601160045260246000fdfe45524332303a206275726e20616d6f756e7420657863656564732062616c616e636545524332303a207472616e7366657220616d6f756e7420657863656564732062616c616e636545524332303a207472616e7366657220616d6f756e74206578636565647320616c6c6f77616e6365a2646970667358221220378eb0dc64245309002ede8263f571b2eb6ff1a2ec1dbb06075ea07e16c62e2f64736f6c63430008070033a2646970667358221220fe899ef704a45ecc80820f338f18345979ccc4ad8c6732964747c78b9186c02c64736f6c63430008070033",
  "linkReferences": {},
  "deployedLinkReferences": {}
}