{
  "_format": "hh-sol-artifact-1",
  "contractName": "Verifier",
  "sourceName": "contracts/AdministrativeRoles/Verifier.sol",
  "abi": [
    {
      "inputs": [],
      "stateMutability": "nonpayable",
      "type": "constructor"
    },
    {
      "anonymous": false,
      "inputs": [
        {
          "indexed": false,
          "internalType": "string",
          "name": "access",
          "type": "string"
        }
      ],
      "name": "AccessResult",
      "type": "event"
    },
    {
      "anonymous": false,
      "inputs": [
        {
          "indexed": true,
          "internalType": "address",
          "name": "previousOwner",
          "type": "address"
        },
        {
          "indexed": true,
          "internalType": "address",
          "name": "newOwner",
          "type": "address"
        }
      ],
      "name": "OwnershipTransferred",
      "type": "event"
    },
    {
      "inputs": [
        {
          "internalType": "string",
          "name": "",
          "type": "string"
        },
        {
          "internalType": "string",
          "name": "",
          "type": "string"
        },
        {
          "internalType": "uint256",
          "name": "",
          "type": "uint256"
        }
      ],
      "name": "accessPolicy",
      "outputs": [
        {
          "internalType": "uint256",
          "name": "",
          "type": "uint256"
        }
      ],
      "stateMutability": "view",
      "type": "function"
    },
    {
      "inputs": [
        {
          "internalType": "string",
          "name": "resource_name",
          "type": "string"
        },
        {
          "internalType": "string",
          "name": "role",
          "type": "string"
        },
        {
          "internalType": "uint256",
          "name": "access_type",
          "type": "uint256"
        },
        {
          "internalType": "uint256",
          "name": "tokenId",
          "type": "uint256"
        }
      ],
      "name": "accessResource",
      "outputs": [],
      "stateMutability": "nonpayable",
      "type": "function"
    },
    {
      "inputs": [
        {
          "internalType": "string",
          "name": "s1",
          "type": "string"
        },
        {
          "internalType": "string",
          "name": "s2",
          "type": "string"
        }
      ],
      "name": "compareStringsbyBytes",
      "outputs": [
        {
          "internalType": "bool",
          "name": "",
          "type": "bool"
        }
      ],
      "stateMutability": "pure",
      "type": "function"
    },
    {
      "inputs": [],
      "name": "getContractAddress",
      "outputs": [
        {
          "internalType": "address",
          "name": "",
          "type": "address"
        }
      ],
      "stateMutability": "view",
      "type": "function"
    },
    {
      "inputs": [
        {
          "internalType": "string",
          "name": "tokenUri",
          "type": "string"
        }
      ],
      "name": "getNFTMetadata",
      "outputs": [],
      "stateMutability": "nonpayable",
      "type": "function"
    },
    {
      "inputs": [],
      "name": "makeAccessPolicy",
      "outputs": [],
      "stateMutability": "nonpayable",
      "type": "function"
    },
    {
      "inputs": [],
      "name": "owner",
      "outputs": [
        {
          "internalType": "address",
          "name": "",
          "type": "address"
        }
      ],
      "stateMutability": "view",
      "type": "function"
    },
    {
      "inputs": [],
      "name": "renounceOwnership",
      "outputs": [],
      "stateMutability": "nonpayable",
      "type": "function"
    },
    {
      "inputs": [
        {
          "internalType": "address",
          "name": "account",
          "type": "address"
        }
      ],
      "name": "setIssuer",
      "outputs": [],
      "stateMutability": "nonpayable",
      "type": "function"
    },
    {
      "inputs": [
        {
          "internalType": "string",
          "name": "s",
          "type": "string"
        }
      ],
      "name": "stringToUint",
      "outputs": [
        {
          "internalType": "uint256",
          "name": "",
          "type": "uint256"
        }
      ],
      "stateMutability": "pure",
      "type": "function"
    },
    {
      "inputs": [
        {
          "internalType": "address",
          "name": "newOwner",
          "type": "address"
        }
      ],
      "name": "transferOwnership",
      "outputs": [],
      "stateMutability": "nonpayable",
      "type": "function"
    },
    {
      "inputs": [
        {
          "internalType": "string",
          "name": "role",
          "type": "string"
        },
        {
          "internalType": "string",
          "name": "resource_name",
          "type": "string"
        },
        {
          "internalType": "uint256",
          "name": "tokenUri",
          "type": "uint256"
        },
        {
          "internalType": "address",
          "name": "account",
          "type": "address"
        },
        {
          "internalType": "address",
          "name": "issuer",
          "type": "address"
        }
      ],
      "name": "verify",
      "outputs": [
        {
          "internalType": "bool",
          "name": "",
          "type": "bool"
        }
      ],
      "stateMutability": "nonpayable",
      "type": "function"
    }
  ],
  "bytecode": "0x60c0604052600860808190526729bab8383634b2b960c11b60a09081526200002b9160019190620002fb565b50600460025560408051808201909152600880825267526563656970747360c01b60209092019182526200006291600391620002fb565b503480156200007057600080fd5b506200007c336200008c565b62000086620000dc565b62000421565b600080546001600160a01b038381166001600160a01b0319831681178455604051919092169283917f8be0079c531659141344cd1fd0a4f28419497f9722a3daafe3b4186f6b6457e09190a35050565b6040805160808101825260008152600160208201526002818301526003606082015290516a185c1c1bda5b9d1b595b9d60aa1b8152600490600b019081526040519081900360200181206739bab8383634b2b960c11b825290600801908152604051908190036020019020620001549160046200038a565b50604080516020810182526003815290516a185c1c1bda5b9d1b595b9d60aa1b8152600490600b019081526040519081900360200181206636b0b730b3b2b960c91b825290600701908152604051908190036020019020620001b89160016200038a565b50604080518082018252600281526003602082015290516a185c1c1bda5b9d1b595b9d60aa1b8152600490600b01908152604051908190036020018120673932b1b2b4bb32b960c11b825290600801908152604051908190036020019020620002239160026200038a565b5060408051602081018252600381529051661c9958d95a5c1d60ca1b81526004906007019081526040519081900360200181206636b0b730b3b2b960c91b825290600701908152604051908190036020019020620002839160016200038a565b50604080516080810182526000815260016020820152600281830152600360608201529051661c9958d95a5c1d60ca1b8152600490600701908152604051908190036020018120673932b1b2b4bb32b960c11b825290600801908152604051908190036020019020620002f89160046200038a565b50565b8280546200030990620003e4565b90600052602060002090601f0160209004810192826200032d576000855562000378565b82601f106200034857805160ff191683800117855562000378565b8280016001018555821562000378579182015b82811115620003785782518255916020019190600101906200035b565b5062000386929150620003cd565b5090565b82805482825590600052602060002090810192821562000378579160200282015b8281111562000378578251829060ff16905591602001919060010190620003ab565b5b80821115620003865760008155600101620003ce565b600181811c90821680620003f957607f821691505b602082108114156200041b57634e487b7160e01b600052602260045260246000fd5b50919050565b617e8780620004316000396000f3fe60806040523480156200001157600080fd5b5060043610620000e55760003560e01c80637a2b380c116200008b578063c7cf11591162000062578063c7cf115914620001c1578063e9a734ff14620001d8578063f2fde38b14620001ef57600080fd5b80637a2b380c14620001705780638da5cb5b1462000198578063a0998e6414620001aa57600080fd5b806355cc4e5711620000c057806355cc4e57146200014557806360a29d27146200015c578063715018a6146200016657600080fd5b80631bd9515514620000ea57806321f4709f146200011457806332a2c5d0146200012a575b600080fd5b62000101620000fb36600462000ffa565b62000206565b6040519081526020015b60405180910390f35b620001286200012536600462000ffa565b50565b005b305b6040516001600160a01b0390911681526020016200010b565b620001286200015636600462000e82565b62000297565b6200012862000307565b6200012862000538565b62000187620001813660046200111a565b62000550565b60405190151581526020016200010b565b6000546001600160a01b03166200012c565b62000128620001bb366004620011b4565b50505050565b62000101620001d2366004620010a6565b62000a70565b62000187620001e93660046200103b565b62000ac8565b620001286200020036600462000e82565b62000b25565b60008181805b82518110156200028f5760008382815181106200022d576200022d620013d6565b016020015160f81c9050603081108015906200024a575060398111155b1562000279576200025d60308262001359565b6200026a84600a62001337565b6200027691906200131c565b92505b50806200028681620013a2565b9150506200020c565b509392505050565b620002d86040518060400160405280600681526020017f69737375657200000000000000000000000000000000000000000000000000008152508262000bbc565b6005805473ffffffffffffffffffffffffffffffffffffffff19166001600160a01b0392909216919091179055565b6040805160808101825260008152600160208201526002818301526003606082015290516a185c1c1bda5b9d1b595b9d60aa1b8152600490600b019081526040519081900360200181207f737570706c6965720000000000000000000000000000000000000000000000008252906008019081526040519081900360200190206200039491600462000d81565b50604080516020810182526003815290516a185c1c1bda5b9d1b595b9d60aa1b8152600490600b019081526040519081900360200181206636b0b730b3b2b960c91b825290600701908152604051908190036020019020620003f891600162000d81565b50604080518082018252600281526003602082015290516a185c1c1bda5b9d1b595b9d60aa1b8152600490600b01908152604051908190036020018120673932b1b2b4bb32b960c11b8252906008019081526040519081900360200190206200046391600262000d81565b5060408051602081018252600381529051661c9958d95a5c1d60ca1b81526004906007019081526040519081900360200181206636b0b730b3b2b960c91b825290600701908152604051908190036020019020620004c391600162000d81565b50604080516080810182526000815260016020820152600281830152600360608201529051661c9958d95a5c1d60ca1b8152600490600701908152604051908190036020018120673932b1b2b4bb32b960c11b8252906008019081526040519081900360200190206200012591600462000d81565b6200054262000c37565b6200054e600062000c93565b565b600080604051620005619062000dd6565b604051809103906000f0801580156200057e573d6000803e3d6000fd5b506040517fac5d42cb000000000000000000000000000000000000000000000000000000008152600481018790526001600160a01b03868116602483015291925060009185169063ac5d42cb9060440160206040518083038186803b158015620005e757600080fd5b505afa158015620005fc573d6000803e3d6000fd5b505050506040513d601f19601f8201168201806040525081019062000622919062000fbc565b90506000604051620006349062000de4565b604051809103906000f08015801562000651573d6000803e3d6000fd5b506040517f684ede7f000000000000000000000000000000000000000000000000000000008152600481018990529091506000906001600160a01b0383169063684ede7f90602401602060405180830381600087803b158015620006b457600080fd5b505af1158015620006c9573d6000803e3d6000fd5b505050506040513d601f19601f82011682018060405250810190620006ef919062000fe0565b6040517f5508ff94000000000000000000000000000000000000000000000000000000008152600481018290529091506000906001600160a01b03841690635508ff9490602401600060405180830381600087803b1580156200075157600080fd5b505af115801562000766573d6000803e3d6000fd5b505050506040513d6000823e601f3d908101601f1916820160405262000790919081019062000ea7565b9050600080620007be83600081518110620007af57620007af620013d6565b60200260200101518d62000ac8565b9050620007da83600081518110620007af57620007af620013d6565b8015620007e45750855b156200097c57600060048d604051620007fe91906200125d565b90815260200160405180910390208e6040516200081c91906200125d565b90815260408051918290036020908101832080548083028501830190935282845291908301828280156200087057602002820191906000526020600020905b8154815260200190600101908083116200085b575b505050505090506000845111156200097a576000620008ac856001815181106200089e576200089e620013d6565b602002602001015162000206565b825190915015620009785760005b8251811015620009765781838281518110620008da57620008da620013d6565b6020026020010151141562000961577f1b6ea8e0d7dcdac72505ec85b46a9eaa98bf4c4f90841c401f196ebf8e83dedc60405162000949906020808252600e908201527f416363657373204772616e746564000000000000000000000000000000000000604082015260600190565b60405180910390a1846200095d81620013a2565b9550505b806200096d81620013a2565b915050620008ba565b505b505b505b8162000a1b577f1b6ea8e0d7dcdac72505ec85b46a9eaa98bf4c4f90841c401f196ebf8e83dedc604051620009d2906020808252600d908201526c1058d8d95cdcc811195b9a5959609a1b604082015260600190565b60405180910390a162000a0a6040518060400160405280600d81526020016c1058d8d95cdcc811195b9a5959609a1b81525062000cf0565b600097505050505050505062000a67565b62000a5b6040518060400160405280600e81526020017f416363657373204772616e74656400000000000000000000000000000000000081525062000cf0565b60019750505050505050505b95945050505050565b825160208185018101805160048252928201828701209290528351808501820180519381529082019185019190912091905280548290811062000ab257600080fd5b9060005260206000200160009250925050505481565b60008160405160200162000add91906200125d565b604051602081830303815290604052805190602001208360405160200162000b0691906200125d565b6040516020818303038152906040528051906020012014905092915050565b62000b2f62000c37565b6001600160a01b03811662000bb15760405162461bcd60e51b815260206004820152602660248201527f4f776e61626c653a206e6577206f776e657220697320746865207a65726f206160448201527f646472657373000000000000000000000000000000000000000000000000000060648201526084015b60405180910390fd5b620001258162000c93565b62000c33828260405160240162000bd592919062001290565b60408051601f198184030181529190526020810180517bffffffffffffffffffffffffffffffffffffffffffffffffffffffff167f319af3330000000000000000000000000000000000000000000000000000000017905262000d60565b5050565b6000546001600160a01b031633146200054e5760405162461bcd60e51b815260206004820181905260248201527f4f776e61626c653a2063616c6c6572206973206e6f7420746865206f776e6572604482015260640162000ba8565b600080546001600160a01b0383811673ffffffffffffffffffffffffffffffffffffffff19831681178455604051919092169283917f8be0079c531659141344cd1fd0a4f28419497f9722a3daafe3b4186f6b6457e09190a35050565b620001258160405160240162000d0791906200127b565b60408051601f198184030181529190526020810180517bffffffffffffffffffffffffffffffffffffffffffffffffffffffff167f41304fac000000000000000000000000000000000000000000000000000000001790525b60006a636f6e736f6c652e6c6f679050600080835160208501845afa505050565b82805482825590600052602060002090810192821562000dc4579160200282015b8281111562000dc4578251829060ff1690559160200191906001019062000da2565b5062000dd292915062000df2565b5090565b615cde806200140383390190565b610d7180620070e183390190565b5b8082111562000dd2576000815560010162000df3565b80356001600160a01b038116811462000e2157600080fd5b919050565b600082601f83011262000e3857600080fd5b813562000e4f62000e4982620012f1565b620012bd565b81815284602083860101111562000e6557600080fd5b816020850160208301376000918101602001919091529392505050565b60006020828403121562000e9557600080fd5b62000ea08262000e09565b9392505050565b6000602080838503121562000ebb57600080fd5b825167ffffffffffffffff8082111562000ed457600080fd5b818501915085601f83011262000ee957600080fd5b81518181111562000efe5762000efe620013ec565b8060051b62000f0f858201620012bd565b8281528581019085870183870188018b101562000f2b57600080fd5b600093505b8484101562000fae5780518681111562000f4957600080fd5b8701603f81018c1362000f5b57600080fd5b88810151604062000f7062000e4983620012f1565b8281528e8284860101111562000f8557600080fd5b62000f96838d830184870162001373565b86525050506001939093019291870191870162000f30565b509998505050505050505050565b60006020828403121562000fcf57600080fd5b8151801515811462000ea057600080fd5b60006020828403121562000ff357600080fd5b5051919050565b6000602082840312156200100d57600080fd5b813567ffffffffffffffff8111156200102557600080fd5b620010338482850162000e26565b949350505050565b600080604083850312156200104f57600080fd5b823567ffffffffffffffff808211156200106857600080fd5b620010768683870162000e26565b935060208501359150808211156200108d57600080fd5b506200109c8582860162000e26565b9150509250929050565b600080600060608486031215620010bc57600080fd5b833567ffffffffffffffff80821115620010d557600080fd5b620010e38783880162000e26565b94506020860135915080821115620010fa57600080fd5b50620011098682870162000e26565b925050604084013590509250925092565b600080600080600060a086880312156200113357600080fd5b853567ffffffffffffffff808211156200114c57600080fd5b6200115a89838a0162000e26565b965060208801359150808211156200117157600080fd5b50620011808882890162000e26565b94505060408601359250620011986060870162000e09565b9150620011a86080870162000e09565b90509295509295909350565b60008060008060808587031215620011cb57600080fd5b843567ffffffffffffffff80821115620011e457600080fd5b620011f28883890162000e26565b955060208701359150808211156200120957600080fd5b50620012188782880162000e26565b949794965050505060408301359260600135919050565b600081518084526200124981602086016020860162001373565b601f01601f19169290920160200192915050565b600082516200127181846020870162001373565b9190910192915050565b60208152600062000ea060208301846200122f565b604081526000620012a560408301856200122f565b90506001600160a01b03831660208301529392505050565b604051601f8201601f1916810167ffffffffffffffff81118282101715620012e957620012e9620013ec565b604052919050565b600067ffffffffffffffff8211156200130e576200130e620013ec565b50601f01601f191660200190565b60008219821115620013325762001332620013c0565b500190565b6000816000190483118215151615620013545762001354620013c0565b500290565b6000828210156200136e576200136e620013c0565b500390565b60005b838110156200139057818101518382015260200162001376565b83811115620001bb5750506000910152565b6000600019821415620013b957620013b9620013c0565b5060010190565b634e487b7160e01b600052601160045260246000fd5b634e487b7160e01b600052603260045260246000fd5b634e487b7160e01b600052604160045260246000fdfe608060405234801561001057600080fd5b50615cbe806100206000396000f3fe60806040523480156200001157600080fd5b50600436106200007b5760003560e01c8063e320cb3c1162000056578063e320cb3c146200013c578063e9a734ff1462000153578063f52e8fd0146200016a57600080fd5b80633678d55514620000805780634427673314620000c8578063ccf0bd521462000114575b600080fd5b620000c66200009136600462000d08565b506001600160a01b03166000908152602081905260409020805473ffffffffffffffffffffffffffffffffffffffff19169055565b005b620000f7620000d936600462000ce1565b6001600160a01b039081166000908152602081905260409020541690565b6040516001600160a01b0390911681526020015b60405180910390f35b6200012b6200012536600462000d08565b62000181565b60405190151581526020016200010b565b6200012b6200014d36600462000ce1565b620001bc565b6200012b6200016436600462000df5565b620003a0565b620000f76200017b36600462000d46565b620003fd565b6001600160a01b03828116600090815260208190526040812054909183811691161415620001b257506001620001b6565b5060005b92915050565b6000805b600154811015620001b257826001600160a01b031660018281548110620001eb57620001eb62000f6f565b6000918252602090912001546001600160a01b03161480156200033c57506200033c6001828154811062000223576200022362000f6f565b6000918252602082200154604080517f17d7de7c00000000000000000000000000000000000000000000000000000000815290516001600160a01b03909216926317d7de7c92600480840193829003018186803b1580156200028457600080fd5b505afa15801562000299573d6000803e3d6000fd5b505050506040513d6000823e601f3d908101601f19168201604052620002c3919081019062000d75565b846001600160a01b03166317d7de7c6040518163ffffffff1660e01b815260040160006040518083038186803b158015620002fd57600080fd5b505afa15801562000312573d6000803e3d6000fd5b505050506040513d6000823e601f3d908101601f1916820160405262000164919081019062000d75565b156200038b57620003826040518060400160405280600a81526020017f494e4e4e4e20545255450000000000000000000000000000000000000000000081525062000b8a565b50600192915050565b80620003978162000f45565b915050620001c0565b600081604051602001620003b5919062000e60565b6040516020818303038152906040528051906020012083604051602001620003de919062000e60565b6040516020818303038152906040528051906020012014905092915050565b600080826200050357604051620004149062000c23565b604051809103906000f08015801562000431573d6000803e3d6000fd5b509050620004746040518060400160405280602081526020017f526563656976657220526f6c6520616464656420746f20656d706c6f7965652081525062000b8a565b60405163c47f002760e01b815260206004820152600860248201527f526563696576657200000000000000000000000000000000000000000000000060448201526001600160a01b0382169063c47f002790606401600060405180830381600087803b158015620004e457600080fd5b505af1158015620004f9573d6000803e3d6000fd5b5050505062000add565b82600114156200060b576040516200051b9062000c31565b604051809103906000f08015801562000538573d6000803e3d6000fd5b5060405163c47f002760e01b815260206004820152600860248201527f537570706c69657200000000000000000000000000000000000000000000000060448201529091506001600160a01b0382169063c47f002790606401600060405180830381600087803b158015620005ac57600080fd5b505af1158015620005c1573d6000803e3d6000fd5b50505050620006056040518060400160405280602081526020017f537570706c69657220526f6c6520616464656420746f20656d706c6f7965652081525062000b8a565b62000add565b82600214156200070d57604051620006239062000c3f565b604051809103906000f08015801562000640573d6000803e3d6000fd5b5060405163c47f002760e01b815260206004820152600760248201527f507574617761790000000000000000000000000000000000000000000000000060448201529091506001600160a01b0382169063c47f002790606401600060405180830381600087803b158015620006b457600080fd5b505af1158015620006c9573d6000803e3d6000fd5b50505050620006056040518060400160405280601f81526020017f5075746177617920526f6c6520616464656420746f20656d706c6f796565200081525062000b8a565b82600314156200080f57604051620007259062000c4d565b604051809103906000f08015801562000742573d6000803e3d6000fd5b5060405163c47f002760e01b815260206004820152600660248201527f5069636b6572000000000000000000000000000000000000000000000000000060448201529091506001600160a01b0382169063c47f002790606401600060405180830381600087803b158015620007b657600080fd5b505af1158015620007cb573d6000803e3d6000fd5b50505050620006056040518060400160405280601e81526020017f5069636b657220526f6c6520616464656420746f20656d706c6f79656520000081525062000b8a565b8260041415620008f557604051620008279062000c5b565b604051809103906000f08015801562000844573d6000803e3d6000fd5b5060405163c47f002760e01b815260206004820152600b60248201527f5472616e73706f7274657200000000000000000000000000000000000000000060448201529091506001600160a01b0382169063c47f002790606401600060405180830381600087803b158015620008b857600080fd5b505af1158015620008cd573d6000803e3d6000fd5b505050506200060560405180606001604052806023815260200162005c456023913962000b8a565b8260051415620009db576040516200090d9062000c69565b604051809103906000f0801580156200092a573d6000803e3d6000fd5b5060405163c47f002760e01b815260206004820152600760248201527f41756469746f720000000000000000000000000000000000000000000000000060448201529091506001600160a01b0382169063c47f002790606401600060405180830381600087803b1580156200099e57600080fd5b505af1158015620009b3573d6000803e3d6000fd5b505050506200060560405180606001604052806021815260200162005c686021913962000b8a565b826006141562000add57604051620009f39062000c77565b604051809103906000f08015801562000a10573d6000803e3d6000fd5b5060405163c47f002760e01b815260206004820152600760248201527f4d616e616765720000000000000000000000000000000000000000000000000060448201529091506001600160a01b0382169063c47f002790606401600060405180830381600087803b15801562000a8457600080fd5b505af115801562000a99573d6000803e3d6000fd5b5050505062000add6040518060400160405280601f81526020017f4d616e6167657220526f6c6520616464656420746f20656d706c6f796565200081525062000b8a565b6001600160a01b03848116600090815260208181526040808320805494861673ffffffffffffffffffffffffffffffffffffffff19958616811790915560018054808201825594527fb10e2d527612073b26eecdfd717e6a320cf44b4afac2b0732d9fcbe2b7fa0cf69093018054909416831790935591519081527f6451a5506fe934e3a0965227964e8e9f27e502b8fac30293d7ad0794db62de04910160405180910390a19392505050565b62000bff8160405160240162000ba1919062000e7e565b60408051601f198184030181529190526020810180517bffffffffffffffffffffffffffffffffffffffffffffffffffffffff167f41304fac0000000000000000000000000000000000000000000000000000000017905262000c02565b50565b60006a636f6e736f6c652e6c6f679050600080835160208501845afa505050565b6116f68062000fb283390190565b61115580620026a883390190565b61094280620037fd83390190565b61094a806200413f83390190565b61068a8062004a8983390190565b61063e806200511383390190565b6104f4806200575183390190565b600082601f83011262000c9757600080fd5b813562000cae62000ca88262000ee7565b62000eb3565b81815284602083860101111562000cc457600080fd5b816020850160208301376000918101602001919091529392505050565b60006020828403121562000cf457600080fd5b813562000d018162000f9b565b9392505050565b6000806040838503121562000d1c57600080fd5b823562000d298162000f9b565b9150602083013562000d3b8162000f9b565b809150509250929050565b6000806040838503121562000d5a57600080fd5b823562000d678162000f9b565b946020939093013593505050565b60006020828403121562000d8857600080fd5b815167ffffffffffffffff81111562000da057600080fd5b8201601f8101841362000db257600080fd5b805162000dc362000ca88262000ee7565b81815285602083850101111562000dd957600080fd5b62000dec82602083016020860162000f12565b95945050505050565b6000806040838503121562000e0957600080fd5b823567ffffffffffffffff8082111562000e2257600080fd5b62000e308683870162000c85565b9350602085013591508082111562000e4757600080fd5b5062000e568582860162000c85565b9150509250929050565b6000825162000e7481846020870162000f12565b9190910192915050565b602081526000825180602084015262000e9f81604085016020870162000f12565b601f01601f19169190910160400192915050565b604051601f8201601f1916810167ffffffffffffffff8111828210171562000edf5762000edf62000f85565b604052919050565b600067ffffffffffffffff82111562000f045762000f0462000f85565b50601f01601f191660200190565b60005b8381101562000f2f57818101518382015260200162000f15565b8381111562000f3f576000848401525b50505050565b600060001982141562000f6857634e487b7160e01b600052601160045260246000fd5b5060010190565b634e487b7160e01b600052603260045260246000fd5b634e487b7160e01b600052604160045260246000fd5b6001600160a01b038116811462000bff57600080fdfe60c060405260086080819052672932b1b2b4bb32b960c11b60a09081526200002b916003919062000077565b506022600455604080518082019091526008808252673932b1b2b4bb32b960c11b6020909201918252620000629160059162000077565b503480156200007057600080fd5b506200015a565b82805462000085906200011d565b90600052602060002090601f016020900481019282620000a95760008555620000f4565b82601f10620000c457805160ff1916838001178555620000f4565b82800160010185558215620000f4579182015b82811115620000f4578251825591602001919060010190620000d7565b506200010292915062000106565b5090565b5b8082111562000102576000815560010162000107565b600181811c908216806200013257607f821691505b602082108114156200015457634e487b7160e01b600052602260045260246000fd5b50919050565b61158c806200016a6000396000f3fe60806040523480156200001157600080fd5b5060043610620000b05760003560e01c806354149d91116200007f578063c47f00271162000062578063c47f0027146200018f578063d3f1fffe14620001a6578063d9660e4714620001bd57600080fd5b806354149d91146200016e5780635633ff3b146200017857600080fd5b8063150b7a0214620000b557806317d7de7c14620001255780631f2cd65d146200013e5780632d97c44e1462000157575b600080fd5b620000ef620000c636600462000807565b7f150b7a0200000000000000000000000000000000000000000000000000000000949350505050565b6040517fffffffff0000000000000000000000000000000000000000000000000000000090911681526020015b60405180910390f35b6200012f620001c7565b6040516200011c919062000a69565b620001556200014f366004620009c5565b62000261565b005b62000155620001683660046200093a565b6200029d565b6200015562000435565b6200015562000189366004620008f1565b6200049f565b62000155620001a0366004620008b0565b620004f2565b62000155620001b7366004620009df565b6200050b565b6200012f6200067e565b606060008054620001d89062000dba565b80601f0160208091040260200160405190810160405280929190818152602001828054620002069062000dba565b8015620002575780601f106200022b5761010080835404028352916020019162000257565b820191906000526020600020905b8154815290600101906020018083116200023957829003601f168201915b5050505050905090565b7ffc105aa3a2816d1f39d6bf9b31145f561ac343e4780f7a0b379bda6bd76e31548160405162000292919062000ccf565b60405180910390a150565b60408051808201825260078152661c9958d95a5c1d60ca1b60208201529051631e8ace0360e21b81526001600160a01b03851690637a2b380c90620002f09060059085908a9088908a9060040162000a7e565b602060405180830381600087803b1580156200030b57600080fd5b505af115801562000320573d6000803e3d6000fd5b505050506040513d601f19601f820116820180604052508101906200034691906200088c565b6006805460ff1916911515918217905560ff1615620003f05760006040516200036f906200068f565b6020808252600890820152675265736f7572636560c01b6040820152606001604051809103906000f080158015620003ab573d6000803e3d6000fd5b5090507fc4ee048c655373907d8072f3c33c1b8dc8d7af3f13ebaeff2237e2249c9fdb508888604051620003e192919062000b73565b60405180910390a1506200042c565b7fc4ee048c655373907d8072f3c33c1b8dc8d7af3f13ebaeff2237e2249c9fdb5087876040516200042392919062000d3e565b60405180910390a15b50505050505050565b7f74a5a67cb88c288543bf9797ae0b8f66bdee8293c350a17bcb110606b1a2bad8604051620004959060208082526014908201527f4170706f696e746d656e7420417070726f766564000000000000000000000000604082015260600190565b60405180910390a1565b6040805180820182528381526020810183905290517f398a0c7c931cca0afdf2ecd784463e3b38b8e99a34e0f7b095f2da82b34fd6af90620004e5908590859062000c49565b60405180910390a1505050565b8051620005079060009060208401906200069d565b5050565b60408051808201825260078152661c9958d95a5c1d60ca1b60208201529051631e8ace0360e21b81526001600160a01b03841690637a2b380c906200055e9060059085908a9088908b9060040162000a7e565b602060405180830381600087803b1580156200057957600080fd5b505af11580156200058e573d6000803e3d6000fd5b505050506040513d601f19601f82011682018060405250810190620005b491906200088c565b6006805460ff1916911515918217905560ff16156200064d576000604051620005dd906200068f565b6020808252600890820152675265736f7572636560c01b6040820152606001604051809103906000f08015801562000619573d6000803e3d6000fd5b5090507fc4ee048c655373907d8072f3c33c1b8dc8d7af3f13ebaeff2237e2249c9fdb5088604051620003e1919062000bd5565b7fc4ee048c655373907d8072f3c33c1b8dc8d7af3f13ebaeff2237e2249c9fdb508760405162000423919062000d7c565b606060058054620001d89062000dba565b6107498062000e0e83390190565b828054620006ab9062000dba565b90600052602060002090601f016020900481019282620006cf57600085556200071a565b82601f10620006ea57805160ff19168380011785556200071a565b828001600101855582156200071a579182015b828111156200071a578251825591602001919060010190620006fd565b50620007289291506200072c565b5090565b5b808211156200072857600081556001016200072d565b600067ffffffffffffffff8084111562000761576200076162000df7565b604051601f8501601f19908116603f011681019082821181831017156200078c576200078c62000df7565b81604052809350858152868686011115620007a657600080fd5b858560208301376000602087830101525050509392505050565b80356001600160a01b0381168114620007d857600080fd5b919050565b600082601f830112620007ef57600080fd5b620008008383356020850162000743565b9392505050565b600080600080608085870312156200081e57600080fd5b6200082985620007c0565b93506200083960208601620007c0565b925060408501359150606085013567ffffffffffffffff8111156200085d57600080fd5b8501601f810187136200086f57600080fd5b620008808782356020840162000743565b91505092959194509250565b6000602082840312156200089f57600080fd5b815180151581146200080057600080fd5b600060208284031215620008c357600080fd5b813567ffffffffffffffff811115620008db57600080fd5b620008e984828501620007dd565b949350505050565b600080604083850312156200090557600080fd5b823567ffffffffffffffff8111156200091d57600080fd5b6200092b85828601620007dd565b95602094909401359450505050565b60008060008060008060c087890312156200095457600080fd5b863567ffffffffffffffff8111156200096c57600080fd5b6200097a89828a01620007dd565b96505060208701359450604087013593506200099960608801620007c0565b9250620009a960808801620007c0565b9150620009b960a08801620007c0565b90509295509295509295565b600060208284031215620009d857600080fd5b5035919050565b60008060008060008060c08789031215620009f957600080fd5b8635955060208701359450604087013593506200099960608801620007c0565b6000815180845260005b8181101562000a415760208185018101518683018201520162000a23565b8181111562000a54576000602083870101525b50601f01601f19169290920160200192915050565b60208152600062000800602083018462000a19565b60a08152600080875481600182811c91508083168062000a9f57607f831692505b602080841082141562000ac057634e487b7160e01b86526022600452602486fd5b60a0880184905260c0880182801562000ae2576001811462000af45762000b21565b60ff1987168252828201975062000b21565b60008f81526020902060005b8781101562000b1b5781548482015290860190840162000b00565b83019850505b505087860381890152505050505062000b3b818862000a19565b91505084604083015262000b5a60608301856001600160a01b03169052565b6001600160a01b03831660808301529695505050505050565b60608152600062000bb160608301600f81527f5265636569707420437265617465640000000000000000000000000000000000602082015260400190565b828103602084015262000bc5818662000a19565b9150508260408301529392505050565b60608152600062000c1360608301600f81527f5265636569707420437265617465640000000000000000000000000000000000602082015260400190565b828103602084015262000c3a8160078152661c9958d95a5c1d60ca1b602082015260400190565b91505082604083015292915050565b60808152600062000c73608083016009815268526563656976696e6760b81b602082015260400190565b828103806020850152600d82527f4974656d2052656365697665640000000000000000000000000000000000000060208301526040810160408501525062000cbf604082018662000a19565b9150508260608301529392505050565b60608152600062000cf9606083016009815268526563656976696e6760b81b602082015260400190565b8281036020840152602081527f4974656d20616464656420746f2020496e76656e746f7279205265636f72642060208201526040810191505082604083015292915050565b60608152600062000bb160608301601381527f52656365697074204e6f74204372656174656400000000000000000000000000602082015260400190565b60608152600062000c1360608301601381527f52656365697074204e6f74204372656174656400000000000000000000000000602082015260400190565b600181811c9082168062000dcf57607f821691505b6020821081141562000df157634e487b7160e01b600052602260045260246000fd5b50919050565b634e487b7160e01b600052604160045260246000fdfe6080604052604051610749380380610749833981016040819052610022916100d5565b805161003590600090602084019061003c565b50506101f5565b828054610048906101a4565b90600052602060002090601f01602090048101928261006a57600085556100b0565b82601f1061008357805160ff19168380011785556100b0565b828001600101855582156100b0579182015b828111156100b0578251825591602001919060010190610095565b506100bc9291506100c0565b5090565b5b808211156100bc57600081556001016100c1565b600060208083850312156100e857600080fd5b82516001600160401b03808211156100ff57600080fd5b818501915085601f83011261011357600080fd5b815181811115610125576101256101df565b604051601f8201601f19908116603f0116810190838211818310171561014d5761014d6101df565b81604052828152888684870101111561016557600080fd5b600093505b82841015610187578484018601518185018701529285019261016a565b828411156101985760008684830101525b98975050505050505050565b600181811c908216806101b857607f821691505b602082108114156101d957634e487b7160e01b600052602260045260246000fd5b50919050565b634e487b7160e01b600052604160045260246000fd5b610545806102046000396000f3fe608060405234801561001057600080fd5b50600436106100675760003560e01c8063bfe120ed11610050578063bfe120ed146100ad578063c3a6eb35146100ad578063decc86e5146100ad57600080fd5b806317d7de7c1461006c5780637f87f7351461008a575b600080fd5b6100746100c3565b6040516100819190610469565b60405180910390f35b61009d610098366004610339565b610155565b6040519015158152602001610081565b6100c16100bb3660046103d7565b50505050565b005b6060600080546100d2906104be565b80601f01602080910402602001604051908101604052809291908181526020018280546100fe906104be565b801561014b5780601f106101205761010080835404028352916020019161014b565b820191906000526020600020905b81548152906001019060200180831161012e57829003601f168201915b5050505050905090565b6001546040517f255efb7000000000000000000000000000000000000000000000000000000000815233600482015260806024820152600d608482018190527f73616d706c65776f746e616d650000000000000000000000000000000000000060a483015260c06044830152601460c48301527f73616d706c65776f746465736372697074696f6e00000000000000000000000060e483015261010060648301526101048201527f73616d706c65776f74737065630000000000000000000000000000000000000061012482015260009173ffffffffffffffffffffffffffffffffffffffff169063255efb709061014401600060405180830381600087803b15801561026157600080fd5b505af1158015610275573d6000803e3d6000fd5b505050509695505050505050565b803573ffffffffffffffffffffffffffffffffffffffff811681146102a757600080fd5b919050565b600082601f8301126102bd57600080fd5b813567ffffffffffffffff808211156102d8576102d86104f9565b604051601f8301601f19908116603f01168101908282118183101715610300576103006104f9565b8160405283815286602085880101111561031957600080fd5b836020870160208301376000602085830101528094505050505092915050565b60008060008060008060c0878903121561035257600080fd5b863567ffffffffffffffff8082111561036a57600080fd5b6103768a838b016102ac565b9750602089013591508082111561038c57600080fd5b5061039989828a016102ac565b955050604087013593506103af60608801610283565b92506103bd60808801610283565b91506103cb60a08801610283565b90509295509295509295565b600080600080608085870312156103ed57600080fd5b843567ffffffffffffffff8082111561040557600080fd5b610411888389016102ac565b9550602087013591508082111561042757600080fd5b610433888389016102ac565b945060408701359350606087013591508082111561045057600080fd5b5061045d878288016102ac565b91505092959194509250565b600060208083528351808285015260005b818110156104965785810183015185820160400152820161047a565b818111156104a8576000604083870101525b50601f01601f1916929092016040019392505050565b600181811c908216806104d257607f821691505b602082108114156104f357634e487b7160e01b600052602260045260246000fd5b50919050565b634e487b7160e01b600052604160045260246000fdfea2646970667358221220e1efdb1e59092cbadc635025ceedd71d1ec18c163a8c1df9662eec61cb1527ce64736f6c63430008070033a26469706673582212201d49aeaecaddd01855a4b318785ee71daa50a1e4ad321895fdd6d7b234ee4e1164736f6c6343000807003360c0604052600860808190526739bab8383634b2b960c11b60a09081526100299160019190610046565b506002805460ff1916905534801561004057600080fd5b5061011a565b828054610052906100df565b90600052602060002090601f01602090048101928261007457600085556100ba565b82601f1061008d57805160ff19168380011785556100ba565b828001600101855582156100ba579182015b828111156100ba57825182559160200191906001019061009f565b506100c69291506100ca565b5090565b5b808211156100c657600081556001016100cb565b600181811c908216806100f357607f821691505b6020821081141561011457634e487b7160e01b600052602260045260246000fd5b50919050565b61102c806101296000396000f3fe608060405234801561001057600080fd5b506004361061007d5760003560e01c806340fc05021161005b57806340fc0502146101125780636daed60f1461012857806371c0784614610161578063c47f00271461017657600080fd5b8063150b7a021461008257806317d7de7c146100ef57806332a2c5d014610104575b600080fd5b6100b96100903660046105a4565b7f150b7a0200000000000000000000000000000000000000000000000000000000949350505050565b6040517fffffffff0000000000000000000000000000000000000000000000000000000090911681526020015b60405180910390f35b6100f7610189565b6040516100e69190610745565b6040513081526020016100e6565b60025460ff1660405190151581526020016100e6565b60408051808201909152600f81527f4d616e61676520537570706c696573000000000000000000000000000000000060208201526100f7565b61017461016f36600461067f565b61021b565b005b610174610184366004610642565b610421565b6060600080546101989061085c565b80601f01602080910402602001604051908101604052809291908181526020018280546101c49061085c565b80156102115780601f106101e657610100808354040283529160200191610211565b820191906000526020600020905b8154815290600101906020018083116101f457829003601f168201915b5050505050905090565b6040517f7a2b380c00000000000000000000000000000000000000000000000000000000815260009073ffffffffffffffffffffffffffffffffffffffff851690637a2b380c906102799060019089908b9088908a90600401610758565b602060405180830381600087803b15801561029357600080fd5b505af11580156102a7573d6000803e3d6000fd5b505050506040513d601f19601f820116820180604052508101906102cb9190610620565b6002805460ff1916911515918217905560ff16156103b1577f632ffaf40ef2398c05c9bb440e5a4be6f0838331c77764fc7451b8c73e3964c36040516103429060208082526013908201527f4170706f696e746d656e74204372656174656400000000000000000000000000604082015260600190565b60405180910390a1600060405161035890610438565b60208082526008908201527f5265736f757263650000000000000000000000000000000000000000000000006040820152606001604051809103906000f0801580156103a8573d6000803e3d6000fd5b50905050610419565b7f632ffaf40ef2398c05c9bb440e5a4be6f0838331c77764fc7451b8c73e3964c36040516104109060208082526017908201527f4170706f696e746d656e74204e6f742043726561746564000000000000000000604082015260600190565b60405180910390a15b505050505050565b8051610434906000906020840190610445565b5050565b610749806108ae83390190565b8280546104519061085c565b90600052602060002090601f01602090048101928261047357600085556104b9565b82601f1061048c57805160ff19168380011785556104b9565b828001600101855582156104b9579182015b828111156104b957825182559160200191906001019061049e565b506104c59291506104c9565b5090565b5b808211156104c557600081556001016104ca565b600067ffffffffffffffff808411156104f9576104f9610897565b604051601f8501601f19908116603f0116810190828211818310171561052157610521610897565b8160405280935085815286868601111561053a57600080fd5b858560208301376000602087830101525050509392505050565b803573ffffffffffffffffffffffffffffffffffffffff8116811461057857600080fd5b919050565b600082601f83011261058e57600080fd5b61059d838335602085016104de565b9392505050565b600080600080608085870312156105ba57600080fd5b6105c385610554565b93506105d160208601610554565b925060408501359150606085013567ffffffffffffffff8111156105f457600080fd5b8501601f8101871361060557600080fd5b610614878235602084016104de565b91505092959194509250565b60006020828403121561063257600080fd5b8151801515811461059d57600080fd5b60006020828403121561065457600080fd5b813567ffffffffffffffff81111561066b57600080fd5b6106778482850161057d565b949350505050565b600080600080600060a0868803121561069757600080fd5b85359450602086013567ffffffffffffffff8111156106b557600080fd5b6106c18882890161057d565b9450506106d060408701610554565b92506106de60608701610554565b91506106ec60808701610554565b90509295509295909350565b6000815180845260005b8181101561071e57602081850181015186830182015201610702565b81811115610730576000602083870101525b50601f01601f19169290920160200192915050565b60208152600061059d60208301846106f8565b60a08152600080875481600182811c91508083168061077857607f831692505b602080841082141561079857634e487b7160e01b86526022600452602486fd5b60a0880184905260c088018280156107b757600181146107c8576107f3565b60ff198716825282820197506107f3565b60008f81526020902060005b878110156107ed578154848201529086019084016107d4565b83019850505b505087860381890152505050505061080b81886106f8565b915050846040830152610836606083018573ffffffffffffffffffffffffffffffffffffffff169052565b73ffffffffffffffffffffffffffffffffffffffff831660808301529695505050505050565b600181811c9082168061087057607f821691505b6020821081141561089157634e487b7160e01b600052602260045260246000fd5b50919050565b634e487b7160e01b600052604160045260246000fdfe6080604052604051610749380380610749833981016040819052610022916100d5565b805161003590600090602084019061003c565b50506101f5565b828054610048906101a4565b90600052602060002090601f01602090048101928261006a57600085556100b0565b82601f1061008357805160ff19168380011785556100b0565b828001600101855582156100b0579182015b828111156100b0578251825591602001919060010190610095565b506100bc9291506100c0565b5090565b5b808211156100bc57600081556001016100c1565b600060208083850312156100e857600080fd5b82516001600160401b03808211156100ff57600080fd5b818501915085601f83011261011357600080fd5b815181811115610125576101256101df565b604051601f8201601f19908116603f0116810190838211818310171561014d5761014d6101df565b81604052828152888684870101111561016557600080fd5b600093505b82841015610187578484018601518185018701529285019261016a565b828411156101985760008684830101525b98975050505050505050565b600181811c908216806101b857607f821691505b602082108114156101d957634e487b7160e01b600052602260045260246000fd5b50919050565b634e487b7160e01b600052604160045260246000fd5b610545806102046000396000f3fe608060405234801561001057600080fd5b50600436106100675760003560e01c8063bfe120ed11610050578063bfe120ed146100ad578063c3a6eb35146100ad578063decc86e5146100ad57600080fd5b806317d7de7c1461006c5780637f87f7351461008a575b600080fd5b6100746100c3565b6040516100819190610469565b60405180910390f35b61009d610098366004610339565b610155565b6040519015158152602001610081565b6100c16100bb3660046103d7565b50505050565b005b6060600080546100d2906104be565b80601f01602080910402602001604051908101604052809291908181526020018280546100fe906104be565b801561014b5780601f106101205761010080835404028352916020019161014b565b820191906000526020600020905b81548152906001019060200180831161012e57829003601f168201915b5050505050905090565b6001546040517f255efb7000000000000000000000000000000000000000000000000000000000815233600482015260806024820152600d608482018190527f73616d706c65776f746e616d650000000000000000000000000000000000000060a483015260c06044830152601460c48301527f73616d706c65776f746465736372697074696f6e00000000000000000000000060e483015261010060648301526101048201527f73616d706c65776f74737065630000000000000000000000000000000000000061012482015260009173ffffffffffffffffffffffffffffffffffffffff169063255efb709061014401600060405180830381600087803b15801561026157600080fd5b505af1158015610275573d6000803e3d6000fd5b505050509695505050505050565b803573ffffffffffffffffffffffffffffffffffffffff811681146102a757600080fd5b919050565b600082601f8301126102bd57600080fd5b813567ffffffffffffffff808211156102d8576102d86104f9565b604051601f8301601f19908116603f01168101908282118183101715610300576103006104f9565b8160405283815286602085880101111561031957600080fd5b836020870160208301376000602085830101528094505050505092915050565b60008060008060008060c0878903121561035257600080fd5b863567ffffffffffffffff8082111561036a57600080fd5b6103768a838b016102ac565b9750602089013591508082111561038c57600080fd5b5061039989828a016102ac565b955050604087013593506103af60608801610283565b92506103bd60808801610283565b91506103cb60a08801610283565b90509295509295509295565b600080600080608085870312156103ed57600080fd5b843567ffffffffffffffff8082111561040557600080fd5b610411888389016102ac565b9550602087013591508082111561042757600080fd5b610433888389016102ac565b945060408701359350606087013591508082111561045057600080fd5b5061045d878288016102ac565b91505092959194509250565b600060208083528351808285015260005b818110156104965785810183015185820160400152820161047a565b818111156104a8576000604083870101525b50601f01601f1916929092016040019392505050565b600181811c908216806104d257607f821691505b602082108114156104f357634e487b7160e01b600052602260045260246000fd5b50919050565b634e487b7160e01b600052604160045260246000fdfea2646970667358221220e1efdb1e59092cbadc635025ceedd71d1ec18c163a8c1df9662eec61cb1527ce64736f6c63430008070033a2646970667358221220e292fc13f31534f19b4557c723142e5e34ddba989727957deae31993cfb439f764736f6c63430008070033608060405261014860015534801561001657600080fd5b5061091c806100266000396000f3fe608060405234801561001057600080fd5b50600436106100885760003560e01c8063655ae7571161005b578063655ae757146101325780639288f39b14610153578063a89060b51461018c578063c47f00271461019f57600080fd5b8063150b7a021461008d57806317d7de7c146100fa57806332a2c5d01461010f5780633865419d1461011d575b600080fd5b6100c461009b3660046105c7565b7f150b7a0200000000000000000000000000000000000000000000000000000000949350505050565b6040517fffffffff0000000000000000000000000000000000000000000000000000000090911681526020015b60405180910390f35b6101026101b2565b6040516100f191906106fa565b6040513081526020016100f1565b61013061012b366004610694565b610244565b005b610145610140366004610694565b6102f9565b6040519081526020016100f1565b60408051808201909152601181527f5075746177617920496e76656e746f72790000000000000000000000000000006020820152610102565b61014561019a366004610694565b61039f565b6101306101ad366004610643565b6103dd565b6060600080546101c19061086e565b80601f01602080910402602001604051908101604052809291908181526020018280546101ed9061086e565b801561023a5780601f1061020f5761010080835404028352916020019161023a565b820191906000526020600020905b81548152906001019060200180831161021d57829003601f168201915b5050505050905090565b7fdaba19858a22edacfa1779f209a5839dbb453f89179c1b1cb01659214a7dba0881826001546102749190610848565b6040805160808082526007908201527f53746f726167650000000000000000000000000000000000000000000000000060a082015260c0602082018190526016908201527f41737365742053746f7265642041737365742069643a0000000000000000000060e08201529081019290925260608201526101000160405180910390a150565b60006103536040518060400160405280600a81526020017f507574776179203a3a20000000000000000000000000000000000000000000008152506040518060600160405280602781526020016108c060279139846103f4565b7f71295a8ca7edb10bdadb44e91d62ba27fca14dfca9297038aa0c6eb9d356ddb3826001546103829190610848565b60405161038f91906107dc565b60405180910390a1505060015490565b60007f793ebedd91cf63afbb4413bec8dac9d37523c0a038a9d73c6b813bad68d1b206826040516103d0919061074a565b60405180910390a1919050565b80516103f090600090602084019061048f565b5050565b61046983838360405160240161040c93929190610714565b60408051601f198184030181529190526020810180517bffffffffffffffffffffffffffffffffffffffffffffffffffffffff167f5821efa10000000000000000000000000000000000000000000000000000000017905261046e565b505050565b60006a636f6e736f6c652e6c6f679050600080835160208501845afa505050565b82805461049b9061086e565b90600052602060002090601f0160209004810192826104bd5760008555610503565b82601f106104d657805160ff1916838001178555610503565b82800160010185558215610503579182015b828111156105035782518255916020019190600101906104e8565b5061050f929150610513565b5090565b5b8082111561050f5760008155600101610514565b600067ffffffffffffffff80841115610543576105436108a9565b604051601f8501601f19908116603f0116810190828211818310171561056b5761056b6108a9565b8160405280935085815286868601111561058457600080fd5b858560208301376000602087830101525050509392505050565b803573ffffffffffffffffffffffffffffffffffffffff811681146105c257600080fd5b919050565b600080600080608085870312156105dd57600080fd5b6105e68561059e565b93506105f46020860161059e565b925060408501359150606085013567ffffffffffffffff81111561061757600080fd5b8501601f8101871361062857600080fd5b61063787823560208401610528565b91505092959194509250565b60006020828403121561065557600080fd5b813567ffffffffffffffff81111561066c57600080fd5b8201601f8101841361067d57600080fd5b61068c84823560208401610528565b949350505050565b6000602082840312156106a657600080fd5b5035919050565b6000815180845260005b818110156106d3576020818501810151868301820152016106b7565b818111156106e5576000602083870101525b50601f01601f19169290920160200192915050565b60208152600061070d60208301846106ad565b9392505050565b60608152600061072760608301866106ad565b828103602084015261073981866106ad565b915050826040830152949350505050565b6060815260006107716060830160078152665075746177617960c81b602082015260400190565b8281036020840152602c81527f53746f72616765205265706f7274205570646174653a2041737365742041646460208201527f656420417373657420696420000000000000000000000000000000000000000060408201526060810191505082604083015292915050565b6060815260006108036060830160078152665075746177617960c81b602082015260400190565b8281036020840152600e81527f46726565205261636b204e6f2e2000000000000000000000000000000000000060208201526040810191505082604083015292915050565b6000821982111561086957634e487b7160e01b600052601160045260246000fd5b500190565b600181811c9082168061088257607f821691505b602082108114156108a357634e487b7160e01b600052602260045260246000fd5b50919050565b634e487b7160e01b600052604160045260246000fdfe526571756573742053746f72616765204c6f636174696f6e20666f722041737365742049643a20a2646970667358221220a8727f68e2b6da6e9f77c75ea181f835f98c48cbae7a24283214f54132a4fb1c64736f6c63430008070033608060405261014860015534801561001657600080fd5b50610924806100266000396000f3fe608060405234801561001057600080fd5b50600436106100c95760003560e01c80631fd3639b11610081578063a89060b51161005b578063a89060b5146101e5578063c47f0027146101f8578063ec16a6af1461020b57600080fd5b80631fd3639b146101b157806332a2c5d0146101c457806397bab12f146101d257600080fd5b806317d7de7c116100b257806317d7de7c146101505780631cd34347146101655780631f2cd65d1461019e57600080fd5b806303a638e5146100ce578063150b7a02146100e3575b600080fd5b6100e16100dc3660046106cf565b61021e565b005b61011a6100f1366004610602565b7f150b7a0200000000000000000000000000000000000000000000000000000000949350505050565b6040517fffffffff0000000000000000000000000000000000000000000000000000000090911681526020015b60405180910390f35b6101586102bf565b60405161014791906106e8565b60408051808201909152600e81527f5069636b20496e76656e746f72790000000000000000000000000000000000006020820152610158565b6100e16101ac3660046106cf565b610351565b6100e16101bf3660046106cf565b610380565b604051308152602001610147565b6100e16101e03660046106cf565b6103ac565b6100e16101f33660046106cf565b610446565b6100e161020636600461067e565b610475565b6100e16102193660046106cf565b61048c565b6040805160608082526007908201527f5061636b696e6700000000000000000000000000000000000000000000000000608082015260a060208201819052601b908201527f496e76656e746f7279205061636b6564204173736574204964203a000000000060c08201529081018290527fc57fe612d7b32b5a0c9de84cc9e411bd87aa0acee51d87341343a7606c6f28d59060e0015b60405180910390a150565b6060600080546102ce9061089d565b80601f01602080910402602001604051908101604052809291908181526020018280546102fa9061089d565b80156103475780601f1061031c57610100808354040283529160200191610347565b820191906000526020600020905b81548152906001019060200180831161032a57829003601f168201915b5050505050905090565b7f57a4e806546685802b89cc251949cd35162a36cceb14853290289723210ba93c816040516102b49190610842565b6040517f920a784f8539e7a38804b579f1af1be102b6085a55b73857d2ec5a53230b94c790600090a150565b6040805160608082526007908201527f53746f7261676500000000000000000000000000000000000000000000000000608082015260a060208201819052601d908201527f4f7264657220526563656976656420666f722041737365742049643a2000000060c08201529081018290527fb4af109ce109b00e1351d01065ff54d94352b2fe8791baeaaa4ed250ece5fa9b9060e0016102b4565b7fb2224e66f9b26d75592864c2c683950317e4e20f102369ab7207d8a09ed80708816040516102b4919061073d565b80516104889060009060208401906104ca565b5050565b7f8426ac1eee4d18008b476f31884d3934dd0711f61562f19d7996706bcaee9f6081826001546104bc9190610877565b6040516102b49291906107cf565b8280546104d69061089d565b90600052602060002090601f0160209004810192826104f8576000855561053e565b82601f1061051157805160ff191683800117855561053e565b8280016001018555821561053e579182015b8281111561053e578251825591602001919060010190610523565b5061054a92915061054e565b5090565b5b8082111561054a576000815560010161054f565b600067ffffffffffffffff8084111561057e5761057e6108d8565b604051601f8501601f19908116603f011681019082821181831017156105a6576105a66108d8565b816040528093508581528686860111156105bf57600080fd5b858560208301376000602087830101525050509392505050565b803573ffffffffffffffffffffffffffffffffffffffff811681146105fd57600080fd5b919050565b6000806000806080858703121561061857600080fd5b610621856105d9565b935061062f602086016105d9565b925060408501359150606085013567ffffffffffffffff81111561065257600080fd5b8501601f8101871361066357600080fd5b61067287823560208401610563565b91505092959194509250565b60006020828403121561069057600080fd5b813567ffffffffffffffff8111156106a757600080fd5b8201601f810184136106b857600080fd5b6106c784823560208401610563565b949350505050565b6000602082840312156106e157600080fd5b5035919050565b600060208083528351808285015260005b81811015610715578581018301518582016040015282016106f9565b81811115610727576000604083870101525b50601f01601f1916929092016040019392505050565b6060815260006107646060830160078152665069636b696e6760c81b602082015260400190565b8281036020840152602881527f53746f72616765205265706f7274205570646174653a2044656c65746520417360208201527f7365742049643a2000000000000000000000000000000000000000000000000060408201526060810191505082604083015292915050565b6080815260006107f66080830160078152665069636b696e6760c81b602082015260400190565b8281036020840152601181527f53746f72616765204c6f636174696f6e200000000000000000000000000000006020820152604081019150508360408301528260608301529392505050565b6040815260006108696040830160078152665069636b696e6760c81b602082015260400190565b905082602083015292915050565b6000821982111561089857634e487b7160e01b600052601160045260246000fd5b500190565b600181811c908216806108b157607f821691505b602082108114156108d257634e487b7160e01b600052602260045260246000fd5b50919050565b634e487b7160e01b600052604160045260246000fdfea2646970667358221220ede683d1da55d3da27b5206dd30210cdb60e4d85b0dc7a7a6b033d7d90fbb65664736f6c63430008070033608060405234801561001057600080fd5b5061066a806100206000396000f3fe608060405234801561001057600080fd5b50600436106100725760003560e01c80631f2cd65d116100505780631f2cd65d1461011a57806332a2c5d01461012f578063c47f00271461013d57600080fd5b8063150b7a021461007757806317d7de7c146100e45780631c643279146100f9575b600080fd5b6100ae6100853660046103a8565b7f150b7a0200000000000000000000000000000000000000000000000000000000949350505050565b6040517fffffffff0000000000000000000000000000000000000000000000000000000090911681526020015b60405180910390f35b6100ec610150565b6040516100db919061048e565b61010c610107366004610475565b6101e2565b6040519081526020016100db565b61012d610128366004610475565b61021f565b005b6040513081526020016100db565b61012d61014b366004610424565b610259565b60606000805461015f906105e3565b80601f016020809104026020016040519081016040528092919081815260200182805461018b906105e3565b80156101d85780601f106101ad576101008083540402835291602001916101d8565b820191906000526020600020905b8154815290600101906020018083116101bb57829003601f168201915b5050505050905090565b60007fe8c5f0d3002e68bca41f81b116d2232fded1ecf5639d23c404f933b4da4dfb648260405161021391906104e3565b60405180910390a15090565b7ffc105aa3a2816d1f39d6bf9b31145f561ac343e4780f7a0b379bda6bd76e31548160405161024e9190610550565b60405180910390a150565b805161026c906000906020840190610270565b5050565b82805461027c906105e3565b90600052602060002090601f01602090048101928261029e57600085556102e4565b82601f106102b757805160ff19168380011785556102e4565b828001600101855582156102e4579182015b828111156102e45782518255916020019190600101906102c9565b506102f09291506102f4565b5090565b5b808211156102f057600081556001016102f5565b600067ffffffffffffffff808411156103245761032461061e565b604051601f8501601f19908116603f0116810190828211818310171561034c5761034c61061e565b8160405280935085815286868601111561036557600080fd5b858560208301376000602087830101525050509392505050565b803573ffffffffffffffffffffffffffffffffffffffff811681146103a357600080fd5b919050565b600080600080608085870312156103be57600080fd5b6103c78561037f565b93506103d56020860161037f565b925060408501359150606085013567ffffffffffffffff8111156103f857600080fd5b8501601f8101871361040957600080fd5b61041887823560208401610309565b91505092959194509250565b60006020828403121561043657600080fd5b813567ffffffffffffffff81111561044d57600080fd5b8201601f8101841361045e57600080fd5b61046d84823560208401610309565b949350505050565b60006020828403121561048757600080fd5b5035919050565b600060208083528351808285015260005b818110156104bb5785810183015185820160400152820161049f565b818111156104cd576000604083870101525b50601f01601f1916929092016040019392505050565b60608152600061050b6060830160088152675368697070696e6760c01b602082015260400190565b8281036020840152601681527f4974656d20536869707065642041737365742049643a0000000000000000000060208201526040810191505082604083015292915050565b6060815260006105786060830160088152675368697070696e6760c01b602082015260400190565b8281036020840152603281527f496e76656e746f72792064656c657465642066726f6d20496e76656e746f727960208201527f205265636f72642041737365742049643a20000000000000000000000000000060408201526060810191505082604083015292915050565b600181811c908216806105f757607f821691505b6020821081141561061857634e487b7160e01b600052602260045260246000fd5b50919050565b634e487b7160e01b600052604160045260246000fdfea26469706673582212201e4fdd38f1adf4242b074cd0e97cae18bfac3783401549d6e80de2b26f18c67f64736f6c63430008070033608060405234801561001057600080fd5b5061061e806100206000396000f3fe608060405234801561001057600080fd5b50600436106100885760003560e01c8063cbf653c01161005b578063cbf653c014610132578063d3022fe81461013a578063ebc56a221461014d578063ee06c7201461016057600080fd5b8063150b7a021461008d57806317d7de7c146100fa57806332a2c5d01461010f578063c47f00271461011d575b600080fd5b6100c461009b36600461045c565b7f150b7a0200000000000000000000000000000000000000000000000000000000949350505050565b6040517fffffffff0000000000000000000000000000000000000000000000000000000090911681526020015b60405180910390f35b610102610173565b6040516100f19190610542565b6040513081526020016100f1565b61013061012b3660046104d8565b610205565b005b61013061021c565b610130610148366004610529565b610247565b61013061015b366004610529565b61027e565b61013061016e366004610529565b61028a565b60606000805461018290610597565b80601f01602080910402602001604051908101604052809291908181526020018280546101ae90610597565b80156101fb5780601f106101d0576101008083540402835291602001916101fb565b820191906000526020600020905b8154815290600101906020018083116101de57829003601f168201915b5050505050905090565b8051610218906000906020840190610324565b5050565b6040517f994121a9939dd8a3456146ebbf410185442a0c1856dc4cdf12ec8644cb5ca37e90600090a1565b6040518181527fd2878a39332fd7fa5772f8464219762e150b5c0d7c09c0e1b4bdaad3ad809226906020015b60405180910390a150565b6102878161028a565b50565b604080516060808252600a908201527f496e7370656374696f6e00000000000000000000000000000000000000000000608082015260a0602082018190526018908201527f417373657420496e73706563746564204173736574206964000000000000000060c08201529081018290527f85f86201955fadd6e813d9db89f07122b602f9eb6adbe76ebcdb3db0ab2ddb369060e001610273565b82805461033090610597565b90600052602060002090601f0160209004810192826103525760008555610398565b82601f1061036b57805160ff1916838001178555610398565b82800160010185558215610398579182015b8281111561039857825182559160200191906001019061037d565b506103a49291506103a8565b5090565b5b808211156103a457600081556001016103a9565b600067ffffffffffffffff808411156103d8576103d86105d2565b604051601f8501601f19908116603f01168101908282118183101715610400576104006105d2565b8160405280935085815286868601111561041957600080fd5b858560208301376000602087830101525050509392505050565b803573ffffffffffffffffffffffffffffffffffffffff8116811461045757600080fd5b919050565b6000806000806080858703121561047257600080fd5b61047b85610433565b935061048960208601610433565b925060408501359150606085013567ffffffffffffffff8111156104ac57600080fd5b8501601f810187136104bd57600080fd5b6104cc878235602084016103bd565b91505092959194509250565b6000602082840312156104ea57600080fd5b813567ffffffffffffffff81111561050157600080fd5b8201601f8101841361051257600080fd5b610521848235602084016103bd565b949350505050565b60006020828403121561053b57600080fd5b5035919050565b600060208083528351808285015260005b8181101561056f57858101830151858201604001528201610553565b81811115610581576000604083870101525b50601f01601f1916929092016040019392505050565b600181811c908216806105ab57607f821691505b602082108114156105cc57634e487b7160e01b600052602260045260246000fd5b50919050565b634e487b7160e01b600052604160045260246000fdfea26469706673582212202db4d6e5be7c67869cd375d22dfc3eb040614c1355b0341a8e35359ac35b740f64736f6c63430008070033608060405234801561001057600080fd5b506104d4806100206000396000f3fe608060405234801561001057600080fd5b50600436106100675760003560e01c806332a2c5d01161005057806332a2c5d0146100ee57806358e7ec3c146100fc578063c47f00271461013557600080fd5b8063150b7a021461006c57806317d7de7c146100d9575b600080fd5b6100a361007a36600461032b565b7f150b7a0200000000000000000000000000000000000000000000000000000000949350505050565b6040517fffffffff0000000000000000000000000000000000000000000000000000000090911681526020015b60405180910390f35b6100e161014a565b6040516100d091906103f8565b6040513081526020016100d0565b60408051808201909152601081527f4d616e6167652057617265686f7573650000000000000000000000000000000060208201526100e1565b6101486101433660046103a7565b6101dc565b005b6060600080546101599061044d565b80601f01602080910402602001604051908101604052809291908181526020018280546101859061044d565b80156101d25780601f106101a7576101008083540402835291602001916101d2565b820191906000526020600020905b8154815290600101906020018083116101b557829003601f168201915b5050505050905090565b80516101ef9060009060208401906101f3565b5050565b8280546101ff9061044d565b90600052602060002090601f0160209004810192826102215760008555610267565b82601f1061023a57805160ff1916838001178555610267565b82800160010185558215610267579182015b8281111561026757825182559160200191906001019061024c565b50610273929150610277565b5090565b5b808211156102735760008155600101610278565b600067ffffffffffffffff808411156102a7576102a7610488565b604051601f8501601f19908116603f011681019082821181831017156102cf576102cf610488565b816040528093508581528686860111156102e857600080fd5b858560208301376000602087830101525050509392505050565b803573ffffffffffffffffffffffffffffffffffffffff8116811461032657600080fd5b919050565b6000806000806080858703121561034157600080fd5b61034a85610302565b935061035860208601610302565b925060408501359150606085013567ffffffffffffffff81111561037b57600080fd5b8501601f8101871361038c57600080fd5b61039b8782356020840161028c565b91505092959194509250565b6000602082840312156103b957600080fd5b813567ffffffffffffffff8111156103d057600080fd5b8201601f810184136103e157600080fd5b6103f08482356020840161028c565b949350505050565b600060208083528351808285015260005b8181101561042557858101830151858201604001528201610409565b81811115610437576000604083870101525b50601f01601f1916929092016040019392505050565b600181811c9082168061046157607f821691505b6020821081141561048257634e487b7160e01b600052602260045260246000fd5b50919050565b634e487b7160e01b600052604160045260246000fdfea2646970667358221220fe9ed9d8f7c4d442d9d691d08c6001dc24fd3d6ecdd5123e1b6bf3837e9bf12b64736f6c634300080700335472616e73706f7274657220526f6c6520616464656420746f20656d706c6f79656520496e73706563746f7220526f6c6520616464656420746f20656d706c6f79656520a26469706673582212206012605feb7f3e67d6c5cc68c1aaac67961eb049798a9138c530e27a613b4f3964736f6c6343000807003360806040523480156200001157600080fd5b506200001d3362000222565b60408051608081018252600b8183019081526a185c1c1bda5b9d1b595b9d60aa1b6060830152815281518083019092526001808352600360fc1b60208481019190915280830193909352600080529091526200009d907fa6eef7e35abe7026729641147f7915573c7e97b47efa546f5f6e3230263bcb4990600262000272565b5060408051608081018252600b8183019081526a185c1c1bda5b9d1b595b9d60aa1b6060830152815281518083019092526001808352603160f81b6020848101919091528083019390935260008190529091526200011f907fcc69885fda6bcc1a4ace058b4a62bf5e179ea78fd58a1ccd71c22cc9b688792f90600262000272565b50604080516080810182526007818301908152661c9958d95a5c1d60ca1b6060830152815281518083019092526001808352603160f81b602084810191909152808301939093526002600081905292526200019d917fd9d16d34ffb15ba3a3d852f0d403e2ce1d691fb54de27ac87cd2f993f3ec330f919062000272565b50604080516080810182526007818301908152661c9958d95a5c1d60ca1b6060830152815281518083019092526001808352600360fc1b6020848101919091528083019390935260036000529091526200021b907f7dfe757ecd65cbd7922a9c0161e935dd7fdbcc0e999689c7d31633896b1fc60b90600262000272565b5062000418565b600080546001600160a01b038381166001600160a01b0319831681178455604051919092169283917f8be0079c531659141344cd1fd0a4f28419497f9722a3daafe3b4186f6b6457e09190a35050565b828054828255906000526020600020908101928215620002c4579160200282015b82811115620002c45782518051620002b3918491602090910190620002d6565b509160200191906001019062000293565b50620002d292915062000361565b5090565b828054620002e490620003db565b90600052602060002090601f01602090048101928262000308576000855562000353565b82601f106200032357805160ff191683800117855562000353565b8280016001018555821562000353579182015b828111156200035357825182559160200191906001019062000336565b50620002d292915062000382565b80821115620002d257600062000378828262000399565b5060010162000361565b5b80821115620002d2576000815560010162000383565b508054620003a790620003db565b6000825580601f10620003b8575050565b601f016020900490600052602060002090810190620003d8919062000382565b50565b600181811c90821680620003f057607f821691505b602082108114156200041257634e487b7160e01b600052602260045260246000fd5b50919050565b61094980620004286000396000f3fe608060405234801561001057600080fd5b50600436106100885760003560e01c80638da5cb5b1161005b5780638da5cb5b146100f4578063cfb519281461010f578063dc6e186914610122578063f2fde38b1461013557600080fd5b80635508ff941461008d578063684ede7f146100b6578063715018a6146100d757806382cf776f146100e1575b600080fd5b6100a061009b3660046106d2565b610148565b6040516100ad91906107e9565b60405180910390f35b6100c96100c43660046106d2565b6102cf565b6040519081526020016100ad565b6100df610384565b005b6100df6100ef36600461065d565b610398565b6000546040516001600160a01b0390911681526020016100ad565b6100c961011d3660046106eb565b6103fe565b6100df6101303660046106eb565b61041b565b6100df610143366004610634565b610455565b606060006040516020016101e0907f7b226e616d65223a20226170706f696e746d656e74000000000000000000000081527f222c2022616363657373223a202230222c202261747472696275746573223a0060158201527f5b7b226b6579223a2274726169745f74797065222c2276616c7565223a2231226034820152617d5d60f01b6054820152607d60f81b605682015260570190565b60408051601f1981840301815260025460009081526001602090815283822080548083028701830190955284865292955091929184015b828210156102c3578382906000526020600020018054610236906108ac565b80601f0160208091040260200160405190810160405280929190818152602001828054610262906108ac565b80156102af5780601f10610284576101008083540402835291602001916102af565b820191906000526020600020905b81548152906001019060200180831161029257829003601f168201915b505050505081526020019060010190610217565b50505050915050919050565b6002819055604080517f7b226e616d65223a20226170706f696e746d656e74000000000000000000000060208201527f222c2022616363657373223a202230222c202261747472696275746573223a0060358201527f5b7b226b6579223a2274726169745f74797065222c2276616c7565223a2231226054820152617d5d60f01b6074820152607d60f81b607682015281516057818303018152607790910190915260009061037d816103fe565b9392505050565b61038c6104ea565b6103966000610544565b565b6103fa828260008181106103ae576103ae6108e7565b90506020028101906103c0919061085e565b8080601f0160208091040260200160405190810160405280939291908181526020018383808284376000920191909152506105ac92505050565b5050565b805160009082906104125750600092915050565b50506020015190565b7f6653c0a1cf688aba87a4010ef20b068ddb2deb21931825f8e5da042cab4417658160405161044a919061084b565b60405180910390a150565b61045d6104ea565b6001600160a01b0381166104de5760405162461bcd60e51b815260206004820152602660248201527f4f776e61626c653a206e6577206f776e657220697320746865207a65726f206160448201527f646472657373000000000000000000000000000000000000000000000000000060648201526084015b60405180910390fd5b6104e781610544565b50565b6000546001600160a01b031633146103965760405162461bcd60e51b815260206004820181905260248201527f4f776e61626c653a2063616c6c6572206973206e6f7420746865206f776e657260448201526064016104d5565b600080546001600160a01b038381167fffffffffffffffffffffffff0000000000000000000000000000000000000000831681178455604051919092169283917f8be0079c531659141344cd1fd0a4f28419497f9722a3daafe3b4186f6b6457e09190a35050565b6104e7816040516024016105c0919061084b565b60408051601f198184030181529190526020810180517bffffffffffffffffffffffffffffffffffffffffffffffffffffffff167f41304fac0000000000000000000000000000000000000000000000000000000017815281516a636f6e736f6c652e6c6f67916000918291845afa505050565b60006020828403121561064657600080fd5b81356001600160a01b038116811461037d57600080fd5b6000806020838503121561067057600080fd5b823567ffffffffffffffff8082111561068857600080fd5b818501915085601f83011261069c57600080fd5b8135818111156106ab57600080fd5b8660208260051b85010111156106c057600080fd5b60209290920196919550909350505050565b6000602082840312156106e457600080fd5b5035919050565b6000602082840312156106fd57600080fd5b813567ffffffffffffffff8082111561071557600080fd5b818401915084601f83011261072957600080fd5b81358181111561073b5761073b6108fd565b604051601f8201601f19908116603f01168101908382118183101715610763576107636108fd565b8160405282815287602084870101111561077c57600080fd5b826020860160208301376000928101602001929092525095945050505050565b6000815180845260005b818110156107c2576020818501810151868301820152016107a6565b818111156107d4576000602083870101525b50601f01601f19169290920160200192915050565b6000602080830181845280855180835260408601915060408160051b870101925083870160005b8281101561083e57603f1988860301845261082c85835161079c565b94509285019290850190600101610810565b5092979650505050505050565b60208152600061037d602083018461079c565b6000808335601e1984360301811261087557600080fd5b83018035915067ffffffffffffffff82111561089057600080fd5b6020019150368190038213156108a557600080fd5b9250929050565b600181811c908216806108c057607f821691505b602082108114156108e157634e487b7160e01b600052602260045260246000fd5b50919050565b634e487b7160e01b600052603260045260246000fd5b634e487b7160e01b600052604160045260246000fdfea26469706673582212204669aa7cf74a3ad26eb8d45f40c7d740f5b3a12ee31fb423f8d7c6dd079a495564736f6c63430008070033a2646970667358221220d6b66171d5a94aae63dc3b28fd564ae9930e68169fb1f7a253e7e440d42b4fc164736f6c63430008070033",
  "linkReferences": {},
  "deployedLinkReferences": {}
}