{
  "_format": "hh-sol-artifact-1",
  "contractName": "FNFToken",
  "sourceName": "contracts/FNFToken.sol",
  "abi": [
    {
      "inputs": [],
      "stateMutability": "nonpayable",
      "type": "constructor"
    },
    {
      "anonymous": false,
      "inputs": [
        {
          "indexed": true,
          "internalType": "address",
          "name": "owner",
          "type": "address"
        },
        {
          "indexed": true,
          "internalType": "address",
          "name": "spender",
          "type": "address"
        },
        {
          "indexed": false,
          "internalType": "uint256",
          "name": "value",
          "type": "uint256"
        }
      ],
      "name": "Approval",
      "type": "event"
    },
    {
      "anonymous": false,
      "inputs": [
        {
          "indexed": false,
          "internalType": "address",
          "name": "to",
          "type": "address"
        },
        {
          "indexed": false,
          "internalType": "uint256",
          "name": "amount",
          "type": "uint256"
        }
      ],
      "name": "Mint",
      "type": "event"
    },
    {
      "anonymous": false,
      "inputs": [
        {
          "indexed": true,
          "internalType": "address",
          "name": "previousOwner",
          "type": "address"
        },
        {
          "indexed": true,
          "internalType": "address",
          "name": "newOwner",
          "type": "address"
        }
      ],
      "name": "OwnershipTransferred",
      "type": "event"
    },
    {
      "anonymous": false,
      "inputs": [
        {
          "indexed": true,
          "internalType": "address",
          "name": "from",
          "type": "address"
        },
        {
          "indexed": true,
          "internalType": "address",
          "name": "to",
          "type": "address"
        },
        {
          "indexed": false,
          "internalType": "uint256",
          "name": "value",
          "type": "uint256"
        }
      ],
      "name": "Transfer",
      "type": "event"
    },
    {
      "inputs": [
        {
          "internalType": "address",
          "name": "owner",
          "type": "address"
        },
        {
          "internalType": "address",
          "name": "spender",
          "type": "address"
        }
      ],
      "name": "allowance",
      "outputs": [
        {
          "internalType": "uint256",
          "name": "",
          "type": "uint256"
        }
      ],
      "stateMutability": "view",
      "type": "function"
    },
    {
      "inputs": [
        {
          "internalType": "address",
          "name": "spender",
          "type": "address"
        },
        {
          "internalType": "uint256",
          "name": "amount",
          "type": "uint256"
        }
      ],
      "name": "approve",
      "outputs": [
        {
          "internalType": "bool",
          "name": "",
          "type": "bool"
        }
      ],
      "stateMutability": "nonpayable",
      "type": "function"
    },
    {
      "inputs": [
        {
          "internalType": "address",
          "name": "account",
          "type": "address"
        }
      ],
      "name": "balanceOf",
      "outputs": [
        {
          "internalType": "uint256",
          "name": "",
          "type": "uint256"
        }
      ],
      "stateMutability": "view",
      "type": "function"
    },
    {
      "inputs": [
        {
          "internalType": "uint256",
          "name": "amount",
          "type": "uint256"
        }
      ],
      "name": "burn",
      "outputs": [],
      "stateMutability": "nonpayable",
      "type": "function"
    },
    {
      "inputs": [
        {
          "internalType": "address",
          "name": "account",
          "type": "address"
        },
        {
          "internalType": "uint256",
          "name": "amount",
          "type": "uint256"
        }
      ],
      "name": "burnFrom",
      "outputs": [],
      "stateMutability": "nonpayable",
      "type": "function"
    },
    {
      "inputs": [],
      "name": "decimals",
      "outputs": [
        {
          "internalType": "uint8",
          "name": "",
          "type": "uint8"
        }
      ],
      "stateMutability": "view",
      "type": "function"
    },
    {
      "inputs": [
        {
          "internalType": "address",
          "name": "spender",
          "type": "address"
        },
        {
          "internalType": "uint256",
          "name": "subtractedValue",
          "type": "uint256"
        }
      ],
      "name": "decreaseAllowance",
      "outputs": [
        {
          "internalType": "bool",
          "name": "",
          "type": "bool"
        }
      ],
      "stateMutability": "nonpayable",
      "type": "function"
    },
    {
      "inputs": [],
      "name": "getAddress",
      "outputs": [
        {
          "internalType": "address",
          "name": "",
          "type": "address"
        }
      ],
      "stateMutability": "view",
      "type": "function"
    },
    {
      "inputs": [
        {
          "internalType": "address",
          "name": "spender",
          "type": "address"
        },
        {
          "internalType": "uint256",
          "name": "addedValue",
          "type": "uint256"
        }
      ],
      "name": "increaseAllowance",
      "outputs": [
        {
          "internalType": "bool",
          "name": "",
          "type": "bool"
        }
      ],
      "stateMutability": "nonpayable",
      "type": "function"
    },
    {
      "inputs": [
        {
          "internalType": "address",
          "name": "to",
          "type": "address"
        },
        {
          "internalType": "uint256",
          "name": "amount",
          "type": "uint256"
        }
      ],
      "name": "mint",
      "outputs": [],
      "stateMutability": "nonpayable",
      "type": "function"
    },
    {
      "inputs": [],
      "name": "name",
      "outputs": [
        {
          "internalType": "string",
          "name": "",
          "type": "string"
        }
      ],
      "stateMutability": "view",
      "type": "function"
    },
    {
      "inputs": [
        {
          "internalType": "address",
          "name": "",
          "type": "address"
        },
        {
          "internalType": "address",
          "name": "",
          "type": "address"
        },
        {
          "internalType": "uint256",
          "name": "",
          "type": "uint256"
        },
        {
          "internalType": "bytes",
          "name": "",
          "type": "bytes"
        }
      ],
      "name": "onERC721Received",
      "outputs": [
        {
          "internalType": "bytes4",
          "name": "",
          "type": "bytes4"
        }
      ],
      "stateMutability": "nonpayable",
      "type": "function"
    },
    {
      "inputs": [],
      "name": "owner",
      "outputs": [
        {
          "internalType": "address",
          "name": "",
          "type": "address"
        }
      ],
      "stateMutability": "view",
      "type": "function"
    },
    {
      "inputs": [],
      "name": "renounceOwnership",
      "outputs": [],
      "stateMutability": "nonpayable",
      "type": "function"
    },
    {
      "inputs": [],
      "name": "symbol",
      "outputs": [
        {
          "internalType": "string",
          "name": "",
          "type": "string"
        }
      ],
      "stateMutability": "view",
      "type": "function"
    },
    {
      "inputs": [],
      "name": "totalSupply",
      "outputs": [
        {
          "internalType": "uint256",
          "name": "",
          "type": "uint256"
        }
      ],
      "stateMutability": "view",
      "type": "function"
    },
    {
      "inputs": [
        {
          "internalType": "address",
          "name": "to",
          "type": "address"
        },
        {
          "internalType": "uint256",
          "name": "amount",
          "type": "uint256"
        }
      ],
      "name": "transfer",
      "outputs": [
        {
          "internalType": "bool",
          "name": "",
          "type": "bool"
        }
      ],
      "stateMutability": "nonpayable",
      "type": "function"
    },
    {
      "inputs": [
        {
          "internalType": "address",
          "name": "from",
          "type": "address"
        },
        {
          "internalType": "address",
          "name": "to",
          "type": "address"
        },
        {
          "internalType": "uint256",
          "name": "amount",
          "type": "uint256"
        }
      ],
      "name": "transferFrom",
      "outputs": [
        {
          "internalType": "bool",
          "name": "",
          "type": "bool"
        }
      ],
      "stateMutability": "nonpayable",
      "type": "function"
    },
    {
      "inputs": [
        {
          "internalType": "address",
          "name": "newOwner",
          "type": "address"
        }
      ],
      "name": "transferOwnership",
      "outputs": [],
      "stateMutability": "nonpayable",
      "type": "function"
    }
  ],
  "bytecode": "0x60806040523480156200001157600080fd5b50604051806040016040528060088152602001672327232a37b5b2b760c11b8152506040518060400160405280600381526020016211939560ea1b815250816003908051906020019062000067929190620000f6565b5080516200007d906004906020840190620000f6565b5050506200009a62000094620000a060201b60201c565b620000a4565b620001d9565b3390565b600580546001600160a01b038381166001600160a01b0319831681179093556040519116919082907f8be0079c531659141344cd1fd0a4f28419497f9722a3daafe3b4186f6b6457e090600090a35050565b82805462000104906200019c565b90600052602060002090601f01602090048101928262000128576000855562000173565b82601f106200014357805160ff191683800117855562000173565b8280016001018555821562000173579182015b828111156200017357825182559160200191906001019062000156565b506200018192915062000185565b5090565b5b8082111562000181576000815560010162000186565b600181811c90821680620001b157607f821691505b60208210811415620001d357634e487b7160e01b600052602260045260246000fd5b50919050565b6110fa80620001e96000396000f3fe608060405234801561001057600080fd5b50600436106101515760003560e01c806342966c68116100cd57806395d89b4111610081578063a9059cbb11610066578063a9059cbb146102f8578063dd62ed3e1461030b578063f2fde38b1461034457600080fd5b806395d89b41146102dd578063a457c2d7146102e557600080fd5b8063715018a6116100b2578063715018a6146102b157806379cc6790146102b95780638da5cb5b146102cc57600080fd5b806342966c681461027557806370a082311461028857600080fd5b806323b872dd1161012457806338cc48311161010957806338cc483114610233578063395093511461024d57806340c10f191461026057600080fd5b806323b872dd14610211578063313ce5671461022457600080fd5b806306fdde0314610156578063095ea7b314610174578063150b7a021461019757806318160ddd146101ff575b600080fd5b61015e610357565b60405161016b9190610ee6565b60405180910390f35b610187610182366004610ea3565b6103e9565b604051901515815260200161016b565b6101ce6101a5366004610dc7565b7f150b7a0200000000000000000000000000000000000000000000000000000000949350505050565b6040517fffffffff00000000000000000000000000000000000000000000000000000000909116815260200161016b565b6002545b60405190815260200161016b565b61018761021f366004610d8b565b610403565b6040516012815260200161016b565b305b6040516001600160a01b03909116815260200161016b565b61018761025b366004610ea3565b610427565b61027361026e366004610ea3565b610466565b005b610273610283366004610ecd565b6104cb565b610203610296366004610d36565b6001600160a01b031660009081526020819052604090205490565b6102736104d8565b6102736102c7366004610ea3565b6104ec565b6005546001600160a01b0316610235565b61015e610505565b6101876102f3366004610ea3565b610514565b610187610306366004610ea3565b6105c3565b610203610319366004610d58565b6001600160a01b03918216600090815260016020908152604080832093909416825291909152205490565b610273610352366004610d36565b6105d1565b6060600380546103669061105d565b80601f01602080910402602001604051908101604052809291908181526020018280546103929061105d565b80156103df5780601f106103b4576101008083540402835291602001916103df565b820191906000526020600020905b8154815290600101906020018083116103c257829003601f168201915b5050505050905090565b6000336103f781858561065e565b60019150505b92915050565b6000336104118582856107b7565b61041c858585610849565b506001949350505050565b3360008181526001602090815260408083206001600160a01b03871684529091528120549091906103f79082908690610461908790610f3b565b61065e565b610485826104766012600a610f96565b610480908461103e565b610a36565b604080516001600160a01b0384168152602081018390527f0f6798a560793a54c3bcfe86a93cde1e73087d944c0ea20544137d4121396885910160405180910390a15050565b6104d53382610af5565b50565b6104e0610c56565b6104ea6000610cb0565b565b6104f78233836107b7565b6105018282610af5565b5050565b6060600480546103669061105d565b3360008181526001602090815260408083206001600160a01b0387168452909152812054909190838110156105b65760405162461bcd60e51b815260206004820152602560248201527f45524332303a2064656372656173656420616c6c6f77616e63652062656c6f7760448201527f207a65726f00000000000000000000000000000000000000000000000000000060648201526084015b60405180910390fd5b61041c828686840361065e565b6000336103f7818585610849565b6105d9610c56565b6001600160a01b0381166106555760405162461bcd60e51b815260206004820152602660248201527f4f776e61626c653a206e6577206f776e657220697320746865207a65726f206160448201527f646472657373000000000000000000000000000000000000000000000000000060648201526084016105ad565b6104d581610cb0565b6001600160a01b0383166106d95760405162461bcd60e51b8152602060048201526024808201527f45524332303a20617070726f76652066726f6d20746865207a65726f2061646460448201527f726573730000000000000000000000000000000000000000000000000000000060648201526084016105ad565b6001600160a01b0382166107555760405162461bcd60e51b815260206004820152602260248201527f45524332303a20617070726f766520746f20746865207a65726f20616464726560448201527f737300000000000000000000000000000000000000000000000000000000000060648201526084016105ad565b6001600160a01b0383811660008181526001602090815260408083209487168084529482529182902085905590518481527f8c5be1e5ebec7d5bd14f71427d1e84f3dd0314c0f7b2291e5b200ac8c7c3b92591015b60405180910390a3505050565b6001600160a01b03838116600090815260016020908152604080832093861683529290522054600019811461084357818110156108365760405162461bcd60e51b815260206004820152601d60248201527f45524332303a20696e73756666696369656e7420616c6c6f77616e636500000060448201526064016105ad565b610843848484840361065e565b50505050565b6001600160a01b0383166108c55760405162461bcd60e51b815260206004820152602560248201527f45524332303a207472616e736665722066726f6d20746865207a65726f20616460448201527f647265737300000000000000000000000000000000000000000000000000000060648201526084016105ad565b6001600160a01b0382166109415760405162461bcd60e51b815260206004820152602360248201527f45524332303a207472616e7366657220746f20746865207a65726f206164647260448201527f657373000000000000000000000000000000000000000000000000000000000060648201526084016105ad565b6001600160a01b038316600090815260208190526040902054818110156109d05760405162461bcd60e51b815260206004820152602660248201527f45524332303a207472616e7366657220616d6f756e742065786365656473206260448201527f616c616e6365000000000000000000000000000000000000000000000000000060648201526084016105ad565b6001600160a01b03848116600081815260208181526040808320878703905593871680835291849020805487019055925185815290927fddf252ad1be2c89b69c2b068fc378daa952ba7f163c4a11628f55a4df523b3ef910160405180910390a3610843565b6001600160a01b038216610a8c5760405162461bcd60e51b815260206004820152601f60248201527f45524332303a206d696e7420746f20746865207a65726f20616464726573730060448201526064016105ad565b8060026000828254610a9e9190610f3b565b90915550506001600160a01b038216600081815260208181526040808320805486019055518481527fddf252ad1be2c89b69c2b068fc378daa952ba7f163c4a11628f55a4df523b3ef910160405180910390a35050565b6001600160a01b038216610b715760405162461bcd60e51b815260206004820152602160248201527f45524332303a206275726e2066726f6d20746865207a65726f2061646472657360448201527f730000000000000000000000000000000000000000000000000000000000000060648201526084016105ad565b6001600160a01b03821660009081526020819052604090205481811015610c005760405162461bcd60e51b815260206004820152602260248201527f45524332303a206275726e20616d6f756e7420657863656564732062616c616e60448201527f636500000000000000000000000000000000000000000000000000000000000060648201526084016105ad565b6001600160a01b0383166000818152602081815260408083208686039055600280548790039055518581529192917fddf252ad1be2c89b69c2b068fc378daa952ba7f163c4a11628f55a4df523b3ef91016107aa565b6005546001600160a01b031633146104ea5760405162461bcd60e51b815260206004820181905260248201527f4f776e61626c653a2063616c6c6572206973206e6f7420746865206f776e657260448201526064016105ad565b600580546001600160a01b038381167fffffffffffffffffffffffff0000000000000000000000000000000000000000831681179093556040519116919082907f8be0079c531659141344cd1fd0a4f28419497f9722a3daafe3b4186f6b6457e090600090a35050565b80356001600160a01b0381168114610d3157600080fd5b919050565b600060208284031215610d4857600080fd5b610d5182610d1a565b9392505050565b60008060408385031215610d6b57600080fd5b610d7483610d1a565b9150610d8260208401610d1a565b90509250929050565b600080600060608486031215610da057600080fd5b610da984610d1a565b9250610db760208501610d1a565b9150604084013590509250925092565b60008060008060808587031215610ddd57600080fd5b610de685610d1a565b9350610df460208601610d1a565b925060408501359150606085013567ffffffffffffffff80821115610e1857600080fd5b818701915087601f830112610e2c57600080fd5b813581811115610e3e57610e3e6110ae565b604051601f8201601f19908116603f01168101908382118183101715610e6657610e666110ae565b816040528281528a6020848701011115610e7f57600080fd5b82602086016020830137600060208483010152809550505050505092959194509250565b60008060408385031215610eb657600080fd5b610ebf83610d1a565b946020939093013593505050565b600060208284031215610edf57600080fd5b5035919050565b600060208083528351808285015260005b81811015610f1357858101830151858201604001528201610ef7565b81811115610f25576000604083870101525b50601f01601f1916929092016040019392505050565b60008219821115610f4e57610f4e611098565b500190565b600181815b80851115610f8e578160001904821115610f7457610f74611098565b80851615610f8157918102915b93841c9390800290610f58565b509250929050565b6000610d518383600082610fac575060016103fd565b81610fb9575060006103fd565b8160018114610fcf5760028114610fd957610ff5565b60019150506103fd565b60ff841115610fea57610fea611098565b50506001821b6103fd565b5060208310610133831016604e8410600b8410161715611018575081810a6103fd565b6110228383610f53565b806000190482111561103657611036611098565b029392505050565b600081600019048311821515161561105857611058611098565b500290565b600181811c9082168061107157607f821691505b6020821081141561109257634e487b7160e01b600052602260045260246000fd5b50919050565b634e487b7160e01b600052601160045260246000fd5b634e487b7160e01b600052604160045260246000fdfea2646970667358221220313c64958d51c61726de2a43316691232f0c7df832ee9a7b9611b924d8a73fab64736f6c63430008070033",
  "linkReferences": {},
  "deployedLinkReferences": {}
}