{
  "_format": "hh-sol-artifact-1",
  "contractName": "Issuer",
  "sourceName": "contracts/AdministrativeRoles/Issuer.sol",
  "abi": [
    {
      "inputs": [
        {
          "internalType": "string",
          "name": "_name",
          "type": "string"
        },
        {
          "internalType": "string",
          "name": "_symbol",
          "type": "string"
        }
      ],
      "stateMutability": "nonpayable",
      "type": "constructor"
    },
    {
      "anonymous": false,
      "inputs": [
        {
          "indexed": true,
          "internalType": "address",
          "name": "owner",
          "type": "address"
        },
        {
          "indexed": true,
          "internalType": "address",
          "name": "approved",
          "type": "address"
        },
        {
          "indexed": true,
          "internalType": "uint256",
          "name": "tokenId",
          "type": "uint256"
        }
      ],
      "name": "Approval",
      "type": "event"
    },
    {
      "anonymous": false,
      "inputs": [
        {
          "indexed": true,
          "internalType": "address",
          "name": "owner",
          "type": "address"
        },
        {
          "indexed": true,
          "internalType": "address",
          "name": "operator",
          "type": "address"
        },
        {
          "indexed": false,
          "internalType": "bool",
          "name": "approved",
          "type": "bool"
        }
      ],
      "name": "ApprovalForAll",
      "type": "event"
    },
    {
      "anonymous": false,
      "inputs": [
        {
          "indexed": false,
          "internalType": "string",
          "name": "message",
          "type": "string"
        }
      ],
      "name": "NFTMinted",
      "type": "event"
    },
    {
      "anonymous": false,
      "inputs": [
        {
          "indexed": false,
          "internalType": "string",
          "name": "data",
          "type": "string"
        }
      ],
      "name": "ReadData",
      "type": "event"
    },
    {
      "anonymous": false,
      "inputs": [
        {
          "indexed": true,
          "internalType": "address",
          "name": "from",
          "type": "address"
        },
        {
          "indexed": true,
          "internalType": "address",
          "name": "to",
          "type": "address"
        },
        {
          "indexed": true,
          "internalType": "uint256",
          "name": "tokenId",
          "type": "uint256"
        }
      ],
      "name": "Transfer",
      "type": "event"
    },
    {
      "anonymous": false,
      "inputs": [
        {
          "indexed": false,
          "internalType": "string",
          "name": "message",
          "type": "string"
        }
      ],
      "name": "TransferNFT",
      "type": "event"
    },
    {
      "inputs": [
        {
          "internalType": "address",
          "name": "",
          "type": "address"
        }
      ],
      "name": "Track",
      "outputs": [
        {
          "internalType": "uint256",
          "name": "",
          "type": "uint256"
        }
      ],
      "stateMutability": "view",
      "type": "function"
    },
    {
      "inputs": [
        {
          "internalType": "address",
          "name": "receiver",
          "type": "address"
        },
        {
          "internalType": "string",
          "name": "_tokenURI",
          "type": "string"
        }
      ],
      "name": "_create",
      "outputs": [
        {
          "internalType": "uint256",
          "name": "",
          "type": "uint256"
        }
      ],
      "stateMutability": "nonpayable",
      "type": "function"
    },
    {
      "inputs": [
        {
          "internalType": "address",
          "name": "_sender",
          "type": "address"
        },
        {
          "internalType": "address",
          "name": "_receiver",
          "type": "address"
        },
        {
          "internalType": "uint256",
          "name": "_tokenId",
          "type": "uint256"
        },
        {
          "internalType": "string",
          "name": "_tokenURI",
          "type": "string"
        }
      ],
      "name": "_transferNFT",
      "outputs": [],
      "stateMutability": "nonpayable",
      "type": "function"
    },
    {
      "inputs": [
        {
          "internalType": "address",
          "name": "to",
          "type": "address"
        },
        {
          "internalType": "uint256",
          "name": "tokenId",
          "type": "uint256"
        }
      ],
      "name": "approve",
      "outputs": [],
      "stateMutability": "nonpayable",
      "type": "function"
    },
    {
      "inputs": [
        {
          "internalType": "address",
          "name": "owner",
          "type": "address"
        }
      ],
      "name": "balanceOf",
      "outputs": [
        {
          "internalType": "uint256",
          "name": "",
          "type": "uint256"
        }
      ],
      "stateMutability": "view",
      "type": "function"
    },
    {
      "inputs": [
        {
          "internalType": "uint256",
          "name": "_tokenID",
          "type": "uint256"
        },
        {
          "internalType": "uint256",
          "name": "_totalShares",
          "type": "uint256"
        },
        {
          "internalType": "address",
          "name": "account",
          "type": "address"
        }
      ],
      "name": "buyFractionaltraShares",
      "outputs": [],
      "stateMutability": "payable",
      "type": "function"
    },
    {
      "inputs": [
        {
          "internalType": "string",
          "name": "_tokenURI",
          "type": "string"
        },
        {
          "internalType": "uint256",
          "name": "_price",
          "type": "uint256"
        }
      ],
      "name": "createNFT",
      "outputs": [],
      "stateMutability": "nonpayable",
      "type": "function"
    },
    {
      "inputs": [
        {
          "internalType": "uint256",
          "name": "tokenId",
          "type": "uint256"
        }
      ],
      "name": "getApproved",
      "outputs": [
        {
          "internalType": "address",
          "name": "",
          "type": "address"
        }
      ],
      "stateMutability": "view",
      "type": "function"
    },
    {
      "inputs": [],
      "name": "getContractAddress",
      "outputs": [
        {
          "internalType": "address",
          "name": "",
          "type": "address"
        }
      ],
      "stateMutability": "view",
      "type": "function"
    },
    {
      "inputs": [],
      "name": "getCreateTokenResult",
      "outputs": [
        {
          "internalType": "bool",
          "name": "",
          "type": "bool"
        }
      ],
      "stateMutability": "view",
      "type": "function"
    },
    {
      "inputs": [],
      "name": "getTransferResult",
      "outputs": [
        {
          "internalType": "bool",
          "name": "",
          "type": "bool"
        }
      ],
      "stateMutability": "view",
      "type": "function"
    },
    {
      "inputs": [
        {
          "internalType": "uint256",
          "name": "",
          "type": "uint256"
        }
      ],
      "name": "idToNFT",
      "outputs": [
        {
          "internalType": "uint256",
          "name": "tokenID",
          "type": "uint256"
        },
        {
          "internalType": "address payable",
          "name": "owner",
          "type": "address"
        },
        {
          "internalType": "uint256",
          "name": "price",
          "type": "uint256"
        }
      ],
      "stateMutability": "view",
      "type": "function"
    },
    {
      "inputs": [
        {
          "internalType": "uint256",
          "name": "",
          "type": "uint256"
        }
      ],
      "name": "idToPrice",
      "outputs": [
        {
          "internalType": "uint256",
          "name": "",
          "type": "uint256"
        }
      ],
      "stateMutability": "view",
      "type": "function"
    },
    {
      "inputs": [
        {
          "internalType": "uint256",
          "name": "",
          "type": "uint256"
        }
      ],
      "name": "idToShare",
      "outputs": [
        {
          "internalType": "contract ERC20",
          "name": "",
          "type": "address"
        }
      ],
      "stateMutability": "view",
      "type": "function"
    },
    {
      "inputs": [
        {
          "internalType": "uint256",
          "name": "",
          "type": "uint256"
        }
      ],
      "name": "idToShareValue",
      "outputs": [
        {
          "internalType": "uint256",
          "name": "",
          "type": "uint256"
        }
      ],
      "stateMutability": "view",
      "type": "function"
    },
    {
      "inputs": [
        {
          "internalType": "address",
          "name": "owner",
          "type": "address"
        },
        {
          "internalType": "address",
          "name": "operator",
          "type": "address"
        }
      ],
      "name": "isApprovedForAll",
      "outputs": [
        {
          "internalType": "bool",
          "name": "",
          "type": "bool"
        }
      ],
      "stateMutability": "view",
      "type": "function"
    },
    {
      "inputs": [
        {
          "internalType": "uint256",
          "name": "tokenId",
          "type": "uint256"
        },
        {
          "internalType": "address",
          "name": "account",
          "type": "address"
        }
      ],
      "name": "isNFTOwner",
      "outputs": [
        {
          "internalType": "bool",
          "name": "",
          "type": "bool"
        }
      ],
      "stateMutability": "view",
      "type": "function"
    },
    {
      "inputs": [
        {
          "internalType": "uint256",
          "name": "_tokenID",
          "type": "uint256"
        },
        {
          "internalType": "string",
          "name": "_tokenURI",
          "type": "string"
        },
        {
          "internalType": "uint256",
          "name": "_sharesAmount",
          "type": "uint256"
        }
      ],
      "name": "lockNFT",
      "outputs": [],
      "stateMutability": "nonpayable",
      "type": "function"
    },
    {
      "inputs": [],
      "name": "name",
      "outputs": [
        {
          "internalType": "string",
          "name": "",
          "type": "string"
        }
      ],
      "stateMutability": "view",
      "type": "function"
    },
    {
      "inputs": [
        {
          "internalType": "uint256",
          "name": "tokenId",
          "type": "uint256"
        }
      ],
      "name": "ownerOf",
      "outputs": [
        {
          "internalType": "address",
          "name": "",
          "type": "address"
        }
      ],
      "stateMutability": "view",
      "type": "function"
    },
    {
      "inputs": [
        {
          "internalType": "address",
          "name": "from",
          "type": "address"
        },
        {
          "internalType": "address",
          "name": "to",
          "type": "address"
        },
        {
          "internalType": "uint256",
          "name": "tokenId",
          "type": "uint256"
        }
      ],
      "name": "safeTransferFrom",
      "outputs": [],
      "stateMutability": "nonpayable",
      "type": "function"
    },
    {
      "inputs": [
        {
          "internalType": "address",
          "name": "from",
          "type": "address"
        },
        {
          "internalType": "address",
          "name": "to",
          "type": "address"
        },
        {
          "internalType": "uint256",
          "name": "tokenId",
          "type": "uint256"
        },
        {
          "internalType": "bytes",
          "name": "data",
          "type": "bytes"
        }
      ],
      "name": "safeTransferFrom",
      "outputs": [],
      "stateMutability": "nonpayable",
      "type": "function"
    },
    {
      "inputs": [
        {
          "internalType": "address",
          "name": "operator",
          "type": "address"
        },
        {
          "internalType": "bool",
          "name": "approved",
          "type": "bool"
        }
      ],
      "name": "setApprovalForAll",
      "outputs": [],
      "stateMutability": "nonpayable",
      "type": "function"
    },
    {
      "inputs": [
        {
          "internalType": "bytes4",
          "name": "interfaceId",
          "type": "bytes4"
        }
      ],
      "name": "supportsInterface",
      "outputs": [
        {
          "internalType": "bool",
          "name": "",
          "type": "bool"
        }
      ],
      "stateMutability": "view",
      "type": "function"
    },
    {
      "inputs": [],
      "name": "symbol",
      "outputs": [
        {
          "internalType": "string",
          "name": "",
          "type": "string"
        }
      ],
      "stateMutability": "view",
      "type": "function"
    },
    {
      "inputs": [
        {
          "internalType": "uint256",
          "name": "tokenId",
          "type": "uint256"
        }
      ],
      "name": "tokenURI",
      "outputs": [
        {
          "internalType": "string",
          "name": "",
          "type": "string"
        }
      ],
      "stateMutability": "view",
      "type": "function"
    },
    {
      "inputs": [
        {
          "internalType": "address",
          "name": "from",
          "type": "address"
        },
        {
          "internalType": "address",
          "name": "to",
          "type": "address"
        },
        {
          "internalType": "uint256",
          "name": "tokenId",
          "type": "uint256"
        }
      ],
      "name": "transferFrom",
      "outputs": [],
      "stateMutability": "nonpayable",
      "type": "function"
    }
  ],
  "bytecode": "0x60806040523480156200001157600080fd5b5060405162003c9c38038062003c9c8339810160408190526200003491620001cb565b8151829082906200004d9060009060208501906200006e565b508051620000639060019060208401906200006e565b505050505062000288565b8280546200007c9062000235565b90600052602060002090601f016020900481019282620000a05760008555620000eb565b82601f10620000bb57805160ff1916838001178555620000eb565b82800160010185558215620000eb579182015b82811115620000eb578251825591602001919060010190620000ce565b50620000f9929150620000fd565b5090565b5b80821115620000f95760008155600101620000fe565b600082601f8301126200012657600080fd5b81516001600160401b038082111562000143576200014362000272565b604051601f8301601f19908116603f011681019082821181831017156200016e576200016e62000272565b816040528381526020925086838588010111156200018b57600080fd5b600091505b83821015620001af578582018301518183018401529082019062000190565b83821115620001c15760008385830101525b9695505050505050565b60008060408385031215620001df57600080fd5b82516001600160401b0380821115620001f757600080fd5b620002058683870162000114565b935060208501519150808211156200021c57600080fd5b506200022b8582860162000114565b9150509250929050565b600181811c908216806200024a57607f821691505b602082108114156200026c57634e487b7160e01b600052602260045260246000fd5b50919050565b634e487b7160e01b600052604160045260246000fd5b613a0480620002986000396000f3fe608060405260043610620001cf5760003560e01c80634545077b11620000ff578063ac5d42cb1162000095578063c89b023e116200006c578063c89b023e146200058c578063d67b18c914620005c6578063e985e9c514620005eb578063f9c6a054146200063857600080fd5b8063ac5d42cb146200051d578063b88d4fde1462000542578063c87b56dd146200056757600080fd5b806370a0823111620000d657806370a08231146200049c5780638369884914620004c157806395d89b4114620004e0578063a22cb46514620004f857600080fd5b80634545077b146200043b5780636352211e146200045257806365b38184146200047757600080fd5b806323b872dd116200017557806332a2c5d0116200014c57806332a2c5d0146200036357806333aa49cd146200037857806342842e0e14620003e557806344a39c25146200040a57600080fd5b806323b872dd14620002ff5780632682915514620003245780632b2a2a80146200034957600080fd5b8063081812fc11620001aa578063081812fc146200025c578063095ea7b3146200029a5780630a59749414620002bf57600080fd5b806301ffc9a714620001d457806306d913b9146200020e57806306fdde031462000235575b600080fd5b348015620001e157600080fd5b50620001f9620001f3366004620022b6565b62000669565b60405190151581526020015b60405180910390f35b3480156200021b57600080fd5b50620002336200022d36600462002175565b62000708565b005b3480156200024257600080fd5b506200024d6200074a565b604051620002059190620024aa565b3480156200026957600080fd5b50620002816200027b3660046200233f565b620007e4565b6040516001600160a01b03909116815260200162000205565b348015620002a757600080fd5b5062000233620002b936600462002269565b6200080d565b348015620002cc57600080fd5b50620002f0620002de3660046200233f565b600c6020526000908152604090205481565b60405190815260200162000205565b3480156200030c57600080fd5b50620002336200031e366004620020af565b6200094e565b3480156200033157600080fd5b506200023362000343366004620022f6565b620009db565b3480156200035657600080fd5b50600e5460ff16620001f9565b3480156200037057600080fd5b503062000281565b3480156200038557600080fd5b50620003c1620003973660046200233f565b60096020526000908152604090208054600182015460029092015490916001600160a01b03169083565b604080519384526001600160a01b0390921660208401529082015260600162000205565b348015620003f257600080fd5b506200023362000404366004620020af565b62000b54565b3480156200041757600080fd5b50620002f06200042936600462002059565b60086020526000908152604090205481565b620002336200044c366004620023d3565b62000b71565b3480156200045f57600080fd5b5062000281620004713660046200233f565b62000d72565b3480156200048457600080fd5b5062000233620004963660046200237f565b62000dd9565b348015620004a957600080fd5b50620002f0620004bb36600462002059565b62000ffb565b348015620004ce57600080fd5b50600e54610100900460ff16620001f9565b348015620004ed57600080fd5b506200024d62001097565b3480156200050557600080fd5b506200023362000517366004620021d9565b620010a8565b3480156200052a57600080fd5b50620001f96200053c36600462002359565b620010b9565b3480156200054f57600080fd5b506200023362000561366004620020f0565b62001192565b3480156200057457600080fd5b506200024d620005863660046200233f565b62001226565b3480156200059957600080fd5b5062000281620005ab3660046200233f565b600d602052600090815260409020546001600160a01b031681565b348015620005d357600080fd5b50620002f0620005e536600462002215565b62001348565b348015620005f857600080fd5b50620001f96200060a36600462002077565b6001600160a01b03918216600090815260056020908152604080832093909416825291909152205460ff1690565b3480156200064557600080fd5b50620002f0620006573660046200233f565b600b6020526000908152604090205481565b60006001600160e01b031982167f80ac58cd000000000000000000000000000000000000000000000000000000001480620006cd57506001600160e01b031982167f5b5e139f00000000000000000000000000000000000000000000000000000000145b806200070257507f01ffc9a7000000000000000000000000000000000000000000000000000000006001600160e01b03198316145b92915050565b62000715848484620013a0565b62000721828262001579565b506001600160a01b03928316600090815260086020526040808220829055929093168352912055565b6060600080546200075b9062002604565b80601f0160208091040260200160405190810160405280929190818152602001828054620007899062002604565b8015620007da5780601f10620007ae57610100808354040283529160200191620007da565b820191906000526020600020905b815481529060010190602001808311620007bc57829003601f168201915b5050505050905090565b6000620007f18262001626565b506000908152600460205260409020546001600160a01b031690565b60006200081a8262000d72565b9050806001600160a01b0316836001600160a01b03161415620008aa5760405162461bcd60e51b815260206004820152602160248201527f4552433732313a20617070726f76616c20746f2063757272656e74206f776e6560448201527f720000000000000000000000000000000000000000000000000000000000000060648201526084015b60405180910390fd5b336001600160a01b0382161480620008c95750620008c981336200060a565b6200093d5760405162461bcd60e51b815260206004820152603e60248201527f4552433732313a20617070726f76652063616c6c6572206973206e6f7420746f60448201527f6b656e206f776e6572206e6f7220617070726f76656420666f7220616c6c00006064820152608401620008a1565b6200094983836200168f565b505050565b6200095a3382620016ff565b620009ce5760405162461bcd60e51b815260206004820152602e60248201527f4552433732313a2063616c6c6572206973206e6f7420746f6b656e206f776e6560448201527f72206e6f7220617070726f7665640000000000000000000000000000000000006064820152608401620008a1565b62000949838383620013a0565b6000620009e9338462001348565b9050606062000a0183670de0b6b3a764000062002599565b6000838152600b60209081526040808320938455600a82528083208054336001600160a01b03199182168117909255825160808101845288815280850192835295548684019081526060870188815289875260098652939095208651815591516001830180549092166001600160a01b039091161790559251600284015551805162000a94926003850192019062001e90565b509050507f054d18de7a843b833b11e4dbfa2ba1b119f88faa425dc2a346046b0321a34e3d60405162000af8906020808252600a908201527f4e4654204d496e74656400000000000000000000000000000000000000000000604082015260600190565b60405180910390a162000b416040518060400160405280601d81526020017f49737375657220637265617465732061636365737320746f6b656e3a200000008152508362001783565b5050600e805460ff191660011790555050565b620009498383836040518060200160405280600081525062001192565b6000838152600a6020908152604080832054600c9092528220546001600160a01b03909116919062000ba49085620017fa565b6000868152600d60205260409081902054905163a9059cbb60e01b81526001600160a01b0386811660048301526024820188905292935091169063a9059cbb90604401602060405180830381600087803b15801562000c0257600080fd5b505af115801562000c17573d6000803e3d6000fd5b505050506040513d601f19601f8201168201806040525081019062000c3d919062002296565b5060008581526009602090815260408083206003018054600181018255908452919092200180546001600160a01b0386166001600160a01b0319909116179055517f682d0b2d382a980df9828d221910f189bb51718c5cecb475ac79837af60d9ebe9062000cdc906020808252600a908201527f4e4654204d696e74656400000000000000000000000000000000000000000000604082015260600190565b60405180910390a162000d5c6040518060400160405280601e81526020017f497373756572207472616e73666572732061636365737320746f6b656e200000815250866040518060400160405280600581526020017f20746f3a200000000000000000000000000000000000000000000000000000008152508662001808565b5050600e805461ff001916610100179055505050565b6000818152600260205260408120546001600160a01b031680620007025760405162461bcd60e51b815260206004820152601860248201527f4552433732313a20696e76616c696420746f6b656e20494400000000000000006044820152606401620008a1565b62000de73330858562000708565b600062000df48462001883565b905060006040518060400160405280600b81526020017f4672616374696f6e4e465400000000000000000000000000000000000000000081525090506000818360405160200162000e4792919062002439565b60408051601f198184030181528282018252600483527f464e465400000000000000000000000000000000000000000000000000000000602084810191909152915190935060009162000e9f91849188910162002439565b6040516020818303038152906040529050600083828860405162000ec39062001efa565b62000ed193929190620024bf565b604051809103906000f08015801562000eee573d6000803e3d6000fd5b5060405163a9059cbb60e01b8152306004820152602481018990529091506001600160a01b0382169063a9059cbb90604401602060405180830381600087803b15801562000f3b57600080fd5b505af115801562000f50573d6000803e3d6000fd5b505050506040513d601f19601f8201168201806040525081019062000f76919062002296565b506000898152600d6020908152604080832080546001600160a01b0386166001600160a01b031991821617909155600983528184206003018054600181018255908552838520018054909116331790558b8352600b90915290205462000fdd8189620019cd565b60009a8b52600c6020526040909a2099909955505050505050505050565b60006001600160a01b0382166200107b5760405162461bcd60e51b815260206004820152602960248201527f4552433732313a2061646472657373207a65726f206973206e6f74206120766160448201527f6c6964206f776e657200000000000000000000000000000000000000000000006064820152608401620008a1565b506001600160a01b031660009081526003602052604090205490565b6060600180546200075b9062002604565b620010b5338383620019db565b5050565b6000828152600960209081526040808320600301805482518185028101850190935280835284938301828280156200111b57602002820191906000526020600020905b81546001600160a01b03168152600190910190602001808311620010fc575b5050505050905060005b81518110156200118757818181518110620011445762001144620026a2565b60200260200101516001600160a01b0316846001600160a01b03161415620011725760019250505062000702565b806200117e8162002641565b91505062001125565b506000949350505050565b6200119e3383620016ff565b620012125760405162461bcd60e51b815260206004820152602e60248201527f4552433732313a2063616c6c6572206973206e6f7420746f6b656e206f776e6560448201527f72206e6f7220617070726f7665640000000000000000000000000000000000006064820152608401620008a1565b620012208484848462001aac565b50505050565b6060620012338262001626565b600082815260066020526040812080546200124e9062002604565b80601f01602080910402602001604051908101604052809291908181526020018280546200127c9062002604565b8015620012cd5780601f10620012a157610100808354040283529160200191620012cd565b820191906000526020600020905b815481529060010190602001808311620012af57829003601f168201915b505050505090506000620012ec60408051602081019091526000815290565b905080516000141562001300575092915050565b815115620013355780826040516020016200131d92919062002439565b60405160208183030381529060405292505050919050565b620013408462001b3b565b949350505050565b6000806200135560075490565b905062001363848262001bb7565b6200136f818462001579565b6001600160a01b038416600090815260086020526040902081905562001399600780546001019055565b9392505050565b826001600160a01b0316620013b58262000d72565b6001600160a01b031614620014335760405162461bcd60e51b815260206004820152602560248201527f4552433732313a207472616e736665722066726f6d20696e636f72726563742060448201527f6f776e65720000000000000000000000000000000000000000000000000000006064820152608401620008a1565b6001600160a01b038216620014b05760405162461bcd60e51b8152602060048201526024808201527f4552433732313a207472616e7366657220746f20746865207a65726f2061646460448201527f72657373000000000000000000000000000000000000000000000000000000006064820152608401620008a1565b620014bd6000826200168f565b6001600160a01b0383166000908152600360205260408120805460019290620014e8908490620025bb565b90915550506001600160a01b03821660009081526003602052604081208054600192906200151890849062002567565b909155505060008181526002602052604080822080546001600160a01b0319166001600160a01b0386811691821790925591518493918716917fddf252ad1be2c89b69c2b068fc378daa952ba7f163c4a11628f55a4df523b3ef91a4505050565b6000828152600260205260409020546001600160a01b0316620016055760405162461bcd60e51b815260206004820152602e60248201527f45524337323155524953746f726167653a2055524920736574206f66206e6f6e60448201527f6578697374656e7420746f6b656e0000000000000000000000000000000000006064820152608401620008a1565b60008281526006602090815260409091208251620009499284019062001f08565b6000818152600260205260409020546001600160a01b03166200168c5760405162461bcd60e51b815260206004820152601860248201527f4552433732313a20696e76616c696420746f6b656e20494400000000000000006044820152606401620008a1565b50565b600081815260046020526040902080546001600160a01b0319166001600160a01b0384169081179091558190620016c68262000d72565b6001600160a01b03167f8c5be1e5ebec7d5bd14f71427d1e84f3dd0314c0f7b2291e5b200ac8c7c3b92560405160405180910390a45050565b6000806200170d8362000d72565b9050806001600160a01b0316846001600160a01b031614806200175557506001600160a01b0380821660009081526005602090815260408083209388168352929052205460ff165b80620013405750836001600160a01b03166200177184620007e4565b6001600160a01b031614949350505050565b620010b582826040516024016200179c929190620024f9565b60408051601f198184030181529190526020810180517bffffffffffffffffffffffffffffffffffffffffffffffffffffffff167fb60e72cc0000000000000000000000000000000000000000000000000000000017905262001cff565b600062001399828462002599565b62001220848484846040516024016200182594939291906200251d565b60408051601f198184030181529190526020810180517bffffffffffffffffffffffffffffffffffffffffffffffffffffffff167f7c4632a40000000000000000000000000000000000000000000000000000000017905262001cff565b606081620018c457505060408051808201909152600181527f3000000000000000000000000000000000000000000000000000000000000000602082015290565b8160005b8115620018f45780620018db8162002641565b9150620018ec9050600a8362002582565b9150620018c8565b60008167ffffffffffffffff811115620019125762001912620026b8565b6040519080825280601f01601f1916602001820160405280156200193d576020820181803683370190505b5090505b8415620013405762001955600183620025bb565b915062001964600a866200265f565b6200197190603062002567565b60f81b818381518110620019895762001989620026a2565b60200101907effffffffffffffffffffffffffffffffffffffffffffffffffffffffffffff1916908160001a905350620019c5600a8662002582565b945062001941565b600062001399828462002582565b816001600160a01b0316836001600160a01b0316141562001a3f5760405162461bcd60e51b815260206004820152601960248201527f4552433732313a20617070726f766520746f2063616c6c6572000000000000006044820152606401620008a1565b6001600160a01b03838116600081815260056020908152604080832094871680845294825291829020805460ff191686151590811790915591519182527f17307eab39ab6107e8899845ad3d59bd9653f200f220920489ca2b5937696c31910160405180910390a3505050565b62001ab9848484620013a0565b62001ac78484848462001d20565b620012205760405162461bcd60e51b815260206004820152603260248201527f4552433732313a207472616e7366657220746f206e6f6e20455243373231526560448201527f63656976657220696d706c656d656e74657200000000000000000000000000006064820152608401620008a1565b606062001b488262001626565b600062001b6060408051602081019091526000815290565b9050600081511162001b82576040518060200160405280600081525062001399565b8062001b8e8462001883565b60405160200162001ba192919062002439565b6040516020818303038152906040529392505050565b6001600160a01b03821662001c0f5760405162461bcd60e51b815260206004820181905260248201527f4552433732313a206d696e7420746f20746865207a65726f20616464726573736044820152606401620008a1565b6000818152600260205260409020546001600160a01b03161562001c765760405162461bcd60e51b815260206004820152601c60248201527f4552433732313a20746f6b656e20616c7265616479206d696e746564000000006044820152606401620008a1565b6001600160a01b038216600090815260036020526040812080546001929062001ca190849062002567565b909155505060008181526002602052604080822080546001600160a01b0319166001600160a01b03861690811790915590518392907fddf252ad1be2c89b69c2b068fc378daa952ba7f163c4a11628f55a4df523b3ef908290a45050565b80516a636f6e736f6c652e6c6f67602083016000808483855afa5050505050565b60006001600160a01b0384163b1562001e8557604051630a85bd0160e11b81526001600160a01b0385169063150b7a029062001d679033908990889088906004016200246c565b602060405180830381600087803b15801562001d8257600080fd5b505af192505050801562001db5575060408051601f3d908101601f1916820190925262001db291810190620022d6565b60015b62001e6a573d80801562001de6576040519150601f19603f3d011682016040523d82523d6000602084013e62001deb565b606091505b50805162001e625760405162461bcd60e51b815260206004820152603260248201527f4552433732313a207472616e7366657220746f206e6f6e20455243373231526560448201527f63656976657220696d706c656d656e74657200000000000000000000000000006064820152608401620008a1565b805181602001fd5b6001600160e01b031916630a85bd0160e11b14905062001340565b506001949350505050565b82805482825590600052602060002090810192821562001ee8579160200282015b8281111562001ee857825182546001600160a01b0319166001600160a01b0390911617825560209092019160019091019062001eb1565b5062001ef692915062001f85565b5090565b6112da80620026f583390190565b82805462001f169062002604565b90600052602060002090601f01602090048101928262001f3a576000855562001ee8565b82601f1062001f5557805160ff191683800117855562001ee8565b8280016001018555821562001ee8579182015b8281111562001ee857825182559160200191906001019062001f68565b5b8082111562001ef6576000815560010162001f86565b600067ffffffffffffffff8084111562001fba5762001fba620026b8565b604051601f8501601f19908116603f0116810190828211818310171562001fe55762001fe5620026b8565b8160405280935085815286868601111562001fff57600080fd5b858560208301376000602087830101525050509392505050565b80356001600160a01b03811681146200203157600080fd5b919050565b600082601f8301126200204857600080fd5b620013998383356020850162001f9c565b6000602082840312156200206c57600080fd5b620013998262002019565b600080604083850312156200208b57600080fd5b620020968362002019565b9150620020a66020840162002019565b90509250929050565b600080600060608486031215620020c557600080fd5b620020d08462002019565b9250620020e06020850162002019565b9150604084013590509250925092565b600080600080608085870312156200210757600080fd5b620021128562002019565b9350620021226020860162002019565b925060408501359150606085013567ffffffffffffffff8111156200214657600080fd5b8501601f810187136200215857600080fd5b620021698782356020840162001f9c565b91505092959194509250565b600080600080608085870312156200218c57600080fd5b620021978562002019565b9350620021a76020860162002019565b925060408501359150606085013567ffffffffffffffff811115620021cb57600080fd5b620021698782880162002036565b60008060408385031215620021ed57600080fd5b620021f88362002019565b915060208301356200220a81620026ce565b809150509250929050565b600080604083850312156200222957600080fd5b620022348362002019565b9150602083013567ffffffffffffffff8111156200225157600080fd5b6200225f8582860162002036565b9150509250929050565b600080604083850312156200227d57600080fd5b620022888362002019565b946020939093013593505050565b600060208284031215620022a957600080fd5b81516200139981620026ce565b600060208284031215620022c957600080fd5b81356200139981620026dd565b600060208284031215620022e957600080fd5b81516200139981620026dd565b600080604083850312156200230a57600080fd5b823567ffffffffffffffff8111156200232257600080fd5b620023308582860162002036565b95602094909401359450505050565b6000602082840312156200235257600080fd5b5035919050565b600080604083850312156200236d57600080fd5b82359150620020a66020840162002019565b6000806000606084860312156200239557600080fd5b83359250602084013567ffffffffffffffff811115620023b457600080fd5b620023c28682870162002036565b925050604084013590509250925092565b600080600060608486031215620023e957600080fd5b8335925060208401359150620024026040850162002019565b90509250925092565b6000815180845262002425816020860160208601620025d5565b601f01601f19169290920160200192915050565b600083516200244d818460208801620025d5565b83519083019062002463818360208801620025d5565b01949350505050565b60006001600160a01b03808716835280861660208401525083604083015260806060830152620024a060808301846200240b565b9695505050505050565b6020815260006200139960208301846200240b565b606081526000620024d460608301866200240b565b8281036020840152620024e881866200240b565b915050826040830152949350505050565b6040815260006200250e60408301856200240b565b90508260208301529392505050565b6080815260006200253260808301876200240b565b85602084015282810360408401526200254c81866200240b565b9150506001600160a01b038316606083015295945050505050565b600082198211156200257d576200257d62002676565b500190565b6000826200259457620025946200268c565b500490565b6000816000190483118215151615620025b657620025b662002676565b500290565b600082821015620025d057620025d062002676565b500390565b60005b83811015620025f2578181015183820152602001620025d8565b83811115620012205750506000910152565b600181811c908216806200261957607f821691505b602082108114156200263b57634e487b7160e01b600052602260045260246000fd5b50919050565b600060001982141562002658576200265862002676565b5060010190565b6000826200267157620026716200268c565b500690565b634e487b7160e01b600052601160045260246000fd5b634e487b7160e01b600052601260045260246000fd5b634e487b7160e01b600052603260045260246000fd5b634e487b7160e01b600052604160045260246000fd5b80151581146200168c57600080fd5b6001600160e01b0319811681146200168c57600080fdfe60806040526006805460ff191660121790553480156200001e57600080fd5b50604051620012da380380620012da8339810160408190526200004191620003e9565b6200004c33620000b2565b8251620000619060049060208601906200028c565b508151620000779060059060208501906200028c565b506006546000906200008e9060ff16600a620004c0565b6200009a90836200057f565b9050620000a8338262000102565b505050506200060a565b600080546001600160a01b038381166001600160a01b0319831681178455604051919092169283917f8be0079c531659141344cd1fd0a4f28419497f9722a3daafe3b4186f6b6457e09190a35050565b6200010c62000217565b6001600160a01b038216620001685760405162461bcd60e51b815260206004820152601f60248201527f45524332303a206d696e7420746f20746865207a65726f20616464726573730060448201526064015b60405180910390fd5b62000184816003546200027560201b620006571790919060201c565b6003556001600160a01b038216600090815260016020908152604090912054620001b99183906200065762000275821b17901c565b6001600160a01b0383166000818152600160205260408082209390935591519091907fddf252ad1be2c89b69c2b068fc378daa952ba7f163c4a11628f55a4df523b3ef906200020b9085815260200190565b60405180910390a35050565b6000546001600160a01b03163314620002735760405162461bcd60e51b815260206004820181905260248201527f4f776e61626c653a2063616c6c6572206973206e6f7420746865206f776e657260448201526064016200015f565b565b60006200028382846200045c565b90505b92915050565b8280546200029a90620005a1565b90600052602060002090601f016020900481019282620002be576000855562000309565b82601f10620002d957805160ff191683800117855562000309565b8280016001018555821562000309579182015b8281111562000309578251825591602001919060010190620002ec565b50620003179291506200031b565b5090565b5b808211156200031757600081556001016200031c565b600082601f8301126200034457600080fd5b81516001600160401b0380821115620003615762000361620005f4565b604051601f8301601f19908116603f011681019082821181831017156200038c576200038c620005f4565b81604052838152602092508683858801011115620003a957600080fd5b600091505b83821015620003cd5785820183015181830184015290820190620003ae565b83821115620003df5760008385830101525b9695505050505050565b600080600060608486031215620003ff57600080fd5b83516001600160401b03808211156200041757600080fd5b620004258783880162000332565b945060208601519150808211156200043c57600080fd5b506200044b8682870162000332565b925050604084015190509250925092565b60008219821115620004725762000472620005de565b500190565b600181815b80851115620004b85781600019048211156200049c576200049c620005de565b80851615620004aa57918102915b93841c93908002906200047c565b509250929050565b60006200028360ff841683600082620004dc5750600162000286565b81620004eb5750600062000286565b81600181146200050457600281146200050f576200052f565b600191505062000286565b60ff841115620005235762000523620005de565b50506001821b62000286565b5060208310610133831016604e8410600b841016171562000554575081810a62000286565b62000560838362000477565b8060001904821115620005775762000577620005de565b029392505050565b60008160001904831182151516156200059c576200059c620005de565b500290565b600181811c90821680620005b657607f821691505b60208210811415620005d857634e487b7160e01b600052602260045260246000fd5b50919050565b634e487b7160e01b600052601160045260246000fd5b634e487b7160e01b600052604160045260246000fd5b610cc0806200061a6000396000f3fe608060405234801561001057600080fd5b50600436106100f55760003560e01c8063715018a6116100975780639dc29fac116100665780639dc29fac146101f9578063a9059cbb1461020c578063dd62ed3e1461021f578063f2fde38b1461025857600080fd5b8063715018a6146101b3578063893d20e8146101bb5780638da5cb5b146101e057806395d89b41146101f157600080fd5b806323b872dd116100d357806323b872dd1461014d578063313ce5671461016057806340c10f191461017557806370a082311461018a57600080fd5b806306fdde03146100fa578063095ea7b31461011857806318160ddd1461013b575b600080fd5b61010261026b565b60405161010f9190610b45565b60405180910390f35b61012b610126366004610b1b565b6102fd565b604051901515815260200161010f565b6003545b60405190815260200161010f565b61012b61015b366004610adf565b610313565b60065460405160ff909116815260200161010f565b610188610183366004610b1b565b61037c565b005b61013f610198366004610a91565b6001600160a01b031660009081526001602052604090205490565b61018861046f565b6000546001600160a01b03165b6040516001600160a01b03909116815260200161010f565b6000546001600160a01b03166101c8565b610102610483565b610188610207366004610b1b565b610492565b61012b61021a366004610b1b565b6105ba565b61013f61022d366004610aac565b6001600160a01b03918216600090815260026020908152604080832093909416825291909152205490565b610188610266366004610a91565b6105c7565b60606004805461027a90610bc9565b80601f01602080910402602001604051908101604052809291908181526020018280546102a690610bc9565b80156102f35780601f106102c8576101008083540402835291602001916102f3565b820191906000526020600020905b8154815290600101906020018083116102d657829003601f168201915b5050505050905090565b600061030a33848461066a565b50600192915050565b60006103208484846107c3565b610372843361036d85604051806060016040528060288152602001610c63602891396001600160a01b038a166000908152600260209081526040808320338452909152902054919061097b565b61066a565b5060019392505050565b6103846109a7565b6001600160a01b0382166103df5760405162461bcd60e51b815260206004820152601f60248201527f45524332303a206d696e7420746f20746865207a65726f20616464726573730060448201526064015b60405180910390fd5b6003546103ec9082610657565b6003556001600160a01b0382166000908152600160205260409020546104129082610657565b6001600160a01b0383166000818152600160205260408082209390935591519091907fddf252ad1be2c89b69c2b068fc378daa952ba7f163c4a11628f55a4df523b3ef906104639085815260200190565b60405180910390a35050565b6104776109a7565b6104816000610a01565b565b60606005805461027a90610bc9565b61049a6109a7565b6001600160a01b0382166105165760405162461bcd60e51b815260206004820152602160248201527f45524332303a206275726e2066726f6d20746865207a65726f2061646472657360448201527f730000000000000000000000000000000000000000000000000000000000000060648201526084016103d6565b61055381604051806060016040528060228152602001610c1b602291396001600160a01b038516600090815260016020526040902054919061097b565b6001600160a01b0383166000908152600160205260409020556003546105799082610a69565b6003556040518181526000906001600160a01b038416907fddf252ad1be2c89b69c2b068fc378daa952ba7f163c4a11628f55a4df523b3ef90602001610463565b600061030a3384846107c3565b6105cf6109a7565b6001600160a01b03811661064b5760405162461bcd60e51b815260206004820152602660248201527f4f776e61626c653a206e6577206f776e657220697320746865207a65726f206160448201527f646472657373000000000000000000000000000000000000000000000000000060648201526084016103d6565b61065481610a01565b50565b60006106638284610b9a565b9392505050565b6001600160a01b0383166106e55760405162461bcd60e51b8152602060048201526024808201527f45524332303a20617070726f76652066726f6d20746865207a65726f2061646460448201527f726573730000000000000000000000000000000000000000000000000000000060648201526084016103d6565b6001600160a01b0382166107615760405162461bcd60e51b815260206004820152602260248201527f45524332303a20617070726f766520746f20746865207a65726f20616464726560448201527f737300000000000000000000000000000000000000000000000000000000000060648201526084016103d6565b6001600160a01b0383811660008181526002602090815260408083209487168084529482529182902085905590518481527f8c5be1e5ebec7d5bd14f71427d1e84f3dd0314c0f7b2291e5b200ac8c7c3b92591015b60405180910390a3505050565b6001600160a01b03831661083f5760405162461bcd60e51b815260206004820152602560248201527f45524332303a207472616e736665722066726f6d20746865207a65726f20616460448201527f647265737300000000000000000000000000000000000000000000000000000060648201526084016103d6565b6001600160a01b0382166108bb5760405162461bcd60e51b815260206004820152602360248201527f45524332303a207472616e7366657220746f20746865207a65726f206164647260448201527f657373000000000000000000000000000000000000000000000000000000000060648201526084016103d6565b6108f881604051806060016040528060268152602001610c3d602691396001600160a01b038616600090815260016020526040902054919061097b565b6001600160a01b0380851660009081526001602052604080822093909355908416815220546109279082610657565b6001600160a01b0380841660008181526001602052604090819020939093559151908516907fddf252ad1be2c89b69c2b068fc378daa952ba7f163c4a11628f55a4df523b3ef906107b69085815260200190565b6000818484111561099f5760405162461bcd60e51b81526004016103d69190610b45565b505050900390565b6000546001600160a01b031633146104815760405162461bcd60e51b815260206004820181905260248201527f4f776e61626c653a2063616c6c6572206973206e6f7420746865206f776e657260448201526064016103d6565b600080546001600160a01b038381167fffffffffffffffffffffffff0000000000000000000000000000000000000000831681178455604051919092169283917f8be0079c531659141344cd1fd0a4f28419497f9722a3daafe3b4186f6b6457e09190a35050565b60006106638284610bb2565b80356001600160a01b0381168114610a8c57600080fd5b919050565b600060208284031215610aa357600080fd5b61066382610a75565b60008060408385031215610abf57600080fd5b610ac883610a75565b9150610ad660208401610a75565b90509250929050565b600080600060608486031215610af457600080fd5b610afd84610a75565b9250610b0b60208501610a75565b9150604084013590509250925092565b60008060408385031215610b2e57600080fd5b610b3783610a75565b946020939093013593505050565b600060208083528351808285015260005b81811015610b7257858101830151858201604001528201610b56565b81811115610b84576000604083870101525b50601f01601f1916929092016040019392505050565b60008219821115610bad57610bad610c04565b500190565b600082821015610bc457610bc4610c04565b500390565b600181811c90821680610bdd57607f821691505b60208210811415610bfe57634e487b7160e01b600052602260045260246000fd5b50919050565b634e487b7160e01b600052601160045260246000fdfe45524332303a206275726e20616d6f756e7420657863656564732062616c616e636545524332303a207472616e7366657220616d6f756e7420657863656564732062616c616e636545524332303a207472616e7366657220616d6f756e74206578636565647320616c6c6f77616e6365a2646970667358221220378eb0dc64245309002ede8263f571b2eb6ff1a2ec1dbb06075ea07e16c62e2f64736f6c63430008070033a264697066735822122027b45d1627fbb5d6d729f5d4568c7f9a0b286183c617ce606f1826d0b670bc1964736f6c63430008070033",
  "linkReferences": {},
  "deployedLinkReferences": {}
}