{
  "_format": "hh-sol-artifact-1",
  "contractName": "Receiver",
  "sourceName": "contracts/MediatorPattern/NonAdminRoles/mReceiver.sol",
  "abi": [
    {
      "anonymous": false,
      "inputs": [
        {
          "indexed": false,
          "internalType": "string",
          "name": "message",
          "type": "string"
        }
      ],
      "name": "AppointmentApproved",
      "type": "event"
    },
    {
      "anonymous": false,
      "inputs": [
        {
          "indexed": false,
          "internalType": "string",
          "name": "phase",
          "type": "string"
        },
        {
          "indexed": false,
          "internalType": "string",
          "name": "message",
          "type": "string"
        },
        {
          "indexed": false,
          "internalType": "uint256",
          "name": "id",
          "type": "uint256"
        }
      ],
      "name": "InventRecordUpdated",
      "type": "event"
    },
    {
      "anonymous": false,
      "inputs": [
        {
          "indexed": false,
          "internalType": "string",
          "name": "phase",
          "type": "string"
        },
        {
          "indexed": false,
          "internalType": "string",
          "name": "message",
          "type": "string"
        },
        {
          "indexed": false,
          "internalType": "string",
          "name": "asset_name",
          "type": "string"
        },
        {
          "indexed": false,
          "internalType": "uint256",
          "name": "id",
          "type": "uint256"
        }
      ],
      "name": "ItemsReceived",
      "type": "event"
    },
    {
      "anonymous": false,
      "inputs": [
        {
          "indexed": false,
          "internalType": "string",
          "name": "message",
          "type": "string"
        },
        {
          "indexed": false,
          "internalType": "string",
          "name": "asset_name",
          "type": "string"
        },
        {
          "indexed": false,
          "internalType": "uint256",
          "name": "id",
          "type": "uint256"
        }
      ],
      "name": "ReceiptCreated",
      "type": "event"
    },
    {
      "inputs": [],
      "name": "approveAppointment",
      "outputs": [],
      "stateMutability": "nonpayable",
      "type": "function"
    },
    {
      "inputs": [
        {
          "internalType": "string",
          "name": "asset_name",
          "type": "string"
        },
        {
          "internalType": "uint256",
          "name": "id",
          "type": "uint256"
        },
        {
          "internalType": "uint256",
          "name": "tokenUri",
          "type": "uint256"
        },
        {
          "internalType": "address",
          "name": "verifier",
          "type": "address"
        },
        {
          "internalType": "address",
          "name": "issuer",
          "type": "address"
        },
        {
          "internalType": "address",
          "name": "account",
          "type": "address"
        }
      ],
      "name": "generateReciept",
      "outputs": [],
      "stateMutability": "nonpayable",
      "type": "function"
    },
    {
      "inputs": [],
      "name": "getName",
      "outputs": [
        {
          "internalType": "string",
          "name": "",
          "type": "string"
        }
      ],
      "stateMutability": "view",
      "type": "function"
    },
    {
      "inputs": [],
      "name": "getRoleName",
      "outputs": [
        {
          "internalType": "string",
          "name": "",
          "type": "string"
        }
      ],
      "stateMutability": "view",
      "type": "function"
    },
    {
      "inputs": [
        {
          "internalType": "address",
          "name": "",
          "type": "address"
        },
        {
          "internalType": "address",
          "name": "",
          "type": "address"
        },
        {
          "internalType": "uint256",
          "name": "",
          "type": "uint256"
        },
        {
          "internalType": "bytes",
          "name": "",
          "type": "bytes"
        }
      ],
      "name": "onERC721Received",
      "outputs": [
        {
          "internalType": "bytes4",
          "name": "",
          "type": "bytes4"
        }
      ],
      "stateMutability": "nonpayable",
      "type": "function"
    },
    {
      "inputs": [
        {
          "internalType": "string",
          "name": "asset_name",
          "type": "string"
        },
        {
          "internalType": "uint256",
          "name": "id",
          "type": "uint256"
        }
      ],
      "name": "receiveItems",
      "outputs": [],
      "stateMutability": "nonpayable",
      "type": "function"
    },
    {
      "inputs": [
        {
          "internalType": "string",
          "name": "name",
          "type": "string"
        }
      ],
      "name": "setName",
      "outputs": [],
      "stateMutability": "nonpayable",
      "type": "function"
    },
    {
      "inputs": [
        {
          "internalType": "uint256",
          "name": "id",
          "type": "uint256"
        }
      ],
      "name": "updateInventoryRecord",
      "outputs": [],
      "stateMutability": "nonpayable",
      "type": "function"
    },
    {
      "inputs": [
        {
          "internalType": "uint256",
          "name": "asset_id",
          "type": "uint256"
        },
        {
          "internalType": "uint256",
          "name": "resource_id",
          "type": "uint256"
        },
        {
          "internalType": "uint256",
          "name": "tokenUri",
          "type": "uint256"
        },
        {
          "internalType": "address",
          "name": "issuer",
          "type": "address"
        },
        {
          "internalType": "address",
          "name": "verifier",
          "type": "address"
        },
        {
          "internalType": "address",
          "name": "account",
          "type": "address"
        }
      ],
      "name": "updateReciept",
      "outputs": [],
      "stateMutability": "nonpayable",
      "type": "function"
    }
  ],
  "bytecode": "0x60c060405260086080819052672932b1b2b4bb32b960c11b60a09081526200002b916003919062000077565b506022600455604080518082019091526008808252673932b1b2b4bb32b960c11b6020909201918252620000629160059162000077565b503480156200007057600080fd5b506200015a565b82805462000085906200011d565b90600052602060002090601f016020900481019282620000a95760008555620000f4565b82601f10620000c457805160ff1916838001178555620000f4565b82800160010185558215620000f4579182015b82811115620000f4578251825591602001919060010190620000d7565b506200010292915062000106565b5090565b5b8082111562000102576000815560010162000107565b600181811c908216806200013257607f821691505b602082108114156200015457634e487b7160e01b600052602260045260246000fd5b50919050565b61158c806200016a6000396000f3fe60806040523480156200001157600080fd5b5060043610620000b05760003560e01c806354149d91116200007f578063c47f00271162000062578063c47f0027146200018f578063d3f1fffe14620001a6578063d9660e4714620001bd57600080fd5b806354149d91146200016e5780635633ff3b146200017857600080fd5b8063150b7a0214620000b557806317d7de7c14620001255780631f2cd65d146200013e5780632d97c44e1462000157575b600080fd5b620000ef620000c636600462000807565b7f150b7a0200000000000000000000000000000000000000000000000000000000949350505050565b6040517fffffffff0000000000000000000000000000000000000000000000000000000090911681526020015b60405180910390f35b6200012f620001c7565b6040516200011c919062000a69565b620001556200014f366004620009c5565b62000261565b005b62000155620001683660046200093a565b6200029d565b6200015562000435565b6200015562000189366004620008f1565b6200049f565b62000155620001a0366004620008b0565b620004f2565b62000155620001b7366004620009df565b6200050b565b6200012f6200067e565b606060008054620001d89062000dba565b80601f0160208091040260200160405190810160405280929190818152602001828054620002069062000dba565b8015620002575780601f106200022b5761010080835404028352916020019162000257565b820191906000526020600020905b8154815290600101906020018083116200023957829003601f168201915b5050505050905090565b7ffc105aa3a2816d1f39d6bf9b31145f561ac343e4780f7a0b379bda6bd76e31548160405162000292919062000ccf565b60405180910390a150565b60408051808201825260078152661c9958d95a5c1d60ca1b60208201529051631e8ace0360e21b81526001600160a01b03851690637a2b380c90620002f09060059085908a9088908a9060040162000a7e565b602060405180830381600087803b1580156200030b57600080fd5b505af115801562000320573d6000803e3d6000fd5b505050506040513d601f19601f820116820180604052508101906200034691906200088c565b6006805460ff1916911515918217905560ff1615620003f05760006040516200036f906200068f565b6020808252600890820152675265736f7572636560c01b6040820152606001604051809103906000f080158015620003ab573d6000803e3d6000fd5b5090507fc4ee048c655373907d8072f3c33c1b8dc8d7af3f13ebaeff2237e2249c9fdb508888604051620003e192919062000b73565b60405180910390a1506200042c565b7fc4ee048c655373907d8072f3c33c1b8dc8d7af3f13ebaeff2237e2249c9fdb5087876040516200042392919062000d3e565b60405180910390a15b50505050505050565b7f74a5a67cb88c288543bf9797ae0b8f66bdee8293c350a17bcb110606b1a2bad8604051620004959060208082526014908201527f4170706f696e746d656e7420417070726f766564000000000000000000000000604082015260600190565b60405180910390a1565b6040805180820182528381526020810183905290517f398a0c7c931cca0afdf2ecd784463e3b38b8e99a34e0f7b095f2da82b34fd6af90620004e5908590859062000c49565b60405180910390a1505050565b8051620005079060009060208401906200069d565b5050565b60408051808201825260078152661c9958d95a5c1d60ca1b60208201529051631e8ace0360e21b81526001600160a01b03841690637a2b380c906200055e9060059085908a9088908b9060040162000a7e565b602060405180830381600087803b1580156200057957600080fd5b505af11580156200058e573d6000803e3d6000fd5b505050506040513d601f19601f82011682018060405250810190620005b491906200088c565b6006805460ff1916911515918217905560ff16156200064d576000604051620005dd906200068f565b6020808252600890820152675265736f7572636560c01b6040820152606001604051809103906000f08015801562000619573d6000803e3d6000fd5b5090507fc4ee048c655373907d8072f3c33c1b8dc8d7af3f13ebaeff2237e2249c9fdb5088604051620003e1919062000bd5565b7fc4ee048c655373907d8072f3c33c1b8dc8d7af3f13ebaeff2237e2249c9fdb508760405162000423919062000d7c565b606060058054620001d89062000dba565b6107498062000e0e83390190565b828054620006ab9062000dba565b90600052602060002090601f016020900481019282620006cf57600085556200071a565b82601f10620006ea57805160ff19168380011785556200071a565b828001600101855582156200071a579182015b828111156200071a578251825591602001919060010190620006fd565b50620007289291506200072c565b5090565b5b808211156200072857600081556001016200072d565b600067ffffffffffffffff8084111562000761576200076162000df7565b604051601f8501601f19908116603f011681019082821181831017156200078c576200078c62000df7565b81604052809350858152868686011115620007a657600080fd5b858560208301376000602087830101525050509392505050565b80356001600160a01b0381168114620007d857600080fd5b919050565b600082601f830112620007ef57600080fd5b620008008383356020850162000743565b9392505050565b600080600080608085870312156200081e57600080fd5b6200082985620007c0565b93506200083960208601620007c0565b925060408501359150606085013567ffffffffffffffff8111156200085d57600080fd5b8501601f810187136200086f57600080fd5b620008808782356020840162000743565b91505092959194509250565b6000602082840312156200089f57600080fd5b815180151581146200080057600080fd5b600060208284031215620008c357600080fd5b813567ffffffffffffffff811115620008db57600080fd5b620008e984828501620007dd565b949350505050565b600080604083850312156200090557600080fd5b823567ffffffffffffffff8111156200091d57600080fd5b6200092b85828601620007dd565b95602094909401359450505050565b60008060008060008060c087890312156200095457600080fd5b863567ffffffffffffffff8111156200096c57600080fd5b6200097a89828a01620007dd565b96505060208701359450604087013593506200099960608801620007c0565b9250620009a960808801620007c0565b9150620009b960a08801620007c0565b90509295509295509295565b600060208284031215620009d857600080fd5b5035919050565b60008060008060008060c08789031215620009f957600080fd5b8635955060208701359450604087013593506200099960608801620007c0565b6000815180845260005b8181101562000a415760208185018101518683018201520162000a23565b8181111562000a54576000602083870101525b50601f01601f19169290920160200192915050565b60208152600062000800602083018462000a19565b60a08152600080875481600182811c91508083168062000a9f57607f831692505b602080841082141562000ac057634e487b7160e01b86526022600452602486fd5b60a0880184905260c0880182801562000ae2576001811462000af45762000b21565b60ff1987168252828201975062000b21565b60008f81526020902060005b8781101562000b1b5781548482015290860190840162000b00565b83019850505b505087860381890152505050505062000b3b818862000a19565b91505084604083015262000b5a60608301856001600160a01b03169052565b6001600160a01b03831660808301529695505050505050565b60608152600062000bb160608301600f81527f5265636569707420437265617465640000000000000000000000000000000000602082015260400190565b828103602084015262000bc5818662000a19565b9150508260408301529392505050565b60608152600062000c1360608301600f81527f5265636569707420437265617465640000000000000000000000000000000000602082015260400190565b828103602084015262000c3a8160078152661c9958d95a5c1d60ca1b602082015260400190565b91505082604083015292915050565b60808152600062000c73608083016009815268526563656976696e6760b81b602082015260400190565b828103806020850152600d82527f4974656d2052656365697665640000000000000000000000000000000000000060208301526040810160408501525062000cbf604082018662000a19565b9150508260608301529392505050565b60608152600062000cf9606083016009815268526563656976696e6760b81b602082015260400190565b8281036020840152602081527f4974656d20616464656420746f2020496e76656e746f7279205265636f72642060208201526040810191505082604083015292915050565b60608152600062000bb160608301601381527f52656365697074204e6f74204372656174656400000000000000000000000000602082015260400190565b60608152600062000c1360608301601381527f52656365697074204e6f74204372656174656400000000000000000000000000602082015260400190565b600181811c9082168062000dcf57607f821691505b6020821081141562000df157634e487b7160e01b600052602260045260246000fd5b50919050565b634e487b7160e01b600052604160045260246000fdfe6080604052604051610749380380610749833981016040819052610022916100d5565b805161003590600090602084019061003c565b50506101f5565b828054610048906101a4565b90600052602060002090601f01602090048101928261006a57600085556100b0565b82601f1061008357805160ff19168380011785556100b0565b828001600101855582156100b0579182015b828111156100b0578251825591602001919060010190610095565b506100bc9291506100c0565b5090565b5b808211156100bc57600081556001016100c1565b600060208083850312156100e857600080fd5b82516001600160401b03808211156100ff57600080fd5b818501915085601f83011261011357600080fd5b815181811115610125576101256101df565b604051601f8201601f19908116603f0116810190838211818310171561014d5761014d6101df565b81604052828152888684870101111561016557600080fd5b600093505b82841015610187578484018601518185018701529285019261016a565b828411156101985760008684830101525b98975050505050505050565b600181811c908216806101b857607f821691505b602082108114156101d957634e487b7160e01b600052602260045260246000fd5b50919050565b634e487b7160e01b600052604160045260246000fd5b610545806102046000396000f3fe608060405234801561001057600080fd5b50600436106100675760003560e01c8063bfe120ed11610050578063bfe120ed146100ad578063c3a6eb35146100ad578063decc86e5146100ad57600080fd5b806317d7de7c1461006c5780637f87f7351461008a575b600080fd5b6100746100c3565b6040516100819190610469565b60405180910390f35b61009d610098366004610339565b610155565b6040519015158152602001610081565b6100c16100bb3660046103d7565b50505050565b005b6060600080546100d2906104be565b80601f01602080910402602001604051908101604052809291908181526020018280546100fe906104be565b801561014b5780601f106101205761010080835404028352916020019161014b565b820191906000526020600020905b81548152906001019060200180831161012e57829003601f168201915b5050505050905090565b6001546040517f255efb7000000000000000000000000000000000000000000000000000000000815233600482015260806024820152600d608482018190527f73616d706c65776f746e616d650000000000000000000000000000000000000060a483015260c06044830152601460c48301527f73616d706c65776f746465736372697074696f6e00000000000000000000000060e483015261010060648301526101048201527f73616d706c65776f74737065630000000000000000000000000000000000000061012482015260009173ffffffffffffffffffffffffffffffffffffffff169063255efb709061014401600060405180830381600087803b15801561026157600080fd5b505af1158015610275573d6000803e3d6000fd5b505050509695505050505050565b803573ffffffffffffffffffffffffffffffffffffffff811681146102a757600080fd5b919050565b600082601f8301126102bd57600080fd5b813567ffffffffffffffff808211156102d8576102d86104f9565b604051601f8301601f19908116603f01168101908282118183101715610300576103006104f9565b8160405283815286602085880101111561031957600080fd5b836020870160208301376000602085830101528094505050505092915050565b60008060008060008060c0878903121561035257600080fd5b863567ffffffffffffffff8082111561036a57600080fd5b6103768a838b016102ac565b9750602089013591508082111561038c57600080fd5b5061039989828a016102ac565b955050604087013593506103af60608801610283565b92506103bd60808801610283565b91506103cb60a08801610283565b90509295509295509295565b600080600080608085870312156103ed57600080fd5b843567ffffffffffffffff8082111561040557600080fd5b610411888389016102ac565b9550602087013591508082111561042757600080fd5b610433888389016102ac565b945060408701359350606087013591508082111561045057600080fd5b5061045d878288016102ac565b91505092959194509250565b600060208083528351808285015260005b818110156104965785810183015185820160400152820161047a565b818111156104a8576000604083870101525b50601f01601f1916929092016040019392505050565b600181811c908216806104d257607f821691505b602082108114156104f357634e487b7160e01b600052602260045260246000fd5b50919050565b634e487b7160e01b600052604160045260246000fdfea2646970667358221220e1efdb1e59092cbadc635025ceedd71d1ec18c163a8c1df9662eec61cb1527ce64736f6c63430008070033a26469706673582212201d49aeaecaddd01855a4b318785ee71daa50a1e4ad321895fdd6d7b234ee4e1164736f6c63430008070033",
  "linkReferences": {},
  "deployedLinkReferences": {}
}