{
  "_format": "hh-sol-artifact-1",
  "contractName": "Resource",
  "sourceName": "contracts/Resource.sol",
  "abi": [
    {
      "inputs": [
        {
          "internalType": "string",
          "name": "contractName",
          "type": "string"
        }
      ],
      "stateMutability": "payable",
      "type": "constructor"
    },
    {
      "anonymous": false,
      "inputs": [],
      "name": "ResourceCreated",
      "type": "event"
    },
    {
      "inputs": [
        {
          "internalType": "string",
          "name": "resource_name",
          "type": "string"
        },
        {
          "internalType": "string",
          "name": "role",
          "type": "string"
        },
        {
          "internalType": "uint256",
          "name": "tokenUri",
          "type": "uint256"
        },
        {
          "internalType": "address",
          "name": "verifier",
          "type": "address"
        },
        {
          "internalType": "address",
          "name": "issuer",
          "type": "address"
        },
        {
          "internalType": "address",
          "name": "account",
          "type": "address"
        }
      ],
      "name": "createResource",
      "outputs": [
        {
          "internalType": "bool",
          "name": "",
          "type": "bool"
        }
      ],
      "stateMutability": "nonpayable",
      "type": "function"
    },
    {
      "inputs": [
        {
          "internalType": "string",
          "name": "name",
          "type": "string"
        },
        {
          "internalType": "string",
          "name": "role",
          "type": "string"
        },
        {
          "internalType": "uint256",
          "name": "access_type",
          "type": "uint256"
        },
        {
          "internalType": "string",
          "name": "tokenUri",
          "type": "string"
        }
      ],
      "name": "deleteResource",
      "outputs": [],
      "stateMutability": "nonpayable",
      "type": "function"
    },
    {
      "inputs": [],
      "name": "getName",
      "outputs": [
        {
          "internalType": "string",
          "name": "",
          "type": "string"
        }
      ],
      "stateMutability": "view",
      "type": "function"
    },
    {
      "inputs": [
        {
          "internalType": "string",
          "name": "name",
          "type": "string"
        },
        {
          "internalType": "string",
          "name": "role",
          "type": "string"
        },
        {
          "internalType": "uint256",
          "name": "access_type",
          "type": "uint256"
        },
        {
          "internalType": "string",
          "name": "tokenUri",
          "type": "string"
        }
      ],
      "name": "readResource",
      "outputs": [],
      "stateMutability": "nonpayable",
      "type": "function"
    },
    {
      "inputs": [
        {
          "internalType": "string",
          "name": "name",
          "type": "string"
        },
        {
          "internalType": "string",
          "name": "role",
          "type": "string"
        },
        {
          "internalType": "uint256",
          "name": "access_type",
          "type": "uint256"
        },
        {
          "internalType": "string",
          "name": "tokenUri",
          "type": "string"
        }
      ],
      "name": "updateResource",
      "outputs": [],
      "stateMutability": "nonpayable",
      "type": "function"
    }
  ],
  "bytecode": "0x6080604052604051610622380380610622833981016040819052610022916100d5565b805161003590600090602084019061003c565b50506101f5565b828054610048906101a4565b90600052602060002090601f01602090048101928261006a57600085556100b0565b82601f1061008357805160ff19168380011785556100b0565b828001600101855582156100b0579182015b828111156100b0578251825591602001919060010190610095565b506100bc9291506100c0565b5090565b5b808211156100bc57600081556001016100c1565b600060208083850312156100e857600080fd5b82516001600160401b03808211156100ff57600080fd5b818501915085601f83011261011357600080fd5b815181811115610125576101256101df565b604051601f8201601f19908116603f0116810190838211818310171561014d5761014d6101df565b81604052828152888684870101111561016557600080fd5b600093505b82841015610187578484018601518185018701529285019261016a565b828411156101985760008684830101525b98975050505050505050565b600181811c908216806101b857607f821691505b602082108114156101d957634e487b7160e01b600052602260045260246000fd5b50919050565b634e487b7160e01b600052604160045260246000fd5b61041e806102046000396000f3fe608060405234801561001057600080fd5b50600436106100675760003560e01c8063bfe120ed11610050578063bfe120ed146100b4578063c3a6eb35146100b4578063decc86e5146100b457600080fd5b806317d7de7c1461006c5780637f87f7351461008a575b600080fd5b6100746100ca565b6040516100819190610342565b60405180910390f35b6100a4610098366004610212565b60009695505050505050565b6040519015158152602001610081565b6100c86100c23660046102b0565b50505050565b005b6060600080546100d990610397565b80601f016020809104026020016040519081016040528092919081815260200182805461010590610397565b80156101525780601f1061012757610100808354040283529160200191610152565b820191906000526020600020905b81548152906001019060200180831161013557829003601f168201915b5050505050905090565b803573ffffffffffffffffffffffffffffffffffffffff8116811461018057600080fd5b919050565b600082601f83011261019657600080fd5b813567ffffffffffffffff808211156101b1576101b16103d2565b604051601f8301601f19908116603f011681019082821181831017156101d9576101d96103d2565b816040528381528660208588010111156101f257600080fd5b836020870160208301376000602085830101528094505050505092915050565b60008060008060008060c0878903121561022b57600080fd5b863567ffffffffffffffff8082111561024357600080fd5b61024f8a838b01610185565b9750602089013591508082111561026557600080fd5b5061027289828a01610185565b955050604087013593506102886060880161015c565b92506102966080880161015c565b91506102a460a0880161015c565b90509295509295509295565b600080600080608085870312156102c657600080fd5b843567ffffffffffffffff808211156102de57600080fd5b6102ea88838901610185565b9550602087013591508082111561030057600080fd5b61030c88838901610185565b945060408701359350606087013591508082111561032957600080fd5b5061033687828801610185565b91505092959194509250565b600060208083528351808285015260005b8181101561036f57858101830151858201604001528201610353565b81811115610381576000604083870101525b50601f01601f1916929092016040019392505050565b600181811c908216806103ab57607f821691505b602082108114156103cc57634e487b7160e01b600052602260045260246000fd5b50919050565b634e487b7160e01b600052604160045260246000fdfea2646970667358221220aaba42999fb38064a951776b8bcadfe9e371e71d80c88b38ba051551086d678264736f6c63430008070033",
  "linkReferences": {},
  "deployedLinkReferences": {}
}