{
  "_format": "hh-sol-artifact-1",
  "contractName": "EmployeeRole",
  "sourceName": "contracts/MediatorPattern/EmployeeRole.sol",
  "abi": [
    {
      "inputs": [],
      "name": "getName",
      "outputs": [
        {
          "internalType": "string",
          "name": "",
          "type": "string"
        }
      ],
      "stateMutability": "view",
      "type": "function"
    },
    {
      "inputs": [
        {
          "internalType": "address",
          "name": "",
          "type": "address"
        },
        {
          "internalType": "address",
          "name": "",
          "type": "address"
        },
        {
          "internalType": "uint256",
          "name": "",
          "type": "uint256"
        },
        {
          "internalType": "bytes",
          "name": "",
          "type": "bytes"
        }
      ],
      "name": "onERC721Received",
      "outputs": [
        {
          "internalType": "bytes4",
          "name": "",
          "type": "bytes4"
        }
      ],
      "stateMutability": "nonpayable",
      "type": "function"
    },
    {
      "inputs": [
        {
          "internalType": "string",
          "name": "name",
          "type": "string"
        }
      ],
      "name": "setName",
      "outputs": [],
      "stateMutability": "nonpayable",
      "type": "function"
    }
  ],
  "bytecode": "0x608060405234801561001057600080fd5b50610467806100206000396000f3fe608060405234801561001057600080fd5b50600436106100415760003560e01c8063150b7a021461004657806317d7de7c146100b3578063c47f0027146100c8575b600080fd5b61007d6100543660046102be565b7f150b7a0200000000000000000000000000000000000000000000000000000000949350505050565b6040517fffffffff0000000000000000000000000000000000000000000000000000000090911681526020015b60405180910390f35b6100bb6100dd565b6040516100aa919061038b565b6100db6100d636600461033a565b61016f565b005b6060600080546100ec906103e0565b80601f0160208091040260200160405190810160405280929190818152602001828054610118906103e0565b80156101655780601f1061013a57610100808354040283529160200191610165565b820191906000526020600020905b81548152906001019060200180831161014857829003601f168201915b5050505050905090565b8051610182906000906020840190610186565b5050565b828054610192906103e0565b90600052602060002090601f0160209004810192826101b457600085556101fa565b82601f106101cd57805160ff19168380011785556101fa565b828001600101855582156101fa579182015b828111156101fa5782518255916020019190600101906101df565b5061020692915061020a565b5090565b5b80821115610206576000815560010161020b565b600067ffffffffffffffff8084111561023a5761023a61041b565b604051601f8501601f19908116603f011681019082821181831017156102625761026261041b565b8160405280935085815286868601111561027b57600080fd5b858560208301376000602087830101525050509392505050565b803573ffffffffffffffffffffffffffffffffffffffff811681146102b957600080fd5b919050565b600080600080608085870312156102d457600080fd5b6102dd85610295565b93506102eb60208601610295565b925060408501359150606085013567ffffffffffffffff81111561030e57600080fd5b8501601f8101871361031f57600080fd5b61032e8782356020840161021f565b91505092959194509250565b60006020828403121561034c57600080fd5b813567ffffffffffffffff81111561036357600080fd5b8201601f8101841361037457600080fd5b6103838482356020840161021f565b949350505050565b600060208083528351808285015260005b818110156103b85785810183015185820160400152820161039c565b818111156103ca576000604083870101525b50601f01601f1916929092016040019392505050565b600181811c908216806103f457607f821691505b6020821081141561041557634e487b7160e01b600052602260045260246000fd5b50919050565b634e487b7160e01b600052604160045260246000fdfea2646970667358221220967a44d42bdef460f16ea26975369fed7dc27a6a9af5b406895c38c9cfee6bb364736f6c63430008070033",
  "linkReferences": {},
  "deployedLinkReferences": {}
}