{
  "_format": "hh-sol-artifact-1",
  "contractName": "Supplier",
  "sourceName": "contracts/MediatorPattern/NonAdminRoles/mSupplier.sol",
  "abi": [
    {
      "inputs": [],
      "stateMutability": "nonpayable",
      "type": "constructor"
    },
    {
      "anonymous": false,
      "inputs": [
        {
          "indexed": false,
          "internalType": "string",
          "name": "name",
          "type": "string"
        }
      ],
      "name": "AppointmentCreated",
      "type": "event"
    },
    {
      "inputs": [
        {
          "internalType": "uint256",
          "name": "tokenUri",
          "type": "uint256"
        },
        {
          "internalType": "string",
          "name": "resource_name",
          "type": "string"
        },
        {
          "internalType": "address",
          "name": "verifier",
          "type": "address"
        },
        {
          "internalType": "address",
          "name": "issuer",
          "type": "address"
        },
        {
          "internalType": "address",
          "name": "account",
          "type": "address"
        }
      ],
      "name": "createAppointment",
      "outputs": [],
      "stateMutability": "nonpayable",
      "type": "function"
    },
    {
      "inputs": [],
      "name": "getContractAddress",
      "outputs": [
        {
          "internalType": "address",
          "name": "",
          "type": "address"
        }
      ],
      "stateMutability": "view",
      "type": "function"
    },
    {
      "inputs": [],
      "name": "getName",
      "outputs": [
        {
          "internalType": "string",
          "name": "",
          "type": "string"
        }
      ],
      "stateMutability": "view",
      "type": "function"
    },
    {
      "inputs": [],
      "name": "getresult",
      "outputs": [
        {
          "internalType": "bool",
          "name": "",
          "type": "bool"
        }
      ],
      "stateMutability": "view",
      "type": "function"
    },
    {
      "inputs": [],
      "name": "manageSupplies",
      "outputs": [
        {
          "internalType": "string",
          "name": "",
          "type": "string"
        }
      ],
      "stateMutability": "pure",
      "type": "function"
    },
    {
      "inputs": [
        {
          "internalType": "address",
          "name": "",
          "type": "address"
        },
        {
          "internalType": "address",
          "name": "",
          "type": "address"
        },
        {
          "internalType": "uint256",
          "name": "",
          "type": "uint256"
        },
        {
          "internalType": "bytes",
          "name": "",
          "type": "bytes"
        }
      ],
      "name": "onERC721Received",
      "outputs": [
        {
          "internalType": "bytes4",
          "name": "",
          "type": "bytes4"
        }
      ],
      "stateMutability": "nonpayable",
      "type": "function"
    },
    {
      "inputs": [
        {
          "internalType": "string",
          "name": "name",
          "type": "string"
        }
      ],
      "name": "setName",
      "outputs": [],
      "stateMutability": "nonpayable",
      "type": "function"
    }
  ],
  "bytecode": "0x60c0604052600860808190526739bab8383634b2b960c11b60a09081526100299160019190610046565b506002805460ff1916905534801561004057600080fd5b5061011a565b828054610052906100df565b90600052602060002090601f01602090048101928261007457600085556100ba565b82601f1061008d57805160ff19168380011785556100ba565b828001600101855582156100ba579182015b828111156100ba57825182559160200191906001019061009f565b506100c69291506100ca565b5090565b5b808211156100c657600081556001016100cb565b600181811c908216806100f357607f821691505b6020821081141561011457634e487b7160e01b600052602260045260246000fd5b50919050565b610f05806101296000396000f3fe608060405234801561001057600080fd5b506004361061007d5760003560e01c806340fc05021161005b57806340fc0502146101125780636daed60f1461012857806371c0784614610161578063c47f00271461017657600080fd5b8063150b7a021461008257806317d7de7c146100ef57806332a2c5d014610104575b600080fd5b6100b96100903660046105a4565b7f150b7a0200000000000000000000000000000000000000000000000000000000949350505050565b6040517fffffffff0000000000000000000000000000000000000000000000000000000090911681526020015b60405180910390f35b6100f7610189565b6040516100e69190610745565b6040513081526020016100e6565b60025460ff1660405190151581526020016100e6565b60408051808201909152600f81527f4d616e61676520537570706c696573000000000000000000000000000000000060208201526100f7565b61017461016f36600461067f565b61021b565b005b610174610184366004610642565b610421565b6060600080546101989061085c565b80601f01602080910402602001604051908101604052809291908181526020018280546101c49061085c565b80156102115780601f106101e657610100808354040283529160200191610211565b820191906000526020600020905b8154815290600101906020018083116101f457829003601f168201915b5050505050905090565b6040517f7a2b380c00000000000000000000000000000000000000000000000000000000815260009073ffffffffffffffffffffffffffffffffffffffff851690637a2b380c906102799060019089908b9088908a90600401610758565b602060405180830381600087803b15801561029357600080fd5b505af11580156102a7573d6000803e3d6000fd5b505050506040513d601f19601f820116820180604052508101906102cb9190610620565b6002805460ff1916911515918217905560ff16156103b1577f632ffaf40ef2398c05c9bb440e5a4be6f0838331c77764fc7451b8c73e3964c36040516103429060208082526013908201527f4170706f696e746d656e74204372656174656400000000000000000000000000604082015260600190565b60405180910390a1600060405161035890610438565b60208082526008908201527f5265736f757263650000000000000000000000000000000000000000000000006040820152606001604051809103906000f0801580156103a8573d6000803e3d6000fd5b50905050610419565b7f632ffaf40ef2398c05c9bb440e5a4be6f0838331c77764fc7451b8c73e3964c36040516104109060208082526017908201527f4170706f696e746d656e74204e6f742043726561746564000000000000000000604082015260600190565b60405180910390a15b505050505050565b8051610434906000906020840190610445565b5050565b610622806108ae83390190565b8280546104519061085c565b90600052602060002090601f01602090048101928261047357600085556104b9565b82601f1061048c57805160ff19168380011785556104b9565b828001600101855582156104b9579182015b828111156104b957825182559160200191906001019061049e565b506104c59291506104c9565b5090565b5b808211156104c557600081556001016104ca565b600067ffffffffffffffff808411156104f9576104f9610897565b604051601f8501601f19908116603f0116810190828211818310171561052157610521610897565b8160405280935085815286868601111561053a57600080fd5b858560208301376000602087830101525050509392505050565b803573ffffffffffffffffffffffffffffffffffffffff8116811461057857600080fd5b919050565b600082601f83011261058e57600080fd5b61059d838335602085016104de565b9392505050565b600080600080608085870312156105ba57600080fd5b6105c385610554565b93506105d160208601610554565b925060408501359150606085013567ffffffffffffffff8111156105f457600080fd5b8501601f8101871361060557600080fd5b610614878235602084016104de565b91505092959194509250565b60006020828403121561063257600080fd5b8151801515811461059d57600080fd5b60006020828403121561065457600080fd5b813567ffffffffffffffff81111561066b57600080fd5b6106778482850161057d565b949350505050565b600080600080600060a0868803121561069757600080fd5b85359450602086013567ffffffffffffffff8111156106b557600080fd5b6106c18882890161057d565b9450506106d060408701610554565b92506106de60608701610554565b91506106ec60808701610554565b90509295509295909350565b6000815180845260005b8181101561071e57602081850181015186830182015201610702565b81811115610730576000602083870101525b50601f01601f19169290920160200192915050565b60208152600061059d60208301846106f8565b60a08152600080875481600182811c91508083168061077857607f831692505b602080841082141561079857634e487b7160e01b86526022600452602486fd5b60a0880184905260c088018280156107b757600181146107c8576107f3565b60ff198716825282820197506107f3565b60008f81526020902060005b878110156107ed578154848201529086019084016107d4565b83019850505b505087860381890152505050505061080b81886106f8565b915050846040830152610836606083018573ffffffffffffffffffffffffffffffffffffffff169052565b73ffffffffffffffffffffffffffffffffffffffff831660808301529695505050505050565b600181811c9082168061087057607f821691505b6020821081141561089157634e487b7160e01b600052602260045260246000fd5b50919050565b634e487b7160e01b600052604160045260246000fdfe6080604052604051610622380380610622833981016040819052610022916100d5565b805161003590600090602084019061003c565b50506101f5565b828054610048906101a4565b90600052602060002090601f01602090048101928261006a57600085556100b0565b82601f1061008357805160ff19168380011785556100b0565b828001600101855582156100b0579182015b828111156100b0578251825591602001919060010190610095565b506100bc9291506100c0565b5090565b5b808211156100bc57600081556001016100c1565b600060208083850312156100e857600080fd5b82516001600160401b03808211156100ff57600080fd5b818501915085601f83011261011357600080fd5b815181811115610125576101256101df565b604051601f8201601f19908116603f0116810190838211818310171561014d5761014d6101df565b81604052828152888684870101111561016557600080fd5b600093505b82841015610187578484018601518185018701529285019261016a565b828411156101985760008684830101525b98975050505050505050565b600181811c908216806101b857607f821691505b602082108114156101d957634e487b7160e01b600052602260045260246000fd5b50919050565b634e487b7160e01b600052604160045260246000fd5b61041e806102046000396000f3fe608060405234801561001057600080fd5b50600436106100675760003560e01c8063bfe120ed11610050578063bfe120ed146100b4578063c3a6eb35146100b4578063decc86e5146100b457600080fd5b806317d7de7c1461006c5780637f87f7351461008a575b600080fd5b6100746100ca565b6040516100819190610342565b60405180910390f35b6100a4610098366004610212565b60009695505050505050565b6040519015158152602001610081565b6100c86100c23660046102b0565b50505050565b005b6060600080546100d990610397565b80601f016020809104026020016040519081016040528092919081815260200182805461010590610397565b80156101525780601f1061012757610100808354040283529160200191610152565b820191906000526020600020905b81548152906001019060200180831161013557829003601f168201915b5050505050905090565b803573ffffffffffffffffffffffffffffffffffffffff8116811461018057600080fd5b919050565b600082601f83011261019657600080fd5b813567ffffffffffffffff808211156101b1576101b16103d2565b604051601f8301601f19908116603f011681019082821181831017156101d9576101d96103d2565b816040528381528660208588010111156101f257600080fd5b836020870160208301376000602085830101528094505050505092915050565b60008060008060008060c0878903121561022b57600080fd5b863567ffffffffffffffff8082111561024357600080fd5b61024f8a838b01610185565b9750602089013591508082111561026557600080fd5b5061027289828a01610185565b955050604087013593506102886060880161015c565b92506102966080880161015c565b91506102a460a0880161015c565b90509295509295509295565b600080600080608085870312156102c657600080fd5b843567ffffffffffffffff808211156102de57600080fd5b6102ea88838901610185565b9550602087013591508082111561030057600080fd5b61030c88838901610185565b945060408701359350606087013591508082111561032957600080fd5b5061033687828801610185565b91505092959194509250565b600060208083528351808285015260005b8181101561036f57858101830151858201604001528201610353565b81811115610381576000604083870101525b50601f01601f1916929092016040019392505050565b600181811c908216806103ab57607f821691505b602082108114156103cc57634e487b7160e01b600052602260045260246000fd5b50919050565b634e487b7160e01b600052604160045260246000fdfea264697066735822122082013b30e9bad39dccf655bb78393ae1e75b4dd7a8093772b09df79de28d977b64736f6c63430008070033a2646970667358221220f499cb087667871e9cb09fa0db5b6058ac0a8b50025c465e65e65893ed43e3e864736f6c63430008070033",
  "linkReferences": {},
  "deployedLinkReferences": {}
}